:020000040800F2
:1000000000000220152C0008C9290008D129000889
:10001000D9290008E1290008E929000800000000AA
:10002000000000000000000000000000F1290008AE
:10003000FF290008000000000D2A00081B2A000804
:10004000652C0008652C0008652C0008652C00084C
:10005000652C0008652C0008652C0008652C00083C
:10006000652C0008652C0008652C0008652C00082C
:10007000652C0008652C0008652C0008652C00081C
:10008000652C0008652C0008652C000800000000A5
:10009000000000000000000000000000652C0008C7
:1000A000292A0008652C0008652C0008652C00082A
:1000B000652C0008652C0008652C0008652C0008DC
:1000C000652C0008652C0008652C0008652C0008CC
:1000D000652C0008652C00083D2A0008000000007F
:1000E000652C0008652C0008652C00080000000045
:1000F000000000000000000000000000652C000867
:1001000000000000652C0008652C0008652C000824
:1001100000000000000000000000000000000000DF
:10012000652C0008652C0008512A0008652C000881
:10013000652C000800000000000000000000000026
:10014000000000000000000000000000652C000816
:10015000652C0008652C0008652C0008652C00083B
:10016000652C0008652C000800000000000000005D
:10017000000000000000000000000000000000007F
:1001800000000000652C00080000000000000000D6
:08019000652C0008652C000835
:1001A00010B5054C237833B9044B13B10448AFF3B1
:1001B00000800123237010BDF0010020000000002A
:1001C0002807010808B5034B1BB103490348AFF3E7
:1001D000008008BD00000000F4010020280701088D
:1001E00001F0FF01102A2BDB10F0070F08D010F8E8
:1001F000013B013A8B422DD010F0070F42B3F6D1EC
:10020000F0B441EA012141EA014122F007047FF004
:1002100000070023F0E80256083C85EA010586EA5B
:10022000010685FA47F5A3FA87F586FA47F6A5FA97
:1002300087F68EB9EED1F0BC01F0FF0102F00702A3
:1002400032B110F8013B013A83EA010313B1F8D14E
:100250000020704701387047002D06BF354603382F
:10026000073815F0010F07D1013015F4807F02BF68
:10027000013015F4C03F0130F0BC0138704700BFB9
:10028000034613F8012B002AFBD1181A01387047D6
:1002900081F0004102E000BF83F0004330B54FEA37
:1002A00041044FEA430594EA050F08BF90EA020FA4
:1002B0001FBF54EA000C55EA020C7FEA645C7FEA37
:1002C000655C00F0E2804FEA5454D4EB5555B8BF5A
:1002D0006D420CDD2C4480EA020281EA030382EACB
:1002E000000083EA010180EA020281EA0303362D5D
:1002F00088BF30BD11F0004F4FEA01314FF4801C30
:100300004CEA113102D0404261EB410113F0004F41
:100310004FEA03334CEA133302D0524263EB4303F8
:1003200094EA050F00F0A780A4F10104D5F1200E96
:100330000DDB02FA0EFC22FA05F2801841F10001F1
:1003400003FA0EF2801843FA05F359410EE0A5F1C5
:1003500020050EF1200E012A03FA0EFC28BF4CF0F6
:10036000020C43FA05F3C01851EBE37101F00045AC
:1003700007D54FF0000EDCF1000C7EEB00006EEBB9
:100380000101B1F5801F1BD3B1F5001F0CD3490843
:100390005FEA30004FEA3C0C04F101044FEA44529A
:1003A00012F5800F80F09A80BCF1004F08BF5FEA21
:1003B000500C50F1000041EB045141EA050130BD01
:1003C0005FEA4C0C404141EB0101013C28BFB1F513
:1003D000801FE9D291F0000F04BF01460020B1FA5E
:1003E00081F308BF2033A3F10B03B3F120020CDA31
:1003F0000C3208DD02F1140CC2F10C0201FA0CF00F
:1004000021FA02F10CE002F11402D8BFC2F1200C73
:1004100001FA02F120FA0CFCDCBF41EA0C01904029
:10042000E41AA2BF01EB0451294330BD6FEA040472
:100430001F3C1CDA0C340EDC04F11404C4F120025D
:1004400020FA04F001FA02F340EA030021FA04F36F
:1004500045EA030130BDC4F10C04C4F1200220FAC6
:1004600002F001FA04F340EA0300294630BD21FA04
:1004700004F0294630BD94F0000F83F4801306BFCA
:1004800081F480110134013D4EE77FEA645C18BFBE
:100490007FEA655C29D094EA050F08BF90EA020F55
:1004A00005D054EA000C04BF1946104630BD91EA4D
:1004B000030F1EBF0021002030BD5FEA545C05D150
:1004C0004000494128BF41F0004130BD14F580048F
:1004D0003CBF01F5801130BD01F0004545F0FE4103
:1004E00041F470014FF0000030BD7FEA645C1ABF38
:1004F000194610467FEA655C1CBF0B46024650EA6F
:10050000013406BF52EA033591EA030F41F400219A
:1005100030BD00BF90F0000F04BF0021704730B520
:100520004FF4806404F132044FF000054FF00001F5
:1005300050E700BF90F0000F04BF0021704730B5B6
:100540004FF4806404F1320410F0004548BF40428B
:100550004FF000013EE700BF42004FEAE2014FEAE0
:1005600031014FEA02701FBF12F07F4393F07F4FBB
:1005700081F06051704732F07F4208BF704793F0BE
:100580007F4F04BF41F40021704730B54FF46074D1
:1005900001F0004521F000411CE700BF50EA0102D4
:1005A00008BF704730B54FF000050AE050EA01027D
:1005B00008BF704730B511F0004502D5404261EBED
:1005C00041014FF4806404F132045FEA915C3FF42E
:1005D000D8AE4FF003025FEADC0C18BF03325FEACB
:1005E000DC0C18BF033202EBDC02C2F1200300FA7C
:1005F00003FC20FA02F001FA03FE40EA0E0021FAA1
:1006000002F11444BDE600BF70B54FF0FF0C4CF48E
:10061000E06C1CEA11541DBF1CEA135594EA0C0F40
:1006200095EA0C0F00F0DEF82C4481EA030621EA7B
:100630004C5123EA4C5350EA013518BF52EA0335B6
:1006400041F4801143F4801338D0A0FB02CE4FF068
:100650000005E1FB02E506F00042E0FB03E54FF098
:100660000006E1FB03569CF0000F18BF4EF0010E90
:10067000A4F1FF04B6F5007F64F5407404D25FEA8C
:100680004E0E6D4146EB060642EAC62141EA55513F
:100690004FEAC52040EA5E504FEACE2EB4F1FD0C81
:1006A00088BFBCF5E06F1ED8BEF1004F08BF5FEAFF
:1006B000500E50F1000041EB045170BD06F00046B1
:1006C00046EA010140EA020081EA0301B4EB5C045E
:1006D000C2BFD4EB0C0541EA045170BD41F4801156
:1006E0004FF0000E013C00F3AB8014F1360FDEBF7B
:1006F000002001F0004170BDC4F10004203C35DA57
:100700000C341BDC04F11404C4F1200500FA05F3D9
:1007100020FA04F001FA05F240EA020001F000427A
:1007200021F0004110EBD37021FA04F642EB0601F0
:100730005EEA430E08BF20EAD37070BDC4F10C041A
:10074000C4F1200500FA04F320FA05F001FA04F2DE
:1007500040EA020001F0004110EBD37041F10001CA
:100760005EEA430E08BF20EAD37070BDC4F12005D5
:1007700000FA05F24EEA020E20FA04F301FA05F23D
:1007800043EA020321FA04F001F0004121FA04F2E5
:1007900020EA020000EBD3705EEA430E08BF20EAB5
:1007A000D37070BD94F0000F0FD101F000464000EF
:1007B00041EB010111F4801F08BF013CF7D041EA71
:1007C000060195F0000F18BF704703F00046520075
:1007D00043EB030313F4801F08BF013DF7D043EA46
:1007E0000603704794EA0C0F0CEA135518BF95EAFC
:1007F0000C0F0CD050EA410618BF52EA4306D1D183
:1008000081EA030101F000414FF0000070BD50EAA1
:10081000410606BF1046194652EA430619D094EA2B
:100820000C0F02D150EA013613D195EA0C0F05D115
:1008300052EA03361CBF104619460AD181EA030169
:1008400001F0004141F0FE4141F470014FF0000021
:1008500070BD41F0FE4141F4780170BD70B54FF0BC
:10086000FF0C4CF4E06C1CEA11541DBF1CEA13553C
:1008700094EA0C0F95EA0C0F00F0A7F8A4EB05041E
:1008800081EA030E52EA03354FEA013100F0888015
:100890004FEA03334FF0805545EA131343EA1263DE
:1008A0004FEA022245EA111545EA10654FEA002693
:1008B0000EF000419D4208BF964244F1FD0404F54C
:1008C000407402D25B084FEA3202B61A65EB0305A8
:1008D0005B084FEA32024FF480104FF4002CB6EB65
:1008E000020E75EB030E22BFB61A754640EA0C00E5
:1008F0005B084FEA3202B6EB020E75EB030E22BF25
:10090000B61A754640EA5C005B084FEA3202B6EB65
:10091000020E75EB030E22BFB61A754640EA9C0024
:100920005B084FEA3202B6EB020E75EB030E22BFF4
:10093000B61A754640EADC0055EA060E18D04FEAB2
:10094000051545EA16754FEA06164FEAC30343EA52
:1009500052734FEAC2025FEA1C1CC0D111F4801F1F
:100960000BD141EA00014FF000004FF0004CB6E718
:1009700011F4801F04BF01430020B4F1FD0C88BFB7
:10098000BCF5E06F3FF6AFAEB5EB030C04BFB6EBC2
:10099000020C5FEA500C50F1000041EB045170BDB5
:1009A0000EF0004E4EEA113114EB5C04C2BFD4EBE2
:1009B0000C0541EA045170BD41F480114FF0000E66
:1009C000013C90E645EA060E8DE60CEA135594EAE2
:1009D0000C0F08BF95EA0C0F3FF43BAF94EA0C0FE5
:1009E0000AD150EA01347FF434AF95EA0C0F7FF45A
:1009F00025AF104619462CE795EA0C0F06D152EAAE
:100A000003353FF4FDAE1046194622E750EA410691
:100A100018BF52EA43067FF4C5AE50EA41047FF4A2
:100A20000DAF52EA43057FF4EBAE12E74FF0FF3C07
:100A300006E000BF4FF0010C02E000BF4FF0010CD8
:100A40004DF804CD4FEA410C7FEA6C5C4FEA430C51
:100A500018BF7FEA6C5C1BD001B050EA410C0CBFA0
:100A600052EA430C91EA030F02BF90EA020F002002
:100A7000704710F1000F91EA030F58BF994208BF69
:100A800090422CBFD8176FEAE37040F00100704726
:100A90004FEA410C7FEA6C5C02D150EA013C07D17D
:100AA0004FEA430C7FEA6C5CD6D152EA033CD3D0C8
:100AB0005DF8040B704700BF8446104662468C46C2
:100AC0001946634600E000BF01B5FFF7B7FF0028F5
:100AD00048BF10F1000F01BD4DF808EDFFF7F4FF1E
:100AE0000CBF012000205DF808FB00BF4DF808EDA9
:100AF000FFF7EAFF34BF012000205DF808FB00BFCC
:100B00004DF808EDFFF7E0FF94BF012000205DF8ED
:100B100008FB00BF4DF808EDFFF7CEFF94BF0120A2
:100B200000205DF808FB00BF4DF808EDFFF7C4FF9B
:100B300034BF012000205DF808FB00BF4FEA410CE4
:100B40007FEA6C5C02D150EA013C0AD14FEA430CC7
:100B50007FEA6C5C02D152EA033C02D14FF0000004
:100B600070474FF0010070474FEA410212F5001242
:100B700015D211D56FF47873B3EB625212D94FEAE4
:100B8000C12343F0004343EA505311F0004F23FACE
:100B900002F018BF404270474FF00000704750EA23
:100BA000013005D111F0004008BF6FF000407047E0
:100BB0004FF00000704700BF4A0011D212F500123A
:100BC00011D20DD56FF47873B3EB62520ED44FEAA5
:100BD000C12343F0004343EA505323FA02F0704725
:100BE0004FF00000704750EA013002D14FF0FF3063
:100BF00070474FF0000070474FEA4102B2F1E04306
:100C000024BFB3F5001CDCF1FE5C0DD901F0004CF3
:100C10004FEAC0024CEA5070B2F1004F40EB830043
:100C200008BF20F00100704711F0804F21D113F16F
:100C30003872BCBF01F00040704741F480114FEAA8
:100C40005252C2F11802C2F1200C10FA0CF320FA31
:100C500002F018BF40F001004FEAC1234FEAD3234E
:100C600003FA0CFC40EA0C0023FA02F34FEA4303B8
:100C7000CCE77FEA625307D150EA01331EBF4FF041
:100C8000FE4040F44000704701F0004040F0FE405C
:100C900040F40000704700BF53B94AB9002908BFAB
:100CA00000281CBF4FF0FF314FF0FF3000F0A0B91B
:100CB000ADF1080C6DE904CE00F03CF8DDF804E07D
:100CC000DDE9022304B0704738B500220023044652
:100CD0000D46FFF70BFF28B920462946BDE83840EE
:100CE00000F00AB8204605F1004100F005F8404246
:100CF00061EB410138BD00BFD0B50C4B0022064668
:100D00000F46FFF781FCFFF757FF0446FFF702FC91
:100D1000074B0022FFF778FC02460B463046394667
:100D2000FFF7BAFAFFF748FF2146D0BD0000F03DBB
:100D30000000F0412DE9F047089D0C46002B4ED1F4
:100D400094468C458646B2FA82F262D94AB1C2F123
:100D50002003914020FA03F30CFA02FC194300FA35
:100D600002FE4FEA1C471FFA8CF6B1FBF7F44FEA7C
:100D70001E4307FB141143EA014304FB06F19942A9
:100D80000AD91CEB030304F1FF3080F01281994271
:100D900040F20F81023C6344591A1FFA8EF3B1FBF3
:100DA000F7F007FB101143EA014300FB06F69E42F1
:100DB0000AD91CEB030300F1FF3180F0FC809E4256
:100DC00040F2F980634402389B1B40EA0440002152
:100DD0001DB1D3400022C5E90032BDE8F0878B4247
:100DE00005D90DB1C5E9000100210846F5E7B3FAC0
:100DF00083F1002946D1A34202D39042C0F0F08093
:100E0000861A64EB03030120002DE6D0C5E90063D8
:100E1000E3E7002A40F09080A1EB0C044FEA1C4865
:100E20001FFA8CF70121B4FBF8F64FEA1E4308FBCA
:100E3000164443EA044307FB06F0984208D91CEB2A
:100E4000030306F1FF3402D2984200F2CD80264619
:100E50001C1A1FFA8EF3B4FBF8F008FB104443EAA7
:100E6000044300FB07F79F4208D91CEB030300F182
:100E7000FF3402D29F4200F2B0802046DB1B40EAE2
:100E80000640A5E7C1F120068B4022FA06F71F4372
:100E900020FA06FC04FA01F343EA0C03F44000FADA
:100EA00001F8380C4FEA1349B4FBF0FE1FFA87FC37
:100EB00000FB1E4449EA04440EFB0CF9A14502FA6A
:100EC00001F20AD93C190EF1FF3A80F08480A14565
:100ED00040F28180AEF1020E3C44A4EB09041FFAFB
:100EE00083F9B4FBF0F300FB134449EA044403FB29
:100EF0000CFCA44507D93C1903F1FF3067D2A44587
:100F000065D9023B3C4443EA0E40A0FB0293A4EBAC
:100F10000C049C42CE469C4651D34ED055B1B8EB02
:100F20000E0364EB0C0404FA06F6CB401E43CC40DF
:100F3000C5E90064002150E7C2F1200320FA03F163
:100F40000CFA02FC24FA03F394400C434FEA1C48C9
:100F500000FA02FE1FFA8CF7B3FBF8F008FB103121
:100F6000230C43EA014300FB07F1994208D91CEB2B
:100F7000030300F1FF362CD299422AD90238634488
:100F80005B1AA4B2B3FBF8F108FB113344EA034443
:100F900001FB07F3A34208D91CEB040401F1FF365F
:100FA00013D2A34211D902396444E41A41EA004140
:100FB00039E70446F0E6084606E7C845AED2B9EB85
:100FC000020E63EB070C0138A8E73146EDE7034654
:100FD00099E73046D4E7D6467FE7634402384DE7C9
:100FE0000646234608460FE7023E634430E700BF4B
:100FF000704700BF80B483B000AF7860044A7B685C
:10100000136000BF0C37BD465DF8047B704700BF1E
:101010000C02002080B582B000AF78607B68184673
:1010200001F094FE00BF0837BD4680BD80B588B092
:1010300002AF03460A46FB711346BB71FB793B7353
:10104000BB797B735A4B186807F10C020A23009393
:101050000223502102F00EFE0346FB75FB7D002BA0
:1010600000F0A080FB7D012B03D152480BF038FB30
:1010700012E0FB7D032B03D14F480BF031FB0BE05B
:10108000FB7D022B03D14D480BF02AFB04E0FB7DD6
:1010900019464B480BF0BCFA454B1B68184603F049
:1010A00027F938613B69002B7ED03B69012B03D1C6
:1010B00044480BF015FB21E03B69022B03D1424869
:1010C0000BF00EFB1AE03B69042B03D13F480BF0F9
:1010D00007FB13E03B69082B03D13D480BF000FBF5
:1010E0000CE03B69102B03D13A480BF0F9FA05E00C
:1010F0003B69202B02D138480BF0F2FA2C4B1B68CD
:10110000184603F0E7F80346FB73FB7B002B03D183
:1011100032480BF0E5FA48E0FB7B202B03D12F4847
:101120000BF0DEFA41E0FB7B242B03D12C480BF0C3
:10113000D7FA3AE0FB7B212B03D12A480BF0D0FAF7
:1011400033E0FB7B222B03D127480BF0C9FA2CE0BC
:10115000FB7B282B03D125480BF0C2FA25E0FB7B53
:10116000292B03D122480BF0BBFA1EE0FB7B2A2B74
:1011700003D120480BF0B4FA17E0FB7B602B03D1BE
:101180001D480BF0ADFA10E0FB7BA02B03D11B48F0
:101190000BF0A6FA09E0FB7BE02B06D118480BF018
:1011A0009FFA02E000BF00E000BF1837BD4680BDD7
:1011B0000C02002040070108640701088C070108A1
:1011C000B0070108C8070108DC070108F00701089B
:1011D00004080108180801082C080108440801083F
:1011E0005C0801087008010888080108A0080108C7
:1011F000B8080108D8080108F80801081009010812
:101200002809010880B584B002AF03463960FB713C
:101210001346BB710B4B1868FA1D6423009301231E
:10122000502102F027FD074B1868BB799BB264225E
:1012300000923A68502102F01BFE00BF0837BD46FD
:1012400080BD00BF0C02002080B500AFBE4B1B6804
:101250005B6A1AB2BD4B1A80BD4B1B685B6A1AB23F
:10126000BC4B1A80BC4B1B685B6A1AB2BB4B1A8022
:10127000BB4B1B685B6A1AB2BA4B1A800A2001F09A
:1012800065FDB14B1B685B6A1AB2B74B1A80B04B55
:101290001B685B6A1AB2B54B1A80AF4B1B685B6A5E
:1012A0001AB2B34B1A80AE4B1B685B6A1AB2B14BD1
:1012B0001A80AE4B1B881BB21A46A64B1B881BB26A
:1012C000D31A07EE903AF8EEE77A17EE900AFFF796
:1012D00043F997A3D3E90023FFF7C0FA02460B4670
:1012E000104619464FF00002A34BFFF78DF9024656
:1012F0000B4610461946FFF77FFC03469F4A1360D2
:101300009C4B1B881BB21A46964B1B881BB2D31AE8
:1013100007EE903AF8EEE77A17EE900AFFF71CF91D
:1013200083A3D3E90023FFF799FA02460B46104640
:1013300019464FF00002904BFFF766F902460B4644
:1013400010461946FFF758FC03468D4A1360884B38
:101350001B881BB21A46814B1B881BB2D31A07EE9F
:10136000903AF8EEE77A17EE900AFFF7F5F870A3D7
:10137000D3E90023FFF772FA02460B4610461946DE
:101380004FF000027C4BFFF73FF902460B46104638
:101390001946FFF731FC03467A4A1360724B1B88EB
:1013A0001BB21A46694B1B881BB2D31A07EE903A40
:1013B000F8EEE77A17EE900AFFF7CEF85CA3D3E9D0
:1013C0000023FFF74BFA02460B46104619464FF032
:1013D0000002694BFFF718F902460B461046194602
:1013E000FFF70AFC0346684A1360644BD3ED007AAA
:1013F00077EEA77A17EE900AFFF7AEF84EA3D3E97F
:101400000023FFF701F902460B46104619464FF03C
:101410000002594BFFF722FA02460B4610461946C6
:10142000FFF7EAFB0346594A1360554BD3ED007AA8
:1014300077EEA77A17EE900AFFF78EF83EA3D3E96E
:101440000023FFF7E1F802460B46104619464FF01D
:101450000002494BFFF702FA02460B4610461946B6
:10146000FFF7CAFB03464A4A1360464BD3ED007AA6
:1014700077EEA77A17EE900AFFF76EF82EA3D3E95E
:101480000023FFF7C1F802460B46104619464FF0FD
:101490000002394BFFF7E2F902460B4610461946A7
:1014A000FFF7AAFB03463B4A1360374BD3ED007AA4
:1014B00077EEA77A17EE900AFFF74EF81EA3D3E94E
:1014C0000023FFF7A1F802460B46104619464FF0DD
:1014D0000002294BFFF7C2F902460B461046194697
:1014E000FFF78AFB03462C4A1360284B93ED007AE2
:1014F000274BD3ED007A37EE277A264BD3ED007ACF
:1015000037EE277A244BD3ED007A77EE277A17EE61
:10151000900AFFF721F80AA3D3E90023FFF774F834
:1015200002460B4610461946FFF766FB034635E0B8
:10153000CDCCCCCCCCCC43401F85EB51B81E094060
:10154000FA7E6ABC7493883F74030020EA0200208C
:10155000BC030020DE02002004040020E60200207C
:101560004C040020E2020020E8020020DC020020FF
:10157000E4020020E002002000004E40EC020020C7
:10158000F0020020F4020020F80200202C020020CB
:101590003002002034020020380200202A4A136062
:1015A0002A4B93ED007A2A4BD3ED007A37EE677A17
:1015B000284BD3ED007A37EE677A274BD3ED007ACC
:1015C00077EE277A17EE900AFEF7C6FF1AA3D3E943
:1015D0000023FFF719F802460B4610461946FFF79D
:1015E0000BFB03461D4A1360184B93ED007A184B12
:1015F000D3ED007A37EE677A164BD3ED007A37EEEB
:10160000277A154BD3ED007A77EE677A17EE900ABA
:10161000FEF7A2FF0AA3D3E90023FEF7F5FF024677
:101620000B4610461946FFF7E7FA03460C4A1360CB
:1016300000BF80BDAFF30080FA7E6ABC7493883F20
:101640007B14AE47E17A943F4C0200203002002028
:101650002C0200203402002038020020500200201A
:101660005402002000000000B0B582B000AF87ED4A
:10167000010AC7ED000AD7ED007A67EEA77A17EEE8
:10168000900AFEF769FF70A3D3E90023FEF704FE7A
:1016900002460B4610461946FFF7AEFA03466C4A5F
:1016A00013606B4B1B681846FEF756FF02460B464D
:1016B00043EC102B0DF0AAFE53EC102B10461946EC
:1016C000FFF79AFA0346624A1360D7ED017A67EE94
:1016D000A77A17EE900AFEF73FFF5BA3D3E900233A
:1016E000FEF7DAFD02460B4610461946FFF784FA6C
:1016F0000346584A1360574B1B681846FEF72CFFE9
:1017000002460B4643EC102B0DF080FE53EC102BE1
:1017100010461946FFF770FA03464E4A13604D4BC8
:1017200093ED007A4B4BD3ED007A67EE277A17EEF4
:10173000900AFEF711FF4FF00002474BFEF7AEFD97
:1017400002460B4614461D46414B93ED007A404B32
:10175000D3ED007A67EE277A17EE900AFEF7FCFECB
:1017600002460B4620462946FEF796FD02460B46EA
:1017700014461D46374BD3ED007A77EEA77A17EE65
:10178000900AFEF7E9FE4FF00002344BFEF73CFFF3
:1017900002460B4620462946FFF760F802460B46F4
:1017A00010461946FFF728FA03462D4A1360294BC5
:1017B00093ED007A2A4BD3ED007A67EE277A294B16
:1017C000C3ED007A264B93ED007A254BD3ED007ADA
:1017D00067EE277AB7EE007A77EE677AF5EEC07A91
:1017E000F1EE10FA00DA2BE01A4B1B681846FEF7F0
:1017F000B3FE04460D461A4B93ED007A184BD3ED19
:10180000007A67EE277AB7EE007A77EE677A17EEFE
:10181000900AFEF7A1FE02460B4643EC102B0DF09A
:10182000F5FD53EC102B20462946FEF7EDFE02464F
:101830000B4610461946FFF7DFF903460A4A1360C4
:1018400000BF0837BD46B0BD0AD7A3703D0AB73FF9
:10185000CC020020D00200200000224000000840FE
:10186000C8020020B8020020BC02002000000000D6
:1018700080B500AF05F054FBB0EE404AF0EE604A90
:10188000B0EE415AF0EE615AB0EE426AF0EE626A92
:10189000B0EE437AF0EE637A374B83ED004B83ED85
:1018A000025B83ED046B83ED067B334BD3E90223AC
:1018B00010461946FFF7A0F90346304A13602F4B34
:1018C000D3ED007AF5EEC07AF1EE10FA27DB2B4B60
:1018D000D3ED007A9FED2A7AF4EEC77AF1EE10FA92
:1018E0001DD5264B93ED007ADFED266AC7EE267AEA
:1018F000F1EE677A77EEA77A17EE900AFEF72CFEE4
:101900001BA3D3E90023FEF77FFE02460B461046D9
:101910001946FFF771F90346184A136025E0174B83
:10192000D3ED007A9FED177A77EE677A134BC3ED0C
:10193000007A124B93ED007ADFED126AC7EE267A39
:1019400077EEA77A17EE900AFEF706FE08A3D3E912
:101950000023FEF759FE02460B4610461946FFF7D4
:101960004BF90346054A136000BF00BF80BD00BFAE
:10197000A7E8482EFF21094000030020FC020020B8
:10198000000034430000B44380B582B000AF0023B0
:101990007B60CBE00A2307226D496E4804F0F7F81C
:1019A0006B4B1B78412B4FD16B4969480AF0B2FF52
:1019B00003466A4A1360694B1B68184609F0E2F84F
:1019C00053EC102B10461946FFF716F90346644AEC
:1019D0001360644B1B68002B06D1614B1B68624A85
:1019E0001360604B01221A605F4B93ED007A5C4BF1
:1019F000D3ED007A77EE677AF0EEE77AB1EE047A0B
:101A0000F4EEC77AF1EE10FA1ED5554BD3ED007AFD
:101A1000F5EE407AF1EE10FA16D0514B1B68524A9F
:101A20001360514B1B681846FEF796FD44A3D3E99B
:101A30000023FEF731FC02460B4610461946FFF71D
:101A4000DBF80346494A1360414B1B78422B59D1BE
:101A500047493F480AF05EFF0346464A1360454B3C
:101A60001B68184609F08EF853EC102B10461946E7
:101A7000FFF7C2F80346404A1360404B1B68002B37
:101A800010D13C4B1B68184609F07CF853EC102B26
:101A900010461946FFF7B0F80346394A1360374B32
:101AA00001221A60364B93ED007A334BD3ED007A66
:101AB00077EE677AF0EEE77AB1EE047AF4EEC77A61
:101AC000F1EE10FA1ED52C4BD3ED007AF5EE407AEC
:101AD000F1EE10FA16D0284B1B68294A1360284BE8
:101AE0001B681846FEF738FD17A3D3E90023FEF75D
:101AF000D3FB02460B4610461946FFF77DF8034616
:101B0000204A1360194BD3ED007A1E4B93ED007AF7
:101B1000F0EE470AB0EE670AFFF7A6FD07220021A4
:101B20000B480AF0DDFE7B6801337B607B68132B7A
:101B30007FF730AF00BF00BF0837BD4680BD00BF94
:101B4000AAF1D24D6210D83FA245B6F3FDD4E83FCA
:101B50008C0200209404002040090108D4020020D7
:101B6000A8020020B0020020A0020020C002002035
:101B700044090108D8020020AC020020B402002071
:101B8000A4020020C40200202DE9B04F86B006AFA9
:101B900001F06AF800F06AF900F0F0FB00F0CEFB0B
:101BA00000F0FAF900F076FB00F04EFA00F0A0FA2F
:101BB00000F0F2FA00F098FB00F042FB00F0BEF9F2
:101BC00001224FF400418E4801F0F6FE01224FF44D
:101BD00080518B4801F0F0FE01224FF400518848FB
:101BE00001F0EAFE0021874803F012FC0421854839
:101BF00003F00EFC0021844803F00AFC0421824813
:101C000003F006FC0021814803F002FC04217F4818
:101C100003F0FEFB00217E4803F0FAFB04217C4820
:101C200003F0F6FB7B4B00221A6001227A497B48C5
:101C300004F044F87A48FFF7DDF905F005F804F000
:101C4000F0FF08F0A5FEFFF79FFEFFF711FE754BB2
:101C50001B681846FEF780FC02460B467249C1E934
:101C60000C23724B1B681846FEF776FC02460B46A7
:101C70006D49C1E90E236E4B1B681846FEF76CFCDC
:101C800002460B466849C1E91023FFF77DFEFFF7C6
:101C9000EFFDFFF7D9FA674B1B681846FEF75CFCAF
:101CA00002460B466049C1E90623634B1B68184690
:101CB000FEF752FC02460B465B49C1E908235F4B25
:101CC0001B681846FEF748FC02460B465649C1E918
:101CD0000A23544B1B681846FEF73EFC02460B468F
:101CE0005149C1E90023514B1B681846FEF734FCEB
:101CF00002460B464C49C1E902234D4B1B6818466E
:101D0000FEF72AFC02460B464749C1E904234C4B27
:101D10001B68D3F8A832D3E900234A49C1E900235C
:101D200005F002FE464B1B68D3F8A832D3E9002326
:101D30004549C1E90023454BD3E900231046194624
:101D4000FEF75AFF0346424A1360404BD3E9022391
:101D500010461946FEF750FF03463E4A13603B4BC0
:101D6000D3E9042310461946FEF746FF03463A4AD4
:101D70001360364BD3E9062310461946FEF73CFFA5
:101D80000346364A13603648FEF77AFA03461A4687
:101D9000002133480AF0A4FD2D4B1B681846FEF7BE
:101DA000DBFB82468B462B4B1B681846FEF7D4FBA9
:101DB00004460D46284B1B681846FEF7CDFB8046AF
:101DC0008946264B1B681846FEF7C6FB02460B46A3
:101DD000CDE90423CDE90289CDE9004552465B46B1
:101DE00020491F480AF084FC1D48FEF749FA0346C3
:101DF0009AB264231A491C4803F03EFE00BF44E730
:101E0000000C024074030020BC03002004040020E6
:101E10004C0400201002002028020020DC040020D6
:101E200020030020B802002040070020BC02002050
:101E3000FC0200204C02002050020020540200202E
:101E4000C409010818020020200200208807002091
:101E50003C020020400200204402002048020020F2
:101E600058020020480901082405002080B594B0DC
:101E700000AF07F120033022002118460AF030FDA0
:101E800007F10C0300221A605A609A60DA601A6146
:101E90000023BB60274B1B6C264A43F0805313641E
:101EA000244B1B6C03F08053BB60BB6800237B603A
:101EB000214B1B68204A43F4404313601E4B1B68B0
:101EC00003F440437B607B6802233B620123FB6297
:101ED00010233B630223BB630023FB6308233B64A3
:101EE00060237B640223BB640423FB6407F12003AB
:101EF000184602F08FFD0346002B01D000F0D0FA07
:101F00000F23FB6002233B6100237B614FF480536E
:101F1000BB610023FB6107F10C030321184602F0AB
:101F2000F1FF0346002B01D000F0BAFA00BF503792
:101F3000BD4680BD003802400070004080B500AF53
:101F4000124B134A1A60114B124A5A600F4B00226F
:101F50009A600E4B0022DA600C4B4FF480421A61FB
:101F60000A4B00225A61094B00229A61074B00225A
:101F7000DA61064B00221A62044801F037FD03467D
:101F8000002B01D000F08CFA00BF80BD20030020A0
:101F9000005C0040A086010080B58CB000AF07F166
:101FA0000C032422002118460AF09AFC3B1D002253
:101FB0001A605A60224B234A1A60214B00225A6051
:101FC0001F4B00229A601E4B4FF6FF72DA601C4BCB
:101FD00000221A611A4B00225A61194B00229A61A1
:101FE0000323FB6000233B6101237B610023BB6172
:101FF0000023FB6100233B6201237B620023BB6261
:102000000023FB6207F10C0319460D4803F05AF94F
:102010000346002B01D000F043FA00237B6000232D
:10202000BB603B1D1946064803F054FC0346002BD9
:1020300001D000F035FA00BF3037BD4680BD00BF8B
:10204000740300200000014080B58CB000AF07F1A0
:102050000C032422002118460AF042FC3B1D0022FA
:102060001A605A60214B4FF080421A601F4B0022C9
:102070005A601E4B00229A601C4B4FF6FF72DA60CA
:102080001A4B00221A61194B00229A610323FB604C
:1020900000233B6101237B610023BB610023FB61C3
:1020A00000233B6201237B620023BB620023FB62AF
:1020B00007F10C0319460D4803F004F90346002B01
:1020C00001D000F0EDF900237B600023BB603B1DD5
:1020D0001946064803F0FEFB0346002B01D000F032
:1020E000DFF900BF3037BD4680BD00BFBC03002014
:1020F00080B58CB000AF07F10C03242200211846F4
:102100000AF0EEFB3B1D00221A605A60204B214A68
:102110001A601F4B00225A601D4B00229A601C4B14
:102120004FF6FF72DA601A4B00221A61184B002238
:102130009A610323FB6000233B6101237B61002341
:10214000BB610023FB6100233B6201237B62002310
:10215000BB620023FB6207F10C0319460C4803F035
:10216000B1F80346002B01D000F09AF900237B6000
:102170000023BB603B1D1946054803F0ABFB03463B
:10218000002B01D000F08CF900BF3037BD4680BD78
:10219000040400200004004080B58CB000AF07F1BB
:1021A0000C032422002118460AF09AFB3B1D002252
:1021B0001A605A60204B214A1A601F4B00225A6055
:1021C0001D4B00229A601C4B4FF6FF72DA601A4BCF
:1021D00000221A61184B00229A610323FB6000233E
:1021E0003B6101237B610023BB610023FB61002372
:1021F0003B6201237B620023BB620023FB6207F189
:102200000C0319460C4803F05DF80346002B01D07F
:1022100000F046F900237B600023BB603B1D19469C
:10222000054803F057FB0346002B01D000F038F9B6
:1022300000BF3037BD4680BD4C0400200008004080
:1022400080B500AF114B124A1A60104B4FF4E132C7
:102250005A600E4B00229A600C4B0022DA600B4B46
:1022600000221A61094B0C225A61084B00229A6124
:10227000064B0022DA61054803F0AEFB0346002B53
:1022800001D000F00DF900BF80BD00BF9404002014
:102290000010014080B500AF114B124A1A60104B7C
:1022A0004FF4E1325A600E4B00229A600C4B002230
:1022B000DA600B4B00221A61094B0C225A61084B61
:1022C00000229A61064B0022DA61054803F084FB84
:1022D0000346002B01D000F0E3F800BF80BD00BF33
:1022E000DC0400200044004080B500AF114B124ACE
:1022F0001A60104B4FF4E1325A600E4B00229A6084
:102300000C4B0022DA600B4B00221A61094B0C22A5
:102310005A61084B00229A61064B0022DA61054897
:1023200003F05AFB0346002B01D000F0B9F800BFC0
:1023300080BD00BF240500200014014080B582B09C
:1023400000AF00237B600C4B1B6B0B4A43F48003F4
:102350001363094B1B6B03F480037B607B680022D3
:1023600000213A2000F0F1FD3A2000F00AFE00BF03
:102370000837BD4680BD00BF0038024080B58CB034
:1023800000AF07F11C0300221A605A609A60DA60FD
:102390001A610023BB613F4B1B6B3E4A43F0800335
:1023A00013633C4B1B6B03F08003BB61BB690023D1
:1023B0007B61384B1B6B374A43F001031363354B8A
:1023C0001B6B03F001037B617B6900233B61314B95
:1023D0001B6B304A43F0100313632E4B1B6B03F04F
:1023E00010033B613B690023FB602A4B1B6B294AAE
:1023F00043F008031363274B1B6B03F00803FB60D8
:10240000FB680023BB60234B1B6B224A43F0040391
:102410001363204B1B6B03F00403BB60BB680023FA
:102420007B601C4B1B6B1B4A43F002031363194B6D
:102430001B6B03F002037B607B68002210211648AF
:1024400001F0BAFA00224FF43041144801F0B4FA16
:102450001023FB6101233B6200237B620023BB62EC
:1024600007F11C0319460C4801F022F94FF43043E0
:10247000FB6101233B6200237B620023BB6207F107
:102480001C031946054801F013F900BF3037BD465B
:1024900080BD00BF0038024000000240000C024036
:1024A00080B400AF72B600BF00BFFDE780B483B058
:1024B00000AF00237B60104B5B6C0F4A43F48043FA
:1024C00053640D4B5B6C03F480437B607B6800239B
:1024D0003B60094B1B6C084A43F080531364064B66
:1024E0001B6C03F080533B603B6800BF0C37BD465C
:1024F0005DF8047B704700BF0038024080B58AB0A9
:1025000000AF786007F1140300221A605A609A60E5
:10251000DA601A617B681B68294A93424BD1002319
:102520003B61284B1B6B274A43F004031363254B85
:102530001B6B03F004033B613B690023FB60214BF1
:102540001B6B204A43F0010313631E4B1B6B03F00C
:102550000103FB60FB684FF400737B611223BB61D6
:102560000023FB6103233B6204237B6207F1140316
:102570001946154801F09CF84FF480737B611223D3
:10258000BB610023FB6103233B6204237B6207F1F1
:10259000140319460D4801F08BF80023BB60094B6A
:1025A0001B6C084A43F400031364064B1B6C03F4D2
:1025B0000003BB60BB6800BF2837BD4680BD00BFBD
:1025C000005C004000380240000802400000024069
:1025D00080B590B000AF786007F12C0300221A603C
:1025E0005A609A60DA601A617B681B68684A934295
:1025F00035D10023BB62674B5B6C664A43F0010335
:102600005364644B5B6C03F00103BB62BB6A002341
:102610007B62604B1B6B5F4A43F0100313635D4B9F
:102620001B6B03F010037B627B6A4FF42063FB6239
:1026300002233B6300237B630023BB630123FB6313
:1026400007F12C031946544801F032F80022022108
:10265000182000F07AFC182000F093FC94E07B68CE
:102660001B68B3F1804F2CD100233B62494B1B6C9C
:10267000484A43F001031364464B1B6C03F001030B
:102680003B623B6A0023FB61424B1B6B414A43F0B8
:10269000010313633F4B1B6B03F00103FB61FB69F9
:1026A0002223FB6202233B6300237B630023BB6383
:1026B0000123FB6307F12C031946384800F0F8FFAB
:1026C00062E07B681B68364A93422CD10023BB61D1
:1026D000304B1B6C2F4A43F0020313642D4B1B6CD1
:1026E00003F00203BB61BB6900237B61294B1B6BB9
:1026F000284A43F002031363264B1B6B03F00203CB
:102700007B617B693023FB6202233B6300237B6395
:102710000023BB630223FB6307F12C031946214806
:1027200000F0C6FF30E07B681B681F4A93422BD144
:1027300000233B61174B1B6C164A43F004031364E0
:10274000144B1B6C03F004033B613B690023FB60EB
:10275000104B1B6B0F4A43F0020313630D4B1B6BB3
:1027600003F00203FB60FB68C023FB6202233B63B0
:1027700000237B630023BB630223FB6307F12C036D
:102780001946084800F094FF00BF4037BD4680BDA1
:1027900000000140003802400010024000000240EA
:1027A00000040040000402400008004080B58EB0E4
:1027B00000AF786007F1240300221A605A609A6023
:1027C000DA601A617B681B68754A934279D10023ED
:1027D0003B62744B5B6C734A43F010035364714B60
:1027E0005B6C03F010033B623B6A0023FB616D4BA3
:1027F0001B6B6C4A43F0010313636A4B1B6B03F0C2
:102800000103FB61FB690023BB61664B1B6B654ADF
:1028100043F002031363634B1B6B03F00203BB61C2
:10282000BB694FF400437B620223BB620023FB625F
:1028300003233B6307237B6307F1240319465A48AC
:1028400000F036FF08237B620223BB620023FB6299
:1028500003233B6307237B6307F124031946534893
:1028600000F026FF524B534A1A60514B4FF0006262
:102870005A604F4B00229A604D4B0022DA604C4B5D
:102880004FF480621A614A4B00225A61484B002281
:102890009A61474B0022DA61454B00221A62444B91
:1028A00000225A62424800F087FB0346002B01D009
:1028B000FFF7F6FD7B683E4ADA633D4A7B68936327
:1028C0006AE07B681B683C4A934234D100237B61F9
:1028D000344B1B6C334A43F400331364314B1B6C91
:1028E00003F400337B617B6900233B612D4B1B6B41
:1028F0002C4A43F0080313632A4B1B6B03F00803B5
:102900003B613B6960237B620223BB620023FB6265
:1029100003233B6307237B6307F1240319462748FE
:1029200000F0C6FE00220021262000F00EFB26202B
:1029300000F027FB30E07B681B68214A93422BD1D3
:102940000023FB60174B5B6C164A43F02003536473
:10295000144B5B6C03F02003FB60FB680023BB603F
:10296000104B1B6B0F4A43F0040313630D4B1B6B9F
:1029700003F00403BB60BB68C0237B620223BB621D
:102980000023FB6203233B6308237B6307F12403DB
:1029900019460C4800F08CFE00BF3837BD4680BD9C
:1029A00000100140003802400000024000040240D4
:1029B0006C0500204064024000440040000C0240CE
:1029C000001401400008024080B400AF00BFFDE7E2
:1029D00080B400AF00BFFDE780B400AF00BFFDE7EB
:1029E00080B400AF00BFFDE780B400AF00BFFDE7DB
:1029F00080B400AF00BFBD465DF8047B704780B473
:102A000000AF00BFBD465DF8047B704780B400AFE7
:102A100000BFBD465DF8047B704780B500AF00F095
:102A200075F900BF80BD000080B500AF024802F01C
:102A30007DFD00BF80BD00BF7403002080B500AFE6
:102A4000024803F061F900BF80BD00BFDC04002034
:102A500080B500AF024800F0EFFB00BF80BD00BFB3
:102A60006C05002080B400AF01231846BD465DF818
:102A7000047B704780B582B000AF7860396009F0A0
:102A8000EFFF034616221A604FF0FF33184608374F
:102A9000BD4680BD80B582B000AF78604FF0FF3199
:102AA0007868FFF7E7FF00BFFDE780B586B000AFAD
:102AB000F860B9607A6000237B610AE0AFF30080C0
:102AC0000146BB685A1CBA60CAB21A707B690133EE
:102AD0007B617A697B689A42F0DB7B68184618371D
:102AE000BD4680BD80B586B000AFF860B9607A6041
:102AF00000237B6109E0BB685A1CBA601B7818464A
:102B0000AFF300807B6901337B617A697B689A420D
:102B1000F1DB7B6818461837BD4680BD80B483B0B2
:102B200000AF78604FF0FF3318460C37BD465DF8B4
:102B3000047B704780B483B000AF786039603B6835
:102B40004FF400525A60002318460C37BD465DF81A
:102B5000047B704780B483B000AF786001231846CF
:102B60000C37BD465DF8047B704780B485B000AF7C
:102B7000F860B9607A60002318461437BD465DF8E6
:102B8000047B704780B586B000AF7860144A154B5F
:102B9000D31A7B617B693B61134B1B68002B02D10D
:102BA000114B124A1A60104B1A687B6813443A6939
:102BB0009A4207D209F054FF03460C221A604FF0E4
:102BC000FF3309E0084B1B68FB60074B1A687B6802
:102BD0001344054A1360FB6818461837BD4680BD8C
:102BE0000000022000040000CC050020D80B0020CB
:102BF00080B400AF064BD3F88830054A43F4700325
:102C0000C2F8883000BFBD465DF8047B704700BF46
:102C100000ED00E0DFF834D0FFF7EAFF0C480D4983
:102C20000D4A002302E0D458C4500433C4188C4227
:102C3000F9D30A4A0A4C002301E013600432A2428D
:102C4000FBD309F013FFFEF79FFF7047000002203F
:102C500000000020F001002030120108F0010020E7
:102C6000D80B0020FEE7000080B500AF0E4B1B68BC
:102C70000D4A43F4007313600B4B1B680A4A43F47C
:102C800080631360084B1B68074A43F4807313602A
:102C9000032000F04FF90F2000F008F8FFF706FCC2
:102CA0000023184680BD00BF003C024080B582B0C2
:102CB00000AF7860124B1A68124B1B7819464FF41C
:102CC0007A73B3FBF1F3B2FBF3F3184600F067F944
:102CD0000346002B01D001230EE07B680F2B0AD89E
:102CE000002279684FF0FF3000F02FF9064A7B6828
:102CF0001360002300E0012318460837BD4680BD5D
:102D000000000020080000200400002080B400AF74
:102D1000064B1B781A46064B1B681344044A136083
:102D200000BFBD465DF8047B704700BF080000206F
:102D3000D005002080B400AF034B1B681846BD4689
:102D40005DF8047B704700BFD005002080B584B0DB
:102D500000AF7860FFF7EEFFB8607B68FB60FB6850
:102D6000B3F1FF3F05D00A4B1B781A46FB681344AA
:102D7000FB6000BFFFF7DEFF0246BB68D31AFA68AC
:102D80009A42F7D800BF00BF1037BD4680BD00BFD4
:102D90000800002080B485B000AF78607B6803F045
:102DA0000703FB600C4BDB68BB60BA684FF6FF03A0
:102DB0001340BB60FB681A02BB68134343F0BF6358
:102DC00043F40033BB60044ABB68D36000BF1437D0
:102DD000BD465DF8047B704700ED00E080B400AFB5
:102DE000044BDB681B0A03F007031846BD465DF879
:102DF000047B704700ED00E080B483B000AF034671
:102E0000FB7197F90730002B0BDBFB7903F01F02F6
:102E1000074997F907305B09012000FA02F241F8EF
:102E2000232000BF0C37BD465DF8047B704700BF10
:102E300000E100E080B483B000AF03463960FB716D
:102E400097F90730002B0ADB3B68DAB20C4997F997
:102E500007301201D2B20B4483F800230AE03B682A
:102E6000DAB20849FB7903F00F03043B1201D2B236
:102E70000B441A7600BF0C37BD465DF8047B7047E3
:102E800000E100E000ED00E080B489B000AFF86040
:102E9000B9607A60FB6803F00703FB61FB69C3F16B
:102EA0000703042B28BF0423BB61FB690433062BF3
:102EB00002D9FB69033B00E000237B614FF0FF3246
:102EC000BB6902FA03F3DA43BB681A407B699A4094
:102ED0004FF0FF317B6901FA03F3D9437B680B4064
:102EE000134318462437BD465DF8047B7047000045
:102EF00080B582B000AF78607B68013BB3F1807F22
:102F000001D301230FE00A4A7B68013B53600F2184
:102F10004FF0FF30FFF78EFF054B00229A60044B05
:102F200007221A60002318460837BD4680BD00BF3F
:102F300010E000E080B582B000AF78607868FFF7FD
:102F400029FF00BF0837BD4680BD80B586B000AF01
:102F50000346B9607A60FB7300237B61FFF73EFF95
:102F600078617A68B9687869FFF78EFF024697F949
:102F70000F3011461846FFF75DFF00BF1837BD46FA
:102F800080BD80B582B000AF0346FB7197F9073072
:102F90001846FFF731FF00BF0837BD4680BD80B53A
:102FA00082B000AF78607868FFF7A2FF034618464A
:102FB0000837BD4680BD000080B586B000AF7860A0
:102FC00000237B61FFF7B6FE38617B68002B01D1DF
:102FD000012399E07B68022283F835207B68002278
:102FE00083F834207B681B681A687B681B6822F0B2
:102FF00001021A600FE0FFF79DFE02463B69D31AFB
:10300000052B08D97B6820225A657B68032283F848
:103010003520032378E07B681B681B6803F00103FD
:10302000002BE8D17B681B681B687B617A69384B91
:1030300013407B617B685A687B689B681A437B6896
:10304000DB681A437B681B691A437B685B691A4318
:103050007B689B691A437B68DB691A437B681B6A40
:1030600013437A6913437B617B685B6A042B07D146
:103070007B68DA6A7B681B6B13437A6913437B6155
:103080007B681B687A691A607B681B685B697B6177
:103090007B6923F007037B617B685B6A7A69134372
:1030A0007B617B685B6A042B17D17B689B6A7A69BA
:1030B00013437B617B68DB6A002B0ED0786800F0DD
:1030C0007BFA0346002B08D07B6840225A657B6858
:1030D000012283F83520012316E07B681B687A699A
:1030E0005A61786800F032FA0346FB607B68DB6D5A
:1030F0003F229A40FB689A607B6800225A657B6891
:10310000012283F83520002318461837BD4680BDBC
:103110003F8010F080B584B000AF78607B689B6D15
:10312000FB60FFF707FEB8607B6893F83530DBB2D1
:10313000022B08D07B6880225A657B68002283F8C6
:103140003420012352E07B681B681A687B681B6887
:1031500022F016021A607B681B685A697B681B683C
:1031600022F080025A617B681B6C002B03D17B68C4
:103170009B6C002B07D07B681B681A687B681B68F8
:1031800022F008021A607B681B681A687B681B685B
:1031900022F001021A6013E0FFF7CCFD0246BB6883
:1031A000D31A052B0CD97B6820225A657B68032231
:1031B00083F835207B68002283F83420032315E050
:1031C0007B681B681B6803F00103002BE4D17B685C
:1031D000DB6D3F229A40FB689A607B68012283F88E
:1031E00035207B68002283F83420002318461037EE
:1031F000BD4680BD80B483B000AF78607B6893F833
:103200003530DBB2022B04D07B6880225A65012363
:103210000CE07B68052283F835207B681B681A6800
:103220007B681B6822F001021A60002318460C37E5
:10323000BD465DF8047B704780B586B000AF78600E
:103240000023BB608E4B1B688E4AA2FB03239B0AA4
:103250007B617B689B6D3B613B691B68FB607B68A6
:10326000DB6D08229A40FB681340002B1AD07B6864
:103270001B681B6803F00403002B13D07B681B68DA
:103280001A687B681B6822F004021A607B68DB6D99
:1032900008229A403B699A607B685B6D43F00102AB
:1032A0007B685A657B68DB6D01229A40FB6813409E
:1032B000002B12D07B681B685B6903F08003002B36
:1032C0000BD07B68DB6D01229A403B699A607B687A
:1032D0005B6D43F002027B685A657B68DB6D0422FC
:1032E0009A40FB681340002B12D07B681B681B6858
:1032F00003F00203002B0BD07B68DB6D04229A40A5
:103300003B699A607B685B6D43F004027B685A6599
:103310007B68DB6D10229A40FB681340002B43D082
:103320007B681B681B6803F00803002B3CD07B689C
:10333000DB6D10229A403B699A607B681B681B68B2
:1033400003F48023002B18D07B681B681B6803F4F0
:103350000023002B08D17B681B6C002B24D07B68DA
:103360001B6C786898471FE07B689B6C002B1BD018
:103370007B689B6C7868984716E07B681B681B68C5
:1033800003F48073002B07D17B681B681A687B6885
:103390001B6822F008021A607B681B6C002B03D0AC
:1033A0007B681B6C786898477B68DB6D20229A40AD
:1033B000FB681340002B00F08F807B681B681B6844
:1033C00003F01003002B00F087807B68DB6D202268
:1033D0009A403B699A607B6893F83530DBB2052BE5
:1033E00036D17B681B681A687B681B6822F016025E
:1033F0001A607B681B685A697B681B6822F0800230
:103400005A617B681B6C002B03D17B689B6C002B83
:1034100007D07B681B681A687B681B6822F008026B
:103420001A607B68DB6D3F229A403B699A607B683B
:10343000012283F835207B68002283F834207B68E2
:103440001B6D002B7ED07B681B6D7868984779E0F8
:103450007B681B681B6803F48023002B1DD07B68EE
:103460001B681B6803F40023002B0DD17B685B6C89
:10347000002B31D07B685B6C786898472CE000BFEC
:1034800000000020B5814E1B7B68DB6B002B23D036
:103490007B68DB6B786898471EE07B681B681B685D
:1034A00003F48073002B0FD17B681B681A687B685C
:1034B0001B6822F010021A607B68012283F8352015
:1034C0007B68002283F834207B68DB6B002B03D001
:1034D0007B68DB6B786898477B685B6D002B32D02C
:1034E0007B685B6D03F00103002B22D07B68052213
:1034F00083F835207B681B681A687B681B6822F09C
:1035000001021A60BB680133BB607A699A4207D333
:103510007B681B681B6803F00103002BF2D100E0FD
:1035200000BF7B68012283F835207B68002283F886
:1035300034207B68DB6C002B05D07B68DB6C786803
:10354000984700E000BF1837BD4680BD80B485B005
:1035500000AF78607B681B68DBB2103B144AA2FBAB
:1035600003231B09FB60134AFB6813441B781A46AC
:103570007B68DA65FB68032B09D97B681B6823F439
:103580007F7323F003031A1D7B689A6507E07B684D
:103590001B6823F47F7323F003037A6893657B68C9
:1035A0009B6D18461437BD465DF8047B704700BF1D
:1035B000ABAAAAAABC09010880B485B000AF7860A4
:1035C0000023FB737B689B6ABB607B689B69002B55
:1035D0001FD1BB68032B56D801A252F823F000BFBD
:1035E000F135000803360008F13500088736000879
:1035F0007B68DB6A03F08073002B46D00123FB73EA
:1036000043E07B68DB6AB3F1C07F40D10123FB73E9
:103610003DE07B689B69B3F5005F21D1BB68032B5C
:1036200037D801A252F823F0393600083F36000897
:1036300039360008513600080123FB7330E07B68FF
:10364000DB6A03F08073002B25D00123FB7322E09B
:103650007B68DB6AB3F1C07F1FD10123FB731CE0E1
:10366000BB68022B03D9BB68032B03D018E00123EE
:10367000FB7315E07B68DB6A03F08073002B0ED0D0
:103680000123FB730BE000BF0AE000BF08E000BFAE
:1036900006E000BF04E000BF02E000BF00E000BFA2
:1036A000FB7B18461437BD465DF8047B704700BFAE
:1036B00080B489B000AF7860396000237B6100235B
:1036C0003B610023BB610023FB6159E10122FB69DF
:1036D00002FA03F37B613B681B687A6913403B6124
:1036E0003A697B699A4240F048813B685B6803F025
:1036F0000303012B05D03B685B6803F00303022B37
:1037000030D17B689B68BB61FB695B00032202FAD6
:1037100003F3DB43BA691340BB613B68DA68FB69BA
:103720005B0002FA03F3BA691343BB617B68BA69B1
:103730009A607B685B68BB610122FB6902FA03F354
:10374000DB43BA691340BB613B685B681B0903F04C
:103750000102FB6902FA03F3BA691343BB617B6898
:10376000BA695A603B685B6803F00303032B17D008
:103770007B68DB68BB61FB695B00032202FA03F331
:10378000DB43BA691340BB613B689A68FB695B0025
:1037900002FA03F3BA691343BB617B68BA69DA6062
:1037A0003B685B6803F00303022B23D1FB69DA0853
:1037B0007B68083253F82230BB61FB6903F00703D2
:1037C0009B000F2202FA03F3DB43BA691340BB618B
:1037D0003B681A69FB6903F007039B0002FA03F3D5
:1037E000BA691343BB61FB69DA087B680832B969BF
:1037F00043F822107B681B68BB61FB695B000322F6
:1038000002FA03F3DB43BA691340BB613B685B68B0
:1038100003F00302FB695B0002FA03F3BA69134386
:10382000BB617B68BA691A603B685B6803F440332C
:10383000002B00F0A2800023FB60574B5B6C564AC4
:1038400043F480435364544B5B6C03F48043FB604C
:10385000FB68524AFB699B08023352F82330BB6174
:10386000FB6903F003039B000F2202FA03F3DB431F
:10387000BA691340BB617B68494A934219D07B689F
:10388000484A934213D07B68474A93420DD07B68E5
:10389000464A934207D07B68454A934201D10423AC
:1038A00008E0072306E0032304E0022302E00123EB
:1038B00000E00023FA6902F0030292009340BA6923
:1038C0001343BB613549FB699B080233BA6941F870
:1038D0002320384B9B68BB613B69DB43BA691340CB
:1038E000BB613B685B6803F48013002B03D0BA69AB
:1038F0003B691343BB612F4ABB6993602D4BDB6867
:10390000BB613B69DB43BA691340BB613B685B68E1
:1039100003F40013002B03D0BA693B691343BB6166
:10392000244ABB69D360234B5B68BB613B69DB43C3
:10393000BA691340BB613B685B6803F40033002B3A
:1039400003D0BA693B691343BB611A4ABB69536030
:10395000184B1B68BB613B69DB43BA691340BB6111
:103960003B685B6803F48033002B03D0BA693B6982
:103970001343BB610F4ABB691360FB690133FB61F1
:10398000FB690F2B7FF6A2AE00BF00BF2437BD46F8
:103990005DF8047B704700BF0038024000380140EA
:1039A000000002400004024000080240000C0240F7
:1039B00000100240003C014080B483B000AF78604A
:1039C0000B467B8013467B707B78002B03D07A8874
:1039D0007B689A6103E07B881A047B689A6100BF68
:1039E0000C37BD465DF8047B7047000080B584B09D
:1039F00000AF78607B68002B01D101232BE17B684D
:103A000093F83D30DBB2002B06D17B68002283F8AF
:103A10003C207868FEF772FD7B68242283F83D2005
:103A20007B681B681A687B681B6822F001021A60B9
:103A30007B681B681A687B681B6842F400421A6046
:103A40007B681B681A687B681B6822F400421A6056
:103A500001F010FCF8607B685B68814A934207D8EC
:103A6000FB68804A934294BF01230023DBB206E047
:103A7000FB687D4A934294BF01230023DBB2002BF5
:103A800001D00123E7E0FB68784AA2FB03239B0CEB
:103A9000BB607B681B685B6823F03F017B681B6829
:103AA000BA680A435A607B681B681B6A23F03F01AF
:103AB0007B685B686A4A934202D8BB68013309E0BD
:103AC000BB684FF4967202FB03F3694AA2FB03231F
:103AD0009B0901337A6812680B4313627B681B6889
:103AE000DB6923F44F4222F0FF027B685B685C498C
:103AF0008B4219D8FB68591E7B685B685B00B1FB81
:103B0000F3F3591C40F6FC730B40002B0AD0FB6802
:103B1000591E7B685B685B00B1FBF3F30133C3F3B1
:103B20000B0351E004234FE07B689B68002B11D10D
:103B3000FB68581E7B6859680B465B000B44B0FB62
:103B4000F3F30133C3F30B03002B0CBF012300235A
:103B5000DBB212E0FB68581E7B6859680B469B007D
:103B60000B4499000B44B0FBF3F30133C3F30B0395
:103B7000002B0CBF01230023DBB2002B01D001235B
:103B800022E07B689B68002B0ED1FB68581E7B6887
:103B900059680B465B000B44B0FBF3F30133C3F3EE
:103BA0000B0343F400430FE0FB68581E7B68596821
:103BB0000B469B000B4499000B44B0FBF3F301331D
:103BC000C3F30B0343F44043796809681343CB61A3
:103BD0007B681B681B6823F0C0017B68DA697B681F
:103BE0001B6A1A437B681B680A431A607B681B6860
:103BF0009B6823F4034323F0FF037A6811697A6812
:103C0000D26811437A6812680B4393607B681B6823
:103C1000DB6823F0FF017B685A697B689B691A4364
:103C20007B681B680A43DA607B681B681A687B68DC
:103C30001B6842F001021A607B6800221A647B68EC
:103C4000202283F83D207B6800221A637B680022D3
:103C500083F83E20002318461037BD4680BD00BFC4
:103C6000A08601007F841E00FF083D0083DE1B4309
:103C7000D34D621080B588B002AFF8607A601A4602
:103C80000B467B8113463B81FFF754F87861FB6854
:103C900093F83D30DBB2202B40F0E0807B6900934D
:103CA000192301227049F86800F07EFC0346002BBE
:103CB00001D00223D3E0FB6893F83C30012B01D103
:103CC0000223CCE0FB68012283F83C20FB681B68E0
:103CD0001B6803F00103012B07D0FB681B681A68FF
:103CE000FB681B6842F001021A60FB681B681A68D7
:103CF000FB681B6822F400621A60FB68212283F8CB
:103D00003D20FB68102283F83E20FB6800221A64E5
:103D1000FB687A685A62FB683A895A85FB685B8D52
:103D20009AB2FB681A85FB68504ADA6279897B6926
:103D30003A6AF86800F0E8FA0346002B01D0012344
:103D40008DE000233B61FB681B685B693B61FB689E
:103D50001B689B693B613B6966E07A69396AF86870
:103D600000F03CFD0346002B0DD0FB681B6C042BC0
:103D700007D1FB681B681A68FB681B6842F4007275
:103D80001A6001236BE0FB685B6A1A78FB681B68AA
:103D90001A61FB685B6A5A1CFB685A62FB685B8DA0
:103DA0009BB2013B9AB2FB685A85FB681B8D013BB5
:103DB0009AB2FB681A85FB681B685B6903F0040311
:103DC000042B1BD1FB681B8D002B17D0FB685B6A93
:103DD0001A78FB681B681A61FB685B6A5A1CFB68EF
:103DE0005A62FB685B8D9BB2013B9AB2FB685A85B5
:103DF000FB681B8D013B9AB2FB681A857A69396AA8
:103E0000F86800F033FD0346002B0DD0FB681B6CF7
:103E1000042B07D1FB681B681A68FB681B6842F417
:103E200000721A6001231AE0FB681B8D002B94D1ED
:103E3000FB681B681A68FB681B6842F400721A6012
:103E4000FB68202283F83D20FB68002283F83E2097
:103E5000FB68002283F83C20002300E00223184680
:103E60001837BD4680BD00BF020010000000FFFFF4
:103E700080B58CB002AFF8607A601A460B467B8141
:103E800013463B81FEF756FF7862FB6893F83D309E
:103E9000DBB2202B40F017827B6A009319230122AA
:103EA0007C49F86800F080FB0346002B01D0022318
:103EB0000AE2FB6893F83C30012B01D1022303E2B4
:103EC000FB68012283F83C20FB681B681B6803F039
:103ED0000103012B07D0FB681B681A68FB681B688D
:103EE00042F001021A60FB681B681A68FB681B68D5
:103EF00022F400621A60FB68222283F83D20FB68EE
:103F0000102283F83E20FB6800221A64FB687A685E
:103F10005A62FB683A895A85FB685B8D9AB2FB68E6
:103F20001A85FB685C4ADA6279897B6A3A6BF868C1
:103F300000F06CFA0346002B01D00123C4E1FB68BA
:103F40001B8D002B13D100233B62FB681B685B6950
:103F50003B62FB681B689B693B623B6AFB681B68B2
:103F60001A68FB681B6842F400721A6098E1FB68EB
:103F70001B8D012B1BD1FB681B681A68FB681B6833
:103F800022F480621A600023FB61FB681B685B6996
:103F9000FB61FB681B689B69FB61FB69FB681B6835
:103FA0001A68FB681B6842F400721A6078E1FB68CB
:103FB0001B8D022B1BD1FB681B681A68FB681B68F2
:103FC00022F480621A60FB681B681A68FB681B6831
:103FD00042F400621A600023BB61FB681B685B69E6
:103FE000BB61FB681B689B69BB61BB6958E1FB68EF
:103FF0001B681A68FB681B6842F480621A60002321
:104000007B61FB681B685B697B61FB681B689B6964
:104010007B617B6944E1FB681B8D032B00F2F1801F
:10402000FB681B8D012B23D17A6A396BF86800F08D
:1040300065FC0346002B01D0012345E1FB681B68AA
:104040001A69FB685B6AD2B21A70FB685B6A5A1C19
:10405000FB685A62FB681B8D013B9AB2FB681A85AC
:10406000FB685B8D9BB2013B9AB2FB685A8517E1F6
:10407000FB681B8D022B4ED17B6A00933B6B0022A9
:104080000649F86800F090FA0346002B08D0012397
:104090001AE100BF020010000000FFFF0400010051
:1040A000FB681B681A68FB681B6842F400721A60A0
:1040B000FB681B681A69FB685B6AD2B21A70FB68FE
:1040C0005B6A5A1CFB685A62FB681B8D013B9AB203
:1040D000FB681A85FB685B8D9BB2013B9AB2FB685B
:1040E0005A85FB681B681A69FB685B6AD2B21A7052
:1040F000FB685B6A5A1CFB685A62FB681B8D013BBC
:104100009AB2FB681A85FB685B8D9BB2013B9AB241
:10411000FB685A85C4E07B6A00933B6B00226C49C4
:10412000F86800F041FA0346002B01D00123CBE0F0
:10413000FB681B681A68FB681B6822F480621A60BF
:10414000FB681B681A69FB685B6AD2B21A70FB686D
:104150005B6A5A1CFB685A62FB681B8D013B9AB272
:10416000FB681A85FB685B8D9BB2013B9AB2FB68CA
:104170005A857B6A00933B6B00225549F86800F032
:1041800013FA0346002B01D001239DE0FB681B6856
:104190001A68FB681B6842F400721A60FB681B68AF
:1041A0001A69FB685B6AD2B21A70FB685B6A5A1CB8
:1041B000FB685A62FB681B8D013B9AB2FB681A854B
:1041C000FB685B8D9BB2013B9AB2FB685A85FB682A
:1041D0001B681A69FB685B6AD2B21A70FB685B6A7B
:1041E0005A1CFB685A62FB681B8D013B9AB2FB6844
:1041F0001A85FB685B8D9BB2013B9AB2FB685A85BE
:104200004EE07A6A396BF86800F078FB0346002BC1
:1042100001D0012358E0FB681B681A69FB685B6AE0
:10422000D2B21A70FB685B6A5A1CFB685A62FB6860
:104230001B8D013B9AB2FB681A85FB685B8D9BB2B4
:10424000013B9AB2FB685A85FB681B685B6903F007
:104250000403042B24D1FB681B8D032B07D1FB68BF
:104260001B681A68FB681B6822F480621A60FB688E
:104270001B681A69FB685B6AD2B21A70FB685B6ADA
:104280005A1CFB685A62FB681B8D013B9AB2FB68A3
:104290001A85FB685B8D9BB2013B9AB2FB685A851D
:1042A000FB681B8D002B7FF4B6AEFB68202283F8E1
:1042B0003D20FB68002283F83E20FB68002283F843
:1042C0003C20002300E0022318462837BD4680BD6D
:1042D0000400010080B483B000AF78607B6893F87D
:1042E0003D30DBB218460C37BD465DF8047B7047A5
:1042F00080B483B000AF78607B681B6C18460C37C5
:10430000BD465DF8047B704780B588B002AFF860A9
:104310007A603B600B467B81FB68DB6A7B617B6973
:10432000082B06D07B69012B03D07B6913F5803FF6
:1043300008D1FB681B681A68FB681B6842F480722E
:104340001A600BE0FB681B6B122B07D1FB681B6824
:104350001A68FB681B6842F480721A603B6800931D
:104360007B6800224FF00111F86800F01DF9034648
:10437000002B0DD0FB681B681B6803F48073B3F53A
:10438000807F03D1FB684FF400721A64032335E089
:10439000FB681B69B3F5804F08D17B89DBB21A46F5
:1043A000FB681B6802F0FE021A611BE07B89DB11CF
:1043B000DBB203F00603DBB263F00F03DAB2FB6893
:1043C0001B681A613B687A680E49F86800F066F964
:1043D0000346002B01D0012310E07B89DAB2FB6891
:1043E0001B681A613B687A680749F86800F056F95B
:1043F0000346002B01D0012300E0002318461837A4
:10440000BD4680BD080001000200010080B588B0F3
:1044100002AFF8607A603B600B467B81FB68DB6A29
:104420007B61FB681B681A68FB681B6842F480624A
:104430001A607B69082B06D07B69012B03D07B694E
:1044400013F5803F08D1FB681B681A68FB681B687E
:1044500042F480721A600BE0FB681B6B112B07D1D2
:10446000FB681B681A68FB681B6842F480721A605C
:104470003B6800937B6800224FF00111F86800F060
:1044800093F80346002B0DD0FB681B681B6803F4F0
:104490008073B3F5807F03D1FB684FF400721A6418
:1044A000032379E0FB681B69B3F5804F08D17B8952
:1044B000DBB243F00103DAB2FB681B681A615FE00C
:1044C0007B89DB11DBB203F00603DBB263F00F0381
:1044D000DAB2FB681B681A613B687A683049F86891
:1044E00000F0DCF80346002B01D0012354E07B8967
:1044F000DAB2FB681B681A613B687A682949F86878
:1045000000F0CCF80346002B01D0012344E0002347
:104510003B61FB681B685B693B61FB681B689B69CF
:104520003B613B69FB681B681A68FB681B6842F4C7
:1045300080721A603B6800937B6800224FF0011183
:10454000F86800F031F80346002B0DD0FB681B68BB
:104550001B6803F48073B3F5807F03D1FB684FF4CD
:1045600000721A64032317E07B89DB11DBB203F0CE
:104570000603DBB263F00E03DAB2FB681B681A6154
:104580003B687A680749F86800F088F80346002B12
:1045900001D0012300E0002318461837BD4680BD36
:1045A000080001000200010080B584B000AFF8608F
:1045B000B9603B601346FB7148E03B68B3F1FF3FD5
:1045C00044D0FEF7B7FB0246BB69D31A3A689A4259
:1045D00002D33B68002B39D1BB681B0CDBB2012B2B
:1045E0000DD1FB681B685B69DA43BB6813409BB263
:1045F000002B0CBF01230023DBB21A460CE0FB6842
:104600001B689B69DA43BB6813409BB2002B0CBF4D
:1046100001230023DBB21A46FB799A4216D1FB68CC
:1046200000221A63FB68202283F83D20FB680022E9
:1046300083F83E20FB681B6C43F02002FB681A6481
:10464000FB68002283F83C20012323E0BB681B0C9D
:10465000DBB2012B0DD1FB681B685B69DA43BB68D9
:1046600013409BB2002B0CBF01230023DBB21A4680
:104670000CE0FB681B689B69DA43BB6813409BB284
:10468000002B0CBF01230023DBB21A46FB799A42B0
:1046900093D0002318461037BD4680BD80B584B046
:1046A00000AFF860B9607A603B6071E0FB681B683E
:1046B0005B6903F48063B3F5806F23D1FB681B68EB
:1046C0001A68FB681B6842F400721A60FB681B687A
:1046D0006FF480625A61FB6800221A63FB68202233
:1046E00083F83D20FB68002283F83E20FB681B6CAA
:1046F00043F00402FB681A64FB68002283F83C2044
:10470000012367E07B68B3F1FF3F41D0FEF712FB66
:1047100002463B68D31A7A689A4202D37B68002B20
:1047200036D1BB681B0CDBB2012B0CD1FB681B68BC
:104730005B69DA43BB6813409BB2002B14BF0123B3
:104740000023DBB20BE0FB681B689B69DA43BB68A4
:1047500013409BB2002B14BF01230023DBB2002BBC
:1047600016D0FB6800221A63FB68202283F83D20E4
:10477000FB68002283F83E20FB681B6C43F020029C
:10478000FB681A64FB68002283F83C20012321E0C7
:10479000BB681B0CDBB2012B0CD1FB681B685B698F
:1047A000DA43BB6813409BB2002B14BF01230023E4
:1047B000DBB20BE0FB681B689B69DA43BB68134004
:1047C0009BB2002B14BF01230023DBB2002B7FF42C
:1047D0006DAF002318461037BD4680BD80B584B04C
:1047E00000AFF860B9607A6034E0F86800F0E3F890
:1047F0000346002B01D0012334E0BB68B3F1FF3F37
:1048000028D0FEF797FA02467B68D31ABA689A4214
:1048100002D3BB68002B1DD1FB681B685B6903F0EA
:104820008003802B16D0FB6800221A63FB682022CD
:1048300083F83D20FB68002283F83E20FB681B6C58
:1048400043F02002FB681A64FB68002283F83C20D6
:10485000012307E0FB681B685B6903F08003802B82
:10486000C3D1002318461037BD4680BD80B584B043
:1048700000AFF860B9607A6034E0F86800F09BF847
:104880000346002B01D0012334E0BB68B3F1FF3FA6
:1048900028D0FEF74FFA02467B68D31ABA689A42CC
:1048A00002D3BB68002B1DD1FB681B685B6903F05A
:1048B0000403042B16D0FB6800221A63FB68202235
:1048C00083F83D20FB68002283F83E20FB681B6CC8
:1048D00043F02002FB681A64FB68002283F83C2046
:1048E000012307E0FB681B685B6903F00403042BEA
:1048F000C3D1002318461037BD4680BD80B584B0B3
:1049000000AFF860B9607A6049E0FB681B685B69DA
:1049100003F01003102B19D1FB681B686FF0100215
:104920005A61FB6800221A63FB68202283F83D204D
:10493000FB68002283F83E20FB681A6CFB681A644F
:10494000FB68002283F83C20012330E0FEF7F2F9F7
:1049500002467B68D31ABA689A4202D3BB68002B1E
:104960001DD1FB681B685B6903F04003402B16D028
:10497000FB6800221A63FB68202283F83D20FB6855
:10498000002283F83E20FB681B6C43F02002FB688A
:104990001A64FB68002283F83C20012307E0FB68CF
:1049A0001B685B6903F04003402BAED1002318461F
:1049B0001037BD4680BD80B483B000AF78607B689F
:1049C0001B685B6903F48063B3F5806F1BD17B6860
:1049D0001B686FF480625A617B6800221A637B68EF
:1049E000202283F83D207B68002283F83E207B68EC
:1049F0001B6C43F004027B681A647B68002283F816
:104A00003C20012300E0002318460C37BD465DF82A
:104A1000047B704780B586B000AF78607B68002B60
:104A200001D1012367E27B681B6803F00103002BBF
:104A300075D0884B9B6803F00C03042B0CD0854B7E
:104A40009B6803F00C03082B12D1824B5B6803F4C4
:104A50008003B3F5800F0BD17E4B1B6803F400334A
:104A6000002B5BD07B685B68002B57D1012342E2AF
:104A70007B685B68B3F5803F06D1764B1B68754A4F
:104A800043F4803313601DE07B685B68B3F5A02FAF
:104A90000CD1704B1B686F4A43F4802313606D4B3D
:104AA0001B686C4A43F4803313600BE0694B1B684E
:104AB000684A23F480331360664B1B68654A23F40D
:104AC000802313607B685B68002B13D0FEF732F9FC
:104AD000386108E0FEF72EF902463B69D31A642BD1
:104AE00001D9032307E25B4B1B6803F40033002B5F
:104AF000F0D014E0FEF71EF9386108E0FEF71AF96D
:104B000002463B69D31A642B01D90323F3E1514BCD
:104B10001B6803F40033002BF0D100E000BF7B687A
:104B20001B6803F00203002B63D04A4B9B6803F021
:104B30000C03002B0BD0474B9B6803F00C03082B96
:104B40001CD1444B5B6803F48003002B16D1414B0E
:104B50001B6803F00203002B05D07B68DB68012B88
:104B600001D00123C7E13B4B1B6823F0F8027B68AF
:104B70001B69DB00374913430B603AE07B68DB6855
:104B8000002B20D0344B01221A60FEF7D3F8386195
:104B900008E0FEF7CFF802463B69D31A022B01D991
:104BA0000323A8E12B4B1B6803F00203002BF0D07A
:104BB000284B1B6823F0F8027B681B69DB00254942
:104BC00013430B6015E0244B00221A60FEF7B2F885
:104BD000386108E0FEF7AEF802463B69D31A022BB3
:104BE00001D9032387E11B4B1B6803F00203002B51
:104BF000F0D17B681B6803F00803002B36D07B687C
:104C00005B69002B16D0154B01221A60FEF792F853
:104C1000386108E0FEF78EF802463B69D31A022B92
:104C200001D9032367E10B4B5B6F03F00203002BF9
:104C3000F0D01BE0094B00221A60FEF77BF83861C8
:104C40000EE0FEF777F802463B69D31A022B07D92C
:104C5000032350E10038024000004742800E4742E3
:104C6000884B5B6F03F00203002BEAD17B681B6863
:104C700003F00403002B00F097800023FB75814BA9
:104C80001B6C03F08053002B0FD10023BB607D4BC6
:104C90001B6C7C4A43F0805313647A4B1B6C03F00B
:104CA0008053BB60BB680123FB75774B1B6803F423
:104CB0008073002B18D1744B1B68734A43F48073C4
:104CC0001360FEF737F8386108E0FEF733F8024664
:104CD0003B69D31A022B01D903230CE16A4B1B68F1
:104CE00003F48073002BF0D07B689B68012B06D106
:104CF000644B1B6F634A43F0010313671CE07B683E
:104D00009B68052B0CD15F4B1B6F5E4A43F004037D
:104D100013675C4B1B6F5B4A43F0010313670BE0A7
:104D2000584B1B6F574A23F001031367554B1B6FFA
:104D3000544A23F0040313677B689B68002B15D04B
:104D4000FDF7F8FF38610AE0FDF7F4FF02463B6922
:104D5000D31A41F28832934201D90323CBE0494B65
:104D60001B6F03F00203002BEED014E0FDF7E2FF0F
:104D700038610AE0FDF7DEFF02463B69D31A41F2D3
:104D80008832934201D90323B5E03E4B1B6F03F0F9
:104D90000203002BEED1FB7D012B05D1394B1B6C9F
:104DA000384A23F0805313647B689B69002B00F022
:104DB000A180344B9B6803F00C03082B5CD07B680C
:104DC0009B69022B41D1314B00221A60FDF7B2FFE3
:104DD000386108E0FDF7AEFF02463B69D31A022BAB
:104DE00001D9032387E0274B1B6803F00073002BD6
:104DF000F0D17B68DA697B681B6A1A437B685B6A5F
:104E00009B011A437B689B6A5B08013B1B041A43A6
:104E10007B68DB6A1B061B4913434B601B4B01225B
:104E20001A60FDF787FF386108E0FDF783FF02464F
:104E30003B69D31A022B01D903235CE0114B1B6899
:104E400003F00073002BF0D054E0104B00221A60E6
:104E5000FDF770FF386108E0FDF76CFF02463B6923
:104E6000D31A022B01D9032345E0064B1B6803F03C
:104E70000073002BF0D13DE07B689B69012B07D1CB
:104E8000012338E0003802400070004060004742D3
:104E90001B4B5B68FB607B689B69012B28D0FB6820
:104EA00003F480027B68DB699A4221D1FB6803F03E
:104EB0003F027B681B6A9A421AD1FA6847F6C073B0
:104EC00013407A68526A9201934211D1FB6803F44D
:104ED00040327B689B6A5B08013B1B049A4207D106
:104EE000FB6803F070627B68DB6A1B069A4201D0A4
:104EF000012300E0002318461837BD4680BD00BFDF
:104F00000038024080B584B000AF786039607B68BB
:104F1000002B01D10123CCE0684B1B6803F0070391
:104F20003A689A420CD9654B3A68D2B21A70634B10
:104F30001B6803F007033A689A4201D00123B8E0E6
:104F40007B681B6803F00203002B20D07B681B6882
:104F500003F00403002B05D0594B9B68584A43F4D7
:104F6000E05393607B681B6803F00803002B05D0B7
:104F7000534B9B68524A43F460439360504B9B6889
:104F800023F0F0027B689B684D4913438B607B687C
:104F90001B6803F00103002B44D07B685B68012B86
:104FA00007D1474B1B6803F40033002B19D10123B1
:104FB0007FE07B685B68022B03D07B685B68032B18
:104FC00007D13F4B1B6803F00073002B09D101236D
:104FD0006FE03B4B1B6803F00203002B01D1012360
:104FE00067E0374B9B6823F003027B685B683449BA
:104FF00013438B60FDF79EFEF8600AE0FDF79AFE12
:105000000246FB68D31A41F28832934201D9032346
:105010004FE02B4B9B6803F00C027B685B689B00A6
:105020009A42EBD1254B1B6803F007033A689A427A
:105030000CD2224B3A68D2B21A70204B1B6803F094
:1050400007033A689A4201D0012332E07B681B686B
:1050500003F00403002B08D0194B9B6823F4E052A3
:105060007B68DB68164913438B607B681B6803F021
:105070000803002B09D0124B9B6823F460427B6825
:105080001B69DB000E4913438B6000F021F80246D8
:105090000B4B9B681B0903F00F030A49CB5C22FAF8
:1050A00003F3094A1360094B1B681846FDF7FEFD20
:1050B000002318461037BD4680BD00BF003C0240AB
:1050C00000380240A409010800000020040000206C
:1050D0002DE9B04F90B000AF00237B630023FB634A
:1050E00000233B630023BB63594B9B6803F00C0315
:1050F000082B0DD0082B00F2A180002B02D0042B2E
:1051000003D09BE0534BBB639BE0534BBB6398E0E6
:105110004F4B5B6803F03F037B634D4B5B6803F4CD
:105120008003002B28D04A4B5B689B0900223B621E
:105130007A623B6AC3F308000021474B03FB01F28C
:10514000002300FB03F31344434AA0FB0212FA625C
:105150000A46BA62FA6A1344FB627B6B0022BB61A7
:10516000FA61D7E90623D7E90A01FBF795FD024664
:105170000B461346FB6353E0354B5B689B090022EB
:105180003B617A613B69C3F3080A4FF0000B52465A
:105190005B464FF000004FF00001590141EAD26137
:1051A000500102460B46B2EB0A0863EB0B094FF0C5
:1051B00000024FF000034FEA891343EA98634FEA75
:1051C0008812B2EB080463EB09054FF000024FF0C0
:1051D0000003EB0043EA5473E20014461D4614EB4F
:1051E0000A033B6045EB0B037B604FF000024FF07E
:1051F0000003D7E9004529468B02214643EA915333
:1052000021468A02104619467B6B0022BB60FA6079
:10521000D7E90223FBF740FD02460B461346FB632A
:105220000B4B5B681B0C03F0030301335B003B6318
:10523000FA6B3B6BB2FBF3F3BB6302E0054BBB6362
:1052400000BFBB6B18464037BD46BDE8B08F00BFFE
:10525000003802400024F40040787D0180B400AFA3
:10526000034B1B681846BD465DF8047B704700BFC2
:105270000000002080B500AFFFF7F0FF0246054BAD
:105280009B689B0A03F007030349CB5C22FA03F3F4
:10529000184680BD00380240B409010880B500AF4F
:1052A000FFF7DCFF0246054B9B685B0B03F007032F
:1052B0000349CB5C22FA03F3184680BD0038024054
:1052C000B409010880B586B000AF786039607B68AA
:1052D000002B01D1012397E07B6893F83D30DBB2CE
:1052E000002B06D17B68002283F83C207868FDF70C
:1052F0006FF97B68022283F83D207B681B689B68FE
:105300007A68126823F4804323F0070393607B6874
:105310001A687B6804331946104600F029FA7B6846
:105320001B689B687B617B681B689B693B617B6832
:105330001B681B6AFB603B681B687A6913437B61CF
:105340003B6923F4407323F003033B613B689A6895
:105350003B689B691B0213433A6913433B613B69FA
:1053600023F4406323F00C033B613B6923F4704357
:1053700023F0F0033B613B68DA683B68DB691B02A2
:1053800013433A6913433B613B681B691A013B684D
:105390001B6A1B0313433A6913433B61FB6823F009
:1053A0002203FB60FB6823F08803FB603B685A68BC
:1053B0003B685B691B011343FA681343FB607B681E
:1053C0001B687A699A607B681B683A699A617B6896
:1053D0001B68FA681A627B68012283F846207B68A2
:1053E000012283F83E207B68012283F83F207B68FE
:1053F000012283F842207B68012283F843207B68E6
:10540000012283F83D20002318461837BD4680BD91
:1054100080B584B000AF786039607B6893F83E3027
:10542000FB737B6893F83F30BB737B6893F8423023
:105430007B737B6893F843303B733B68002B10D140
:10544000FB7B012B02D17B7B012B01D0012369E087
:105450007B68022283F83E207B68022283F8422088
:1054600031E03B68042B10D1BB7B012B02D13B7B8D
:10547000012B01D0012355E07B68022283F83F20F5
:105480007B68022283F843201DE0FB7B012B08D1BF
:10549000BB7B012B05D17B7B012B02D13B7B012BFD
:1054A00001D001233EE07B68022283F83E207B6826
:1054B000022283F83F207B68022283F842207B6827
:1054C000022283F843203B68002B03D03B68042B67
:1054D00008D00FE07B681B6801220021184600F00D
:1054E000D3F916E07B681B6801220421184600F0FE
:1054F000CBF90EE07B681B6801220021184600F002
:10550000C3F97B681B6801220421184600F0BCF92E
:1055100000BF7B681B681A687B681B6842F0010249
:105520001A60002318461037BD4680BD80B584B090
:1055300000AF78607B681B68DB68FB607B681B687A
:105540001B69BB60BB6803F00203002B20D0FB6823
:1055500003F00203002B1BD07B681B686FF0020274
:105560001A617B6801221A777B681B689B6903F0CC
:105570000303002B03D0786800F0DCF805E07868BE
:1055800000F0CEF8786800F0DFF87B6800221A7728
:10559000BB6803F00403002B20D0FB6803F0040376
:1055A000002B1BD07B681B686FF004021A617B68BC
:1055B00002221A777B681B689B6903F44073002BF7
:1055C00003D0786800F0B6F805E0786800F0A8F835
:1055D000786800F0B9F87B6800221A77BB6803F09E
:1055E0000803002B20D0FB6803F00803002B1BD01E
:1055F0007B681B686FF008021A617B6804221A77C7
:105600007B681B68DB6903F00303002B03D0786819
:1056100000F090F805E0786800F082F8786800F013
:1056200093F87B6800221A77BB6803F01003002B05
:1056300020D0FB6803F01003002B1BD07B681B6895
:105640006FF010021A617B6808221A777B681B686A
:10565000DB6903F44073002B03D0786800F06AF82C
:1056600005E0786800F05CF8786800F06DF87B6819
:1056700000221A77BB6803F00103002B0CD0FB68F3
:1056800003F00103002B07D07B681B686FF0010259
:105690001A61786800F03AF8BB6803F08003002BC9
:1056A0000CD0FB6803F08003002B07D07B681B68DD
:1056B0006FF080021A61786800F084F9BB6803F02B
:1056C0004003002B0CD0FB6803F04003002B07D0F5
:1056D0007B681B686FF040021A61786800F03EF842
:1056E000BB6803F02003002B0CD0FB6803F0200301
:1056F000002B07D07B681B686FF020021A61786866
:1057000000F056F900BF1037BD4680BD80B483B0AD
:1057100000AF786000BF0C37BD465DF8047B704772
:1057200080B483B000AF786000BF0C37BD465DF831
:10573000047B704780B483B000AF786000BF0C3743
:10574000BD465DF8047B704780B483B000AF7860DD
:1057500000BF0C37BD465DF8047B704780B483B052
:1057600000AF786000BF0C37BD465DF8047B704722
:1057700080B485B000AF786039607B681B68FB60DF
:105780007B683A4A93420FD07B68B3F1804F0BD0CD
:105790007B68374A934207D07B68364A934203D0EE
:1057A0007B68354A934208D1FB6823F07003FB60A5
:1057B0003B685B68FA681343FB607B682B4A934243
:1057C0001BD07B68B3F1804F17D07B68284A934287
:1057D00013D07B68274A93420FD07B68264A9342B6
:1057E0000BD07B68254A934207D07B68244A9342BA
:1057F00003D07B68234A934208D1FB6823F44073AB
:10580000FB603B68DB68FA681343FB60FB6823F0CE
:1058100080023B685B691343FB607B68FA681A602F
:105820003B689A687B68DA623B681A687B689A62B0
:105830007B680E4A934203D13B681A697B681A63FE
:105840007B6801225A617B681B6903F00103012B0D
:1058500005D17B681B6923F001027B681A6100BFD8
:105860001437BD465DF8047B704700BF000001405F
:105870000004004000080040000C004000400140CF
:10588000004401400048014080B487B000AFF86098
:10589000B9607A60BB6803F01F03012202FA03F3C8
:1058A0007B61FB681A6A7B69DB431A40FB681A62FA
:1058B000FB681A6ABB6803F01F03796801FA03F3F7
:1058C0001A43FB681A6200BF1C37BD465DF8047BB3
:1058D0007047000080B485B000AF786039607B68A5
:1058E00093F83C30012B01D1022350E07B68012268
:1058F00083F83C207B68022283F83D207B681B688C
:105900005B68FB607B681B689B68BB60FB6823F07F
:105910007003FB603B681B68FA681343FB607B689D
:105920001B68FA685A607B681B681C4A934218D04F
:105930007B681B68B3F1804F13D07B681B68184AE3
:1059400093420ED07B681B68164A934209D07B684D
:105950001B68154A934204D07B681B68134A934224
:105960000CD1BB6823F08003BB603B685B68BA68FE
:105970001343BB607B681B68BA689A607B6801222E
:1059800083F83D207B68002283F83C2000231846E2
:105990001437BD465DF8047B704700BF000001402E
:1059A0000004004000080040000C0040004001409E
:1059B00080B483B000AF786000BF0C37BD465DF89F
:1059C000047B704780B483B000AF786000BF0C37B1
:1059D000BD465DF8047B704780B582B000AF78604B
:1059E0007B68002B01D1012342E07B6893F84130B2
:1059F000DBB2002B06D17B68002283F84020786858
:105A0000FCF7D4FE7B68242283F841207B681B6866
:105A1000DA687B681B6822F40052DA60786800F06C
:105A20005FFE7B681B681A697B681B6822F49042E2
:105A30001A617B681B685A697B681B6822F02A021E
:105A40005A617B681B68DA687B681B6842F4005205
:105A5000DA607B6800225A647B68202283F8412048
:105A60007B68202283F842207B6800225A6300234F
:105A700018460837BD4680BD80B58AB002AFF860D1
:105A8000B9603B601346FB8000237B61FB6893F8A1
:105A90004130DBB2202B75D1BB68002B02D0FB88D4
:105AA000002B01D101236EE0FB6800225A64FB68E1
:105AB000212283F84120FDF73DF97861FB68FA88DF
:105AC0009A84FB68FA88DA84FB689B68B3F5805F88
:105AD00008D1FB681B69002B04D10023FB61BB6864
