:020000040800F2
:1000000000000220792A0008252800082D28000871
:10001000352800083D280008452800080000000099
:100020000000000000000000000000004D28000853
:100030005B280008000000006928000877280008F5
:10004000C92A0008C92A0008C92A0008C92A0008C4
:10005000C92A0008C92A0008C92A0008C92A0008B4
:10006000C92A0008C92A0008C92A0008C92A0008A4
:10007000C92A0008C92A0008C92A0008C92A000894
:10008000C92A0008C92A0008C92A0008000000007F
:10009000000000000000000000000000C92A000865
:1000A00085280008C92A0008C92A0008C92A0008AA
:1000B000C92A0008C92A0008C92A0008C92A000854
:1000C000C92A0008C92A0008C92A0008C92A000844
:1000D000C92A0008A1280008B5280008000000006F
:1000E000C92A0008C92A0008C92A0008000000001F
:1000F000000000000000000000000000C92A000805
:1001000000000000C92A0008C92A0008C92A0008FE
:1001100000000000000000000000000000000000DF
:10012000C92A0008C92A0008C92A0008C92A0008E3
:10013000C92A0008000000000000000000000000C4
:10014000000000000000000000000000C92A0008B4
:10015000C92A0008C92A0008C92A0008C92A0008B3
:10016000C92A0008C92A0008000000000000000099
:10017000000000000000000000000000000000007F
:1001800000000000C92A0008000000000000000074
:08019000C92A0008C92A000871
:1001A00010B5054C237833B9044B13B10448AFF3B1
:1001B00000800123237010BDF0010020000000002A
:1001C00098B5000808B5034B1BB103490348AFF3CA
:1001D000008008BD00000000F401002098B5000870
:1001E00001F0FF01102A2BDB10F0070F08D010F8E8
:1001F000013B013A8B422DD010F0070F42B3F6D1EC
:10020000F0B441EA012141EA014122F007047FF004
:1002100000070023F0E80256083C85EA010586EA5B
:10022000010685FA47F5A3FA87F586FA47F6A5FA97
:1002300087F68EB9EED1F0BC01F0FF0102F00702A3
:1002400032B110F8013B013A83EA010313B1F8D14E
:100250000020704701387047002D06BF354603382F
:10026000073815F0010F07D1013015F4807F02BF68
:10027000013015F4C03F0130F0BC0138704700BFB9
:10028000034613F8012B002AFBD1181A01387047D6
:1002900081F0004102E000BF83F0004330B54FEA37
:1002A00041044FEA430594EA050F08BF90EA020FA4
:1002B0001FBF54EA000C55EA020C7FEA645C7FEA37
:1002C000655C00F0E2804FEA5454D4EB5555B8BF5A
:1002D0006D420CDD2C4480EA020281EA030382EACB
:1002E000000083EA010180EA020281EA0303362D5D
:1002F00088BF30BD11F0004F4FEA01314FF4801C30
:100300004CEA113102D0404261EB410113F0004F41
:100310004FEA03334CEA133302D0524263EB4303F8
:1003200094EA050F00F0A780A4F10104D5F1200E96
:100330000DDB02FA0EFC22FA05F2801841F10001F1
:1003400003FA0EF2801843FA05F359410EE0A5F1C5
:1003500020050EF1200E012A03FA0EFC28BF4CF0F6
:10036000020C43FA05F3C01851EBE37101F00045AC
:1003700007D54FF0000EDCF1000C7EEB00006EEBB9
:100380000101B1F5801F1BD3B1F5001F0CD3490843
:100390005FEA30004FEA3C0C04F101044FEA44529A
:1003A00012F5800F80F09A80BCF1004F08BF5FEA21
:1003B000500C50F1000041EB045141EA050130BD01
:1003C0005FEA4C0C404141EB0101013C28BFB1F513
:1003D000801FE9D291F0000F04BF01460020B1FA5E
:1003E00081F308BF2033A3F10B03B3F120020CDA31
:1003F0000C3208DD02F1140CC2F10C0201FA0CF00F
:1004000021FA02F10CE002F11402D8BFC2F1200C73
:1004100001FA02F120FA0CFCDCBF41EA0C01904029
:10042000E41AA2BF01EB0451294330BD6FEA040472
:100430001F3C1CDA0C340EDC04F11404C4F120025D
:1004400020FA04F001FA02F340EA030021FA04F36F
:1004500045EA030130BDC4F10C04C4F1200220FAC6
:1004600002F001FA04F340EA0300294630BD21FA04
:1004700004F0294630BD94F0000F83F4801306BFCA
:1004800081F480110134013D4EE77FEA645C18BFBE
:100490007FEA655C29D094EA050F08BF90EA020F55
:1004A00005D054EA000C04BF1946104630BD91EA4D
:1004B000030F1EBF0021002030BD5FEA545C05D150
:1004C0004000494128BF41F0004130BD14F580048F
:1004D0003CBF01F5801130BD01F0004545F0FE4103
:1004E00041F470014FF0000030BD7FEA645C1ABF38
:1004F000194610467FEA655C1CBF0B46024650EA6F
:10050000013406BF52EA033591EA030F41F400219A
:1005100030BD00BF90F0000F04BF0021704730B520
:100520004FF4806404F132044FF000054FF00001F5
:1005300050E700BF90F0000F04BF0021704730B5B6
:100540004FF4806404F1320410F0004548BF40428B
:100550004FF000013EE700BF42004FEAE2014FEAE0
:1005600031014FEA02701FBF12F07F4393F07F4FBB
:1005700081F06051704732F07F4208BF704793F0BE
:100580007F4F04BF41F40021704730B54FF46074D1
:1005900001F0004521F000411CE700BF50EA0102D4
:1005A00008BF704730B54FF000050AE050EA01027D
:1005B00008BF704730B511F0004502D5404261EBED
:1005C00041014FF4806404F132045FEA915C3FF42E
:1005D000D8AE4FF003025FEADC0C18BF03325FEACB
:1005E000DC0C18BF033202EBDC02C2F1200300FA7C
:1005F00003FC20FA02F001FA03FE40EA0E0021FAA1
:1006000002F11444BDE600BF70B54FF0FF0C4CF48E
:10061000E06C1CEA11541DBF1CEA135594EA0C0F40
:1006200095EA0C0F00F0DEF82C4481EA030621EA7B
:100630004C5123EA4C5350EA013518BF52EA0335B6
:1006400041F4801143F4801338D0A0FB02CE4FF068
:100650000005E1FB02E506F00042E0FB03E54FF098
:100660000006E1FB03569CF0000F18BF4EF0010E90
:10067000A4F1FF04B6F5007F64F5407404D25FEA8C
:100680004E0E6D4146EB060642EAC62141EA55513F
:100690004FEAC52040EA5E504FEACE2EB4F1FD0C81
:1006A00088BFBCF5E06F1ED8BEF1004F08BF5FEAFF
:1006B000500E50F1000041EB045170BD06F00046B1
:1006C00046EA010140EA020081EA0301B4EB5C045E
:1006D000C2BFD4EB0C0541EA045170BD41F4801156
:1006E0004FF0000E013C00F3AB8014F1360FDEBF7B
:1006F000002001F0004170BDC4F10004203C35DA57
:100700000C341BDC04F11404C4F1200500FA05F3D9
:1007100020FA04F001FA05F240EA020001F000427A
:1007200021F0004110EBD37021FA04F642EB0601F0
:100730005EEA430E08BF20EAD37070BDC4F10C041A
:10074000C4F1200500FA04F320FA05F001FA04F2DE
:1007500040EA020001F0004110EBD37041F10001CA
:100760005EEA430E08BF20EAD37070BDC4F12005D5
:1007700000FA05F24EEA020E20FA04F301FA05F23D
:1007800043EA020321FA04F001F0004121FA04F2E5
:1007900020EA020000EBD3705EEA430E08BF20EAB5
:1007A000D37070BD94F0000F0FD101F000464000EF
:1007B00041EB010111F4801F08BF013CF7D041EA71
:1007C000060195F0000F18BF704703F00046520075
:1007D00043EB030313F4801F08BF013DF7D043EA46
:1007E0000603704794EA0C0F0CEA135518BF95EAFC
:1007F0000C0F0CD050EA410618BF52EA4306D1D183
:1008000081EA030101F000414FF0000070BD50EAA1
:10081000410606BF1046194652EA430619D094EA2B
:100820000C0F02D150EA013613D195EA0C0F05D115
:1008300052EA03361CBF104619460AD181EA030169
:1008400001F0004141F0FE4141F470014FF0000021
:1008500070BD41F0FE4141F4780170BD70B54FF0BC
:10086000FF0C4CF4E06C1CEA11541DBF1CEA13553C
:1008700094EA0C0F95EA0C0F00F0A7F8A4EB05041E
:1008800081EA030E52EA03354FEA013100F0888015
:100890004FEA03334FF0805545EA131343EA1263DE
:1008A0004FEA022245EA111545EA10654FEA002693
:1008B0000EF000419D4208BF964244F1FD0404F54C
:1008C000407402D25B084FEA3202B61A65EB0305A8
:1008D0005B084FEA32024FF480104FF4002CB6EB65
:1008E000020E75EB030E22BFB61A754640EA0C00E5
:1008F0005B084FEA3202B6EB020E75EB030E22BF25
:10090000B61A754640EA5C005B084FEA3202B6EB65
:10091000020E75EB030E22BFB61A754640EA9C0024
:100920005B084FEA3202B6EB020E75EB030E22BFF4
:10093000B61A754640EADC0055EA060E18D04FEAB2
:10094000051545EA16754FEA06164FEAC30343EA52
:1009500052734FEAC2025FEA1C1CC0D111F4801F1F
:100960000BD141EA00014FF000004FF0004CB6E718
:1009700011F4801F04BF01430020B4F1FD0C88BFB7
:10098000BCF5E06F3FF6AFAEB5EB030C04BFB6EBC2
:10099000020C5FEA500C50F1000041EB045170BDB5
:1009A0000EF0004E4EEA113114EB5C04C2BFD4EBE2
:1009B0000C0541EA045170BD41F480114FF0000E66
:1009C000013C90E645EA060E8DE60CEA135594EAE2
:1009D0000C0F08BF95EA0C0F3FF43BAF94EA0C0FE5
:1009E0000AD150EA01347FF434AF95EA0C0F7FF45A
:1009F00025AF104619462CE795EA0C0F06D152EAAE
:100A000003353FF4FDAE1046194622E750EA410691
:100A100018BF52EA43067FF4C5AE50EA41047FF4A2
:100A20000DAF52EA43057FF4EBAE12E74FF0FF3C07
:100A300006E000BF4FF0010C02E000BF4FF0010CD8
:100A40004DF804CD4FEA410C7FEA6C5C4FEA430C51
:100A500018BF7FEA6C5C1BD001B050EA410C0CBFA0
:100A600052EA430C91EA030F02BF90EA020F002002
:100A7000704710F1000F91EA030F58BF994208BF69
:100A800090422CBFD8176FEAE37040F00100704726
:100A90004FEA410C7FEA6C5C02D150EA013C07D17D
:100AA0004FEA430C7FEA6C5CD6D152EA033CD3D0C8
:100AB0005DF8040B704700BF8446104662468C46C2
:100AC0001946634600E000BF01B5FFF7B7FF0028F5
:100AD00048BF10F1000F01BD4DF808EDFFF7F4FF1E
:100AE0000CBF012000205DF808FB00BF4DF808EDA9
:100AF000FFF7EAFF34BF012000205DF808FB00BFCC
:100B00004DF808EDFFF7E0FF94BF012000205DF8ED
:100B100008FB00BF4DF808EDFFF7CEFF94BF0120A2
:100B200000205DF808FB00BF4DF808EDFFF7C4FF9B
:100B300034BF012000205DF808FB00BF4FEA410CE4
:100B40007FEA6C5C02D150EA013C0AD14FEA430CC7
:100B50007FEA6C5C02D152EA033C02D14FF0000004
:100B600070474FF0010070474FEA410212F5001242
:100B700015D211D56FF47873B3EB625212D94FEAE4
:100B8000C12343F0004343EA505311F0004F23FACE
:100B900002F018BF404270474FF00000704750EA23
:100BA000013005D111F0004008BF6FF000407047E0
:100BB0004FF00000704700BF4A0011D212F500123A
:100BC00011D20DD56FF47873B3EB62520ED44FEAA5
:100BD000C12343F0004343EA505323FA02F0704725
:100BE0004FF00000704750EA013002D14FF0FF3063
:100BF00070474FF0000070474FEA4102B2F1E04306
:100C000024BFB3F5001CDCF1FE5C0DD901F0004CF3
:100C10004FEAC0024CEA5070B2F1004F40EB830043
:100C200008BF20F00100704711F0804F21D113F16F
:100C30003872BCBF01F00040704741F480114FEAA8
:100C40005252C2F11802C2F1200C10FA0CF320FA31
:100C500002F018BF40F001004FEAC1234FEAD3234E
:100C600003FA0CFC40EA0C0023FA02F34FEA4303B8
:100C7000CCE77FEA625307D150EA01331EBF4FF041
:100C8000FE4040F44000704701F0004040F0FE405C
:100C900040F40000704700BF53B94AB9002908BFAB
:100CA00000281CBF4FF0FF314FF0FF3000F0A0B91B
:100CB000ADF1080C6DE904CE00F03CF8DDF804E07D
:100CC000DDE9022304B0704738B500220023044652
:100CD0000D46FFF70BFF28B920462946BDE83840EE
:100CE00000F00AB8204605F1004100F005F8404246
:100CF00061EB410138BD00BFD0B50C4B0022064668
:100D00000F46FFF781FCFFF757FF0446FFF702FC91
:100D1000074B0022FFF778FC02460B463046394667
:100D2000FFF7BAFAFFF748FF2146D0BD0000F03DBB
:100D30000000F0412DE9F047089D0C46002B4ED1F4
:100D400094468C458646B2FA82F262D94AB1C2F123
:100D50002003914020FA03F30CFA02FC194300FA35
:100D600002FE4FEA1C471FFA8CF6B1FBF7F44FEA7C
:100D70001E4307FB141143EA014304FB06F19942A9
:100D80000AD91CEB030304F1FF3080F01281994271
:100D900040F20F81023C6344591A1FFA8EF3B1FBF3
:100DA000F7F007FB101143EA014300FB06F69E42F1
:100DB0000AD91CEB030300F1FF3180F0FC809E4256
:100DC00040F2F980634402389B1B40EA0440002152
:100DD0001DB1D3400022C5E90032BDE8F0878B4247
:100DE00005D90DB1C5E9000100210846F5E7B3FAC0
:100DF00083F1002946D1A34202D39042C0F0F08093
:100E0000861A64EB03030120002DE6D0C5E90063D8
:100E1000E3E7002A40F09080A1EB0C044FEA1C4865
:100E20001FFA8CF70121B4FBF8F64FEA1E4308FBCA
:100E3000164443EA044307FB06F0984208D91CEB2A
:100E4000030306F1FF3402D2984200F2CD80264619
:100E50001C1A1FFA8EF3B4FBF8F008FB104443EAA7
:100E6000044300FB07F79F4208D91CEB030300F182
:100E7000FF3402D29F4200F2B0802046DB1B40EAE2
:100E80000640A5E7C1F120068B4022FA06F71F4372
:100E900020FA06FC04FA01F343EA0C03F44000FADA
:100EA00001F8380C4FEA1349B4FBF0FE1FFA87FC37
:100EB00000FB1E4449EA04440EFB0CF9A14502FA6A
:100EC00001F20AD93C190EF1FF3A80F08480A14565
:100ED00040F28180AEF1020E3C44A4EB09041FFAFB
:100EE00083F9B4FBF0F300FB134449EA044403FB29
:100EF0000CFCA44507D93C1903F1FF3067D2A44587
:100F000065D9023B3C4443EA0E40A0FB0293A4EBAC
:100F10000C049C42CE469C4651D34ED055B1B8EB02
:100F20000E0364EB0C0404FA06F6CB401E43CC40DF
:100F3000C5E90064002150E7C2F1200320FA03F163
:100F40000CFA02FC24FA03F394400C434FEA1C48C9
:100F500000FA02FE1FFA8CF7B3FBF8F008FB103121
:100F6000230C43EA014300FB07F1994208D91CEB2B
:100F7000030300F1FF362CD299422AD90238634488
:100F80005B1AA4B2B3FBF8F108FB113344EA034443
:100F900001FB07F3A34208D91CEB040401F1FF365F
:100FA00013D2A34211D902396444E41A41EA004140
:100FB00039E70446F0E6084606E7C845AED2B9EB85
:100FC000020E63EB070C0138A8E73146EDE7034654
:100FD00099E73046D4E7D6467FE7634402384DE7C9
:100FE0000646234608460FE7023E634430E700BF4B
:100FF000704700BF80B483B000AF7860044A7B685C
:10100000136000BF0C37BD465DF8047B704700BF1E
:101010000C02002080B582B000AF78607B68184673
:1010200001F0C6FD00BF0837BD4680BD80B588B061
:1010300002AF03460A46FB711346BB71FB793B7353
:10104000BB797B735A4B186807F10C020A23009393
:101050000223502102F056FA0346FB75FB7D002B5C
:1010600000F0A080FB7D012B03D1524807F0F8FA75
:1010700012E0FB7D032B03D14F4807F0F1FA0BE0A0
:10108000FB7D022B03D14D4807F0EAFA04E0FB7D1B
:1010900019464B4807F07CFA454B1B68184602F08E
:1010A0006FFD38613B69002B7ED03B69012B03D17A
:1010B000444807F0D5FA21E03B69022B03D14248AE
:1010C00007F0CEFA1AE03B69042B03D13F4807F042
:1010D000C7FA13E03B69082B03D13D4807F0C0FA7B
:1010E0000CE03B69102B03D13A4807F0B9FA05E050
:1010F0003B69202B02D1384807F0B2FA2C4B1B6811
:10110000184602F02FFD0346FB73FB7B002B03D137
:10111000324807F0A5FA48E0FB7B202B03D12F488B
:1011200007F09EFA41E0FB7B242B03D12C4807F00B
:1011300097FA3AE0FB7B212B03D12A4807F090FA7B
:1011400033E0FB7B222B03D1274807F089FA2CE000
:10115000FB7B282B03D1254807F082FA25E0FB7B97
:10116000292B03D1224807F07BFA1EE0FB7B2A2BB8
:1011700003D1204807F074FA17E0FB7B602B03D102
:101180001D4807F06DFA10E0FB7BA02B03D11B4834
:1011900007F066FA09E0FB7BE02B06D1184807F060
:1011A0005FFA02E000BF00E000BF1837BD4680BD17
:1011B0000C020020B0B50008D4B50008FCB500084A
:1011C00020B6000838B600084CB6000860B6000823
:1011D00074B6000888B600089CB60008B4B60008CB
:1011E000CCB60008E0B60008F8B6000810B7000852
:1011F00028B7000848B7000868B7000880B700089B
:1012000098B7000880B584B002AF03463960FB711F
:101210001346BB710B4B1868FA1D6423009301231E
:10122000502102F06FF9074B1868BB799BB264221A
:1012300000923A68502102F063FA00BF0837BD46B9
:1012400080BD00BF0C020020B0B582B000AF87EDBA
:10125000010AC7ED000AD7ED007A67EEA77A17EE0C
:10126000900AFFF779F970A3D3E90023FFF714F888
:1012700002460B4610461946FFF7BEFC03466C4A71
:1012800013606B4B1B681846FFF766F902460B4666
:1012900043EC102B0AF07AF853EC102B1046194649
:1012A000FFF7AAFC0346624A1360D7ED017A67EEA6
:1012B000A77A17EE900AFFF74FF95BA3D3E9002353
:1012C000FEF7EAFF02460B4610461946FFF794FC6C
:1012D0000346584A1360574B1B681846FFF73CF902
:1012E00002460B4643EC102B0AF050F853EC102B3F
:1012F00010461946FFF780FC03464E4A13604D4BDB
:1013000093ED007A4B4BD3ED007A67EE277A17EE18
:10131000900AFFF721F94FF00002474BFEF7BEFF9E
:1013200002460B4614461D46414B93ED007A404B56
:10133000D3ED007A67EE277A17EE900AFFF70CF9E3
:1013400002460B4620462946FEF7A6FF02460B46FC
:1013500014461D46374BD3ED007A77EEA77A17EE89
:10136000900AFFF7F9F84FF00002344BFFF74CF901
:1013700002460B4620462946FFF770FA02460B4606
:1013800010461946FFF738FC03462D4A1360294BD7
:1013900093ED007A2A4BD3ED007A67EE277A294B3A
:1013A000C3ED007A264B93ED007A254BD3ED007AFE
:1013B00067EE277AB7EE007A77EE677AF5EEC07AB5
:1013C000F1EE10FA00DA2BE01A4B1B681846FFF713
:1013D000C3F804460D461A4B93ED007A184BD3ED33
:1013E000007A67EE277AB7EE007A77EE677A17EE23
:1013F000900AFFF7B1F802460B4643EC102B09F0B8
:10140000C5FF53EC102B20462946FFF7FDF8024696
:101410000B4610461946FFF7EFFB03460A4A1360D6
:1014200000BF0837BD46B0BD0AD7A3703D0AB73F1D
:10143000E0020020E40200200000224000000840FA
:10144000DC020020CC020020D002002000000000BE
:101450002DE9B04F98B00EAF78627B6A1B68924A54
:10146000934240F00C82914B1B685B6A1AB2904B1E
:101470001A80904B1B685B6A1AB28F4B1A808F4B95
:101480001B685B6A1AB28E4B1A808E4B1B685B6AB4
:101490001AB28D4B1A80884B1B881BB21A468B4B95
:1014A0001B881BB2D31A07EE903AF8EEE77A9FED4D
:1014B000887A67EE877AB2EE0E7A67EE877A17EE51
:1014C000900AFFF749F874A3D3E90023FFF7C6F9A0
:1014D00002460B4610461946FFF78EFB03467D4A2F
:1014E0001360794B1B881BB21A467B4B1B881BB2BF
:1014F000D31A07EE903AF8EEE77A9FED757A67EE29
:10150000877AB2EE0E7A67EE877A17EE900AFFF7C7
:1015100023F861A3D3E90023FFF7A0F902460B46A5
:1015200010461946FFF768FB03466C4A1360644B8C
:101530001B881BB21A466A4B1B881BB2D31A07EED4
:10154000903AF8EEE77A9FED627A67EE877AB2EE2C
:101550000E7A67EE877A17EE900AFEF7FDFF4EA32C
:10156000D3E90023FFF77AF902460B4610461946E5
:10157000FFF742FB03465B4A13604D4B1B881BB2CF
:101580001A46594B1B881BB2D31A07EE903AF8EE55
:10159000E77A9FED4F7A67EE877AB2EE0E7A67EEC2
:1015A000877A17EE900AFEF7D7FF3BA3D3E9002313
:1015B000FFF754F902460B4610461946FFF71CFB8D
:1015C00003464A4A13603C4B1B881AB23F4B1A80B1
:1015D0003D4B1B881AB2404B1A80394B1B881AB2FC
:1015E0003F4B1A80324B1B881AB23F4B1A8005F0D2
:1015F00047FAB0EE404AF0EE604AB0EE415AF0EEE3
:10160000615AB0EE426AF0EE626AB0EE437AF0EEF2
:10161000637A374B83ED004B83ED025B83ED046B04
:1016200083ED067B324BD3E9022310461946FFF7C0
:10163000E3FA03462F4A13602E4BD3ED007AF5EE02
:10164000C07AF1EE10FA5BDB2A4BD3ED007A9FED06
:101650002A7AF4EEC77AF1EE10FA51D5254B93EDC4
:10166000007ADFED266AC7EE267AF1EE677A77EE2A
:10167000A77A17EE900AFEF76FFF09A3D3E90023BC
:10168000FEF7C2FF02460B4610461946FFF7B4FAB2
:101690000346184A136058E0000000000034B740C9
:1016A000A7E8482EFF21094000400140C403002064
:1016B000FC0200200C040020F00200205404002052
:1016C000F80200209C040020F4020020F202002016
:1016D0000000704200030020F602002004030020F6
:1016E000FA02002008030020FE0200200C03002064
:1016F0005003002044030020000034430000B443A2
:10170000654BD3ED007A9FED657A77EE677A624B91
:10171000C3ED007A604B93ED007ADFED606AC7EEAF
:10172000267A77EEA77A17EE900AFEF715FF56A3F2
:10173000D3E90023FEF768FF02460B461046194620
:10174000FFF75AFA0346544A1360554B93ED007A5B
:10175000544BD3ED007A37EE677A534BD3ED007AD2
:1017600037EE277A514BD3ED007A77EE677A17EE92
:10177000900AFEF7F1FE46A3D3E90023FEF744FFEB
:1017800002460B461046194602460B46FEF786FDFA
:1017900002460B46104619463BA3D3E90023FEF749
:1017A00033FF02460B46104619464FF00002404BED
:1017B000FFF754F802460B4610461946FFF71CFA8D
:1017C00003463C4A1360374B1B681846FEF7C4FEBD
:1017D000C7E90601324B1B681846FEF7BDFE82467C
:1017E0008B46314B1B681846FEF7B6FEC7E904016D
:1017F0002E4B1B681846FEF7AFFEC7E902012E4BC1
:101800001B681846FEF7A8FEC7E900012B4B1B68B2
:101810001846FEF7A1FE804689461F4B1B681846F6
:10182000FEF79AFE04460D46224B1B681846FEF74B
:1018300093FE02460B46CDE90C23CDE90A45CDE9DE
:10184000088997ED007B8DED067B97ED027B8DED92
:10185000047B97ED047B8DED027BCDE900ABD7E9EE
:1018600006231749174806F003FF1648FEF708FD40
:1018700003469AB264231349134803F04FFF00BF95
:101880002837BD46BDE8B08FA7E8482EFF210940A4
:101890007B14AE47E17A943F440300200000B44338
:1018A0000403002000030020080300200C03002094
:1018B00000004E4048030020CC020020D00200204F
:1018C000B0B70008100300207405002000000000DD
:1018D00080B582B000AF78607B681A689A4B1B684D
:1018E0009A4231D1994B1B780A2B1DD1984B1B780A
:1018F0001A46984B0A2199549648FEF7C1FC0346B4
:101900009AB264239349944803F008FF64220021AB
:10191000904806F0A5FF8E4B00221A7001228B49D9
:10192000894803F086FF0FE0894B1B785A1CD1B21F
:10193000874A11701A46854B1978864B99540122B3
:101940008249814803F075FF7B681A68834B1B68E6
:101950009A4240F0EB80824B1B780A2B40F0D680F5
:10196000804B1B78412B59D17F497E4806F092FF6E
:1019700003467E4A13607D4B1B68184605F0C3F88A
:1019800053EC102B10461946FFF736F90346784AF8
:101990001360784B1B68002B10D1744B1B681846E2
:1019A00005F0B1F853EC102B10461946FFF724F957
:1019B0000346714A13606F4B01221A606E4B93ED20
:1019C000007A6B4BD3ED007A77EE677AF0EEE77A28
:1019D000B0EE007AF4EEC77AF1EE10FA1ED5644B41
:1019E000D3ED007AF5EE407AF1EE10FA16D0604BA6
:1019F0001B68614A1360604B1B681846FEF7ACFD1C
:101A00004DA3D3E90023FEF747FC02460B461046E0
:101A10001946FFF7F1F80346584A1360514B1B78FB
:101A2000422B59D156494F4806F034FF0346554AD8
:101A30001360544B1B68184605F065F853EC102BE7
:101A400010461946FFF7D8F803464F4A13604F4B2C
:101A50001B68002B10D14B4B1B68184605F053F840
:101A600053EC102B10461946FFF7C6F80346484AB8
:101A70001360464B01221A60454B93ED007A424BAE
:101A8000D3ED007A77EE677AF0EEE77AB2EE047A79
:101A9000F4EEC77AF1EE10FA1ED53B4BD3ED007A87
:101AA000F5EE407AF1EE10FA16D0374B1B68384A43
:101AB0001360374B1B681846FEF74EFD20A3D3E991
:101AC0000023FEF7E9FB02460B4610461946FFF7D6
:101AD00093F803462F4A1360284BD3ED007A2D4B21
:101AE00093ED007AF0EE470AB0EE670AFFF7ACFB21
:101AF000322200211B4806F0B3FE274B00221A7049
:101B000001221749154803F094FE0FE0224B1B7881
:101B10005A1CD1B2204A11701A46114B1978114B38
:101B2000995401220E490D4803F083FE00BF083787
:101B3000BD4680BDAFF300805839B4C876BEDF3FE4
:101B4000A245B6F3FDD4E83F7405002078020020DA
:101B50007402002010020020BC0500202C0500208B
:101B60007C02002080020020DCB70008E802002090
:101B7000B4020020C4020020BC020020D4020020D5
:101B8000E0B70008EC020020B8020020C8020020E4
:101B9000C0020020D80200207D02002080B500AFE6
:101BA00000F094FF00F078F800F018FB00F00AF95C
:101BB00000F0C0FA00F05EF900F0B0F900F002FAAF
:101BC00000F0E2FA00F08CFA00F0CEF800F04EFAE5
:101BD00001224FF40041254801F036FB01224FF469
:101BE0008041224801F030FB01224FF400511F4890
:101BF00001F02AFB01224FF480511C4801F024FB24
:101C000000211B4803F0FEF80421194803F0FAF8FC
:101C10000021184803F0F6F80421164803F0F2F802
:101C20000021154803F0EEF80421134803F0EAF808
:101C30000021124803F0E6F80421104803F0E2F80E
:101C400001220F490F4803F0F4FD01220E490F480D
:101C500003F0EFFD0E4802F0CDFF0E48FFF7CAF982
:101C600004F0A2FD04F08DFD00BFFDE7000C024072
:101C7000C40300200C040020540400209C04002015
:101C80007C0200202C050020780200207405002032
:101C9000E40400207003002080B594B000AF07F189
:101CA000200330220021184606F0DAFD07F10C036C
:101CB00000221A605A609A60DA601A610023BB60E1
:101CC000274B1B6C264A43F080531364244B1B6C38
:101CD00003F08053BB60BB6800237B60214B1B6813
:101CE000204A43F4404313601E4B1B6803F44043F7
:101CF0007B607B6802233B620123FB6210233B6312
:101D00000223BB630023FB6308233B6460237B64E3
:101D10000223BB640423FB6407F12003184602F08E
:101D2000C1FA0346002B01D000F0EAFA0F23FB6052
:101D300002233B6100237B614FF48053BB6100238E
:101D4000FB6107F10C030321184602F023FD034653
:101D5000002B01D000F0D4FA00BF5037BD4680BD43
:101D6000003802400070004080B500AF124B134AAB
:101D70001A60114B124A5A600F4B00229A600E4BA8
:101D80000022DA600C4B4FF480421A610A4B0022A9
:101D90005A61094B00229A61074B0022DA61064B17
:101DA00000221A62044801F069FA0346002B01D0B0
:101DB00000F0A6FA00BF80BD70030020005C004068
:101DC000A086010080B58CB000AF07F10C0324227F
:101DD0000021184606F044FD3B1D00221A605A609F
:101DE000224B234A1A60214B00225A601F4B0022CB
:101DF0009A601E4B4FF6FF72DA601C4B00221A618C
:101E00001A4B00225A61194B00229A610323FB608E
:101E100000233B6101237B610023BB610023FB6145
:101E200000233B6201237B620023BB620023FB6231
:101E300007F10C0319460D4802F03EFF0346002B44
:101E400001D000F05DFA00237B600023BB603B1DE6
:101E50001946064803F090FB0346002B01D000F022
:101E60004FFA00BF3037BD4680BD00BFC40300201D
:101E70000000014080B58CB000AF07F10C032422B4
:101E80000021184606F0ECFC3B1D00221A605A6047
:101E9000214B4FF080421A601F4B00225A601E4BAC
:101EA00000229A601C4B4FF6FF72DA601A4B002238
:101EB0001A61194B00229A610323FB6000233B61E6
:101EC00001237B610023BB610023FB6100233B6294
:101ED00001237B620023BB620023FB6207F10C033A
:101EE00019460D4802F0E8FE0346002B01D000F031
:101EF00007FA00237B600023BB603B1D19460648A0
:101F000003F03AFB0346002B01D000F0F9F900BFC3
:101F10003037BD4680BD00BF0C04002080B58CB0BA
:101F200000AF07F10C0324220021184606F098FCAC
:101F30003B1D00221A605A60204B214A1A601F4B39
:101F400000225A601D4B00229A601C4B4FF6FF7214
:101F5000DA601A4B00221A61184B00229A6103239F
:101F6000FB6000233B6101237B610023BB610023F5
:101F7000FB6100233B6201237B620023BB620023E1
:101F8000FB6207F10C0319460C4802F095FE03466C
:101F9000002B01D000F0B4F900237B600023BB606C
:101FA0003B1D1946054803F0E7FA0346002B01D014
:101FB00000F0A6F900BF3037BD4680BD54040020B4
:101FC0000004004080B58CB000AF07F10C03242260
:101FD0000021184606F044FC3B1D00221A605A609E
:101FE000204B214A1A601F4B00225A601D4B0022D1
:101FF0009A601C4B4FF6FF72DA601A4B00221A618E
:10200000184B00229A610323FB6000233B610123EC
:102010007B610023BB610023FB6100233B62012342
:102020007B620023BB620023FB6207F10C031946AD
:102030000C4802F041FE0346002B01D000F060F98D
:1020400000237B600023BB603B1D1946054803F05D
:1020500093FA0346002B01D000F052F900BF30374D
:10206000BD4680BD9C0400200008004080B584B0BF
:1020700000AF3B4600221A605A609A60DA60164B45
:10208000164A1A60144B40F2BF325A60124B0022BB
:102090009A60114B42F20F72DA600F4B00221A6104
:1020A0000D4B00229A610C4802F054FD0346002BB0
:1020B00001D000F025F94FF480533B603B461946B0
:1020C000054803F01DF80346002B01D000F018F975
:1020D00000BF1037BD4680BDE40400200040014031
:1020E00080B500AF114B124A1A60104B4FF4E13229
:1020F0005A600E4B00229A600C4B0022DA600B4BA8
:1021000000221A61094B0C225A61084B00229A6185
:10211000064B0022DA61054803F0B0FA0346002BB3
:1021200001D000F0EDF800BF80BD00BF2C050020FD
:102130000010014080B500AF114B124A1A60104BDD
:102140004FF4E1325A600E4B00229A600C4B002291
:10215000DA600B4B00221A61094B0C225A61084BC2
:1021600000229A61064B0022DA61054803F086FAE4
:102170000346002B01D000F0C3F800BF80BD00BFB4
:10218000740500200044004080B500AF114B124A96
:102190001A60104B4FF4E1325A600E4B00229A60E5
:1021A0000C4B0022DA600B4B00221A61094B0C2207
:1021B0005A61084B00229A61064B0022DA610548F9
:1021C00003F05CFA0346002B01D000F099F800BF41
:1021D00080BD00BFBC0500200014014080B58CB05C
:1021E00000AF07F11C0300221A605A609A60DA609F
:1021F0001A610023BB613F4B1B6B3E4A43F08003D7
:1022000013633C4B1B6B03F08003BB61BB69002372
:102210007B61384B1B6B374A43F001031363354B2B
:102220001B6B03F001037B617B6900233B61314B36
:102230001B6B304A43F0100313632E4B1B6B03F0F0
:1022400010033B613B690023FB602A4B1B6B294A4F
:1022500043F008031363274B1B6B03F00803FB6079
:10226000FB680023BB60234B1B6B224A43F0040333
:102270001363204B1B6B03F00403BB60BB6800239C
:102280007B601C4B1B6B1B4A43F002031363194B0F
:102290001B6B03F002037B607B6800221021164851
:1022A00000F0D2FF00224FF47041144800F0CCFF40
:1022B0001023FB6101233B6200237B620023BB628E
:1022C00007F11C0319460C4800F03AFE4FF4704326
:1022D000FB6101233B6200237B620023BB6207F1A9
:1022E0001C031946054800F02BFE00BF3037BD46E1
:1022F00080BD00BF0038024000000240000C0240D8
:1023000080B400AF72B600BF00BFFDE780B483B0F9
:1023100000AF00237B60104B5B6C0F4A43F480439B
:1023200053640D4B5B6C03F480437B607B6800233C
:102330003B60094B1B6C084A43F080531364064B07
:102340001B6C03F080533B603B6800BF0C37BD46FD
:102350005DF8047B704700BF0038024080B58AB04A
:1023600000AF786007F1140300221A605A609A6087
:10237000DA601A617B681B68294A93424BD10023BB
:102380003B61284B1B6B274A43F004031363254B27
:102390001B6B03F004033B613B690023FB60214B93
:1023A0001B6B204A43F0010313631E4B1B6B03F0AE
:1023B0000103FB60FB684FF400737B611223BB6178
:1023C0000023FB6103233B6204237B6207F11403B8
:1023D0001946154800F0B4FD4FF480737B61122359
:1023E000BB610023FB6103233B6204237B6207F193
:1023F000140319460D4800F0A3FD0023BB60094BF0
:102400001B6C084A43F400031364064B1B6C03F473
:102410000003BB60BB6800BF2837BD4680BD00BF5E
:10242000005C00400038024000080240000002400A
:1024300080B590B000AF786007F12C0300221A60DD
:102440005A609A60DA601A617B681B68684A934236
:1024500035D10023BB62674B5B6C664A43F00103D6
:102460005364644B5B6C03F00103BB62BB6A0023E3
:102470007B62604B1B6B5F4A43F0100313635D4B41
:102480001B6B03F010037B627B6A4FF42063FB62DB
:1024900002233B6300237B630023BB630123FB63B5
:1024A00007F12C031946544800F04AFD002202218E
:1024B000182000F07CFC182000F095FC94E07B686C
:1024C0001B68B3F1804F2CD100233B62494B1B6C3E
:1024D000484A43F001031364464B1B6C03F00103AD
:1024E0003B623B6A0023FB61424B1B6B414A43F05A
:1024F000010313633F4B1B6B03F00103FB61FB699B
:102500002223FB6202233B6300237B630023BB6324
:102510000123FB6307F12C031946384800F010FD36
:1025200062E07B681B68364A93422CD10023BB6172
:10253000304B1B6C2F4A43F0020313642D4B1B6C72
:1025400003F00203BB61BB6900237B61294B1B6B5A
:10255000284A43F002031363264B1B6B03F002036C
:102560007B617B693023FB6202233B6300237B6337
:102570000023BB630223FB6307F12C0319462148A8
:1025800000F0DEFC30E07B681B681F4A93422BD1D1
:1025900000233B61174B1B6C164A43F00403136482
:1025A000144B1B6C03F004033B613B690023FB608D
:1025B000104B1B6B0F4A43F0020313630D4B1B6B55
:1025C00003F00203FB60FB68C023FB6202233B6352
:1025D00000237B630023BB630223FB6307F12C030F
:1025E0001946084800F0ACFC00BF4037BD4680BD2E
:1025F000000001400038024000100240000002408C
:1026000000040040000402400008004080B584B08F
:1026100000AF78607B681B680E4A934215D1002397
:10262000FB600D4B5B6C0C4A43F4803353640A4BE4
:102630005B6C03F48033FB60FB68002202211820EE
:1026400000F0B5FB182000F0CEFB00BF1037BD46F0
:1026500080BD00BF004001400038024080B58EB010
:1026600000AF786007F1240300221A605A609A6074
:10267000DA601A617B681B68624A934253D1002377
:102680003B62614B5B6C604A43F0100353645E4BEA
:102690005B6C03F010033B623B6A0023FB615A4B07
:1026A0001B6B594A43F001031363574B1B6B03F039
:1026B0000103FB61FB690023BB61534B1B6B524A57
:1026C00043F002031363504B1B6B03F00203BB6127
:1026D000BB694FF400437B620223BB620023FB62B1
:1026E00003233B6307237B6307F124031946474811
:1026F00000F026FC08237B620223BB620023FB62FE
:1027000003233B6307237B6307F1240319464048F7
:1027100000F016FC00220021252000F048FB2520B7
:1027200000F061FB6AE07B681B683A4A934234D14F
:1027300000237B61344B1B6C334A43F40033136436
:10274000314B1B6C03F400337B617B6900233B61DD
:102750002D4B1B6B2C4A43F0080313632A4B1B6B56
:1027600003F008033B613B6960237B620223BB6289
:102770000023FB6203233B6307237B6307F12403EE
:102780001946254800F0DCFB00220121262000F03C
:102790000EFB262000F027FB30E07B681B681F4AF9
:1027A00093422BD10023FB60174B5B6C164A43F01E
:1027B00020035364144B5B6C03F02003FB60FB6845
:1027C0000023BB60104B1B6B0F4A43F004031363E1
:1027D0000D4B1B6B03F00403BB60BB68C0237B6223
:1027E0000223BB620023FB6203233B6308237B635A
:1027F00007F1240319460A4800F0A2FB00BF38374E
:10280000BD4680BD0010014000380240000002407B
:102810000004024000440040000C0240001401404B
:102820000008024080B400AF00BFFDE780B400AFF5
:1028300000BFFDE780B400AF00BFFDE780B400AF8C
:1028400000BFFDE780B400AF00BFFDE780B400AF7C
:1028500000BFBD465DF8047B704780B400AF00BF89
:10286000BD465DF8047B704780B400AF00BFBD4635
:102870005DF8047B704780B500AF00F079F900BFC8
:1028800080BD000080B500AF034802F049FB03485B
:1028900002F046FB00BF80BDC4030020E40400201A
:1028A00080B500AF024802F0E9FF00BF80BD00BF65
:1028B0002C05002080B500AF024802F0DFFF00BF0A
:1028C00080BD00BF7405002080B400AF012318460E
:1028D000BD465DF8047B704780B582B000AF78607C
:1028E000396006F07DF8034616221A604FF0FF3378
:1028F00018460837BD4680BD80B582B000AF78600D
:102900004FF0FF317868FFF7E7FF00BFFDE780B5C4
:1029100086B000AFF860B9607A6000237B610AE09E
:10292000AFF300800146BB685A1CBA60CAB21A7085
:102930007B6901337B617A697B689A42F0DB7B6853
:1029400018461837BD4680BD80B586B000AFF86028
:10295000B9607A6000237B6109E0BB685A1CBA60E9
:102960001B781846AFF300807B6901337B617A697D
:102970007B689A42F1DB7B6818461837BD4680BDFC
:1029800080B483B000AF78604FF0FF3318460C3747
:10299000BD465DF8047B704780B483B000AF7860BB
:1029A00039603B684FF400525A60002318460C37D8
:1029B000BD465DF8047B704780B483B000AF78609B
:1029C000012318460C37BD465DF8047B704780B480
:1029D00085B000AFF860B9607A60002318461437FC
:1029E000BD465DF8047B704780B586B000AF786067
:1029F000144A154BD31A7B617B693B61134B1B68EF
:102A0000002B02D1114B124A1A60104B1A687B68D6
:102A100013443A699A4207D205F0E2FF03460C22BA
:102A20001A604FF0FF3309E0084B1B68FB60074B4F
:102A30001A687B681344054A1360FB681846183708
:102A4000BD4680BD000002200004000004060020F6
:102A50005807002080B400AF064BD3F88830054AF1
:102A600043F47003C2F8883000BFBD465DF8047BB4
:102A7000704700BF00ED00E0DFF834D0FFF7EAFF59
:102A80000C480D490D4A002302E0D458C4500433C9
:102A9000C4188C42F9D30A4A0A4C002301E013609F
:102AA0000432A242FBD305F0A1FFFFF777F870478D
:102AB0000000022000000020F0010020D4BC00082B
:102AC000F001002058070020FEE7000080B500AFAD
:102AD0000E4B1B680D4A43F4007313600B4B1B68CD
:102AE0000A4A43F480631360084B1B68074A43F4A7
:102AF00080731360032000F04FF90F2000F008F8F6
:102B0000FFF704FC0023184680BD00BF003C0240D4
:102B100080B582B000AF7860124B1A68124B1B78F8
:102B200019464FF47A73B3FBF1F3B2FBF3F3184693
:102B300000F067F90346002B01D001230EE07B680B
:102B40000F2B0AD8002279684FF0FF3000F02FF9E0
:102B5000064A7B681360002300E00123184608370B
:102B6000BD4680BD000000200800002004000020B9
:102B700080B400AF064B1B781A46064B1B68134403
:102B8000044A136000BFBD465DF8047B704700BF78
:102B9000080000200806002080B400AF034B1B682B
:102BA0001846BD465DF8047B704700BF080600204C
:102BB00080B584B000AF7860FFF7EEFFB8607B6847
:102BC000FB60FB68B3F1FF3F05D00A4B1B781A4648
:102BD000FB681344FB6000BFFFF7DEFF0246BB68E3
:102BE000D31AFA689A42F7D800BF00BF1037BD4623
:102BF00080BD00BF0800002080B485B000AF7860C1
:102C00007B6803F00703FB600C4BDB68BB60BA68B2
:102C10004FF6FF031340BB60FB681A02BB68134307
:102C200043F0BF6343F40033BB60044ABB68D36026
:102C300000BF1437BD465DF8047B704700ED00E02F
:102C400080B400AF044BDB681B0A03F0070318468F
:102C5000BD465DF8047B704700ED00E080B483B0B2
:102C600000AF0346FB7197F90730002B0BDBFB79B4
:102C700003F01F02074997F907305B09012000FAAA
:102C800002F241F8232000BF0C37BD465DF8047BFB
:102C9000704700BF00E100E080B483B000AF03469E
:102CA0003960FB7197F90730002B0ADB3B68DAB219
:102CB0000C4997F907301201D2B20B4483F8002374
:102CC0000AE03B68DAB20849FB7903F00F03043BE2
:102CD0001201D2B20B441A7600BF0C37BD465DF824
:102CE000047B704700E100E000ED00E080B489B0B3
:102CF00000AFF860B9607A60FB6803F00703FB611E
:102D0000FB69C3F10703042B28BF0423BB61FB69E4
:102D10000433062B02D9FB69033B00E000237B61EF
:102D20004FF0FF32BB6902FA03F3DA43BB681A4083
:102D30007B699A404FF0FF317B6901FA03F3D94375
:102D40007B680B40134318462437BD465DF8047B6F
:102D50007047000080B582B000AF78607B68013BAF
:102D6000B3F1807F01D301230FE00A4A7B68013B66
:102D700053600F214FF0FF30FFF78EFF054B00220D
:102D80009A60044B07221A60002318460837BD4694
:102D900080BD00BF10E000E080B582B000AF786079
:102DA0007868FFF729FF00BF0837BD4680BD80B5B2
:102DB00086B000AF0346B9607A60FB7300237B6185
:102DC000FFF73EFF78617A68B9687869FFF78EFF90
:102DD000024697F90F3011461846FFF75DFF00BF16
:102DE0001837BD4680BD80B582B000AF0346FB7189
:102DF00097F907301846FFF731FF00BF0837BD4687
:102E000080BD80B582B000AF78607868FFF7A2FF20
:102E1000034618460837BD4680BD80B584B000AF74
:102E200078607B689B6DFB60FFF7B6FEB8607B68DF
:102E300093F83530DBB2022B08D07B6880225A65CC
:102E40007B68002283F83420012352E07B681B68F2
:102E50001A687B681B6822F016021A607B681B6880
:102E60005A697B681B6822F080025A617B681B6C80
:102E7000002B03D17B689B6C002B07D07B681B6801
:102E80001A687B681B6822F008021A607B681B685E
:102E90001A687B681B6822F001021A6013E0FFF7D2
:102EA0007BFE0246BB68D31A052B0CD97B68202217
:102EB0005A657B68032283F835207B68002283F8FB
:102EC0003420032315E07B681B681B6803F00103B3
:102ED000002BE4D17B68DB6D3F229A40FB689A604F
:102EE0007B68012283F835207B68002283F8342038
:102EF000002318461037BD4680BD80B483B000AFB4
:102F000078607B6893F83530DBB2022B04D07B68A5
:102F100080225A6501230CE07B68052283F8352066
:102F20007B681B681A687B681B6822F001021A60C4
:102F3000002318460C37BD465DF8047B704700003F
:102F400080B489B000AF7860396000237B610023D2
:102F50003B610023BB610023FB6159E10122FB6956
:102F600002FA03F37B613B681B687A6913403B619B
:102F70003A697B699A4240F048813B685B6803F09C
:102F80000303012B05D03B685B6803F00303022BAE
:102F900030D17B689B68BB61FB695B00032202FA4E
:102FA00003F3DB43BA691340BB613B68DA68FB6932
:102FB0005B0002FA03F3BA691343BB617B68BA6929
:102FC0009A607B685B68BB610122FB6902FA03F3CC
:102FD000DB43BA691340BB613B685B681B0903F0C4
:102FE0000102FB6902FA03F3BA691343BB617B6810
:102FF000BA695A603B685B6803F00303032B17D080
:103000007B68DB68BB61FB695B00032202FA03F3A8
:10301000DB43BA691340BB613B689A68FB695B009C
:1030200002FA03F3BA691343BB617B68BA69DA60D9
:103030003B685B6803F00303022B23D1FB69DA08CA
:103040007B68083253F82230BB61FB6903F0070349
:103050009B000F2202FA03F3DB43BA691340BB6102
:103060003B681A69FB6903F007039B0002FA03F34C
:10307000BA691343BB61FB69DA087B680832B96936
:1030800043F822107B681B68BB61FB695B0003226D
:1030900002FA03F3DB43BA691340BB613B685B6828
:1030A00003F00302FB695B0002FA03F3BA691343FE
:1030B000BB617B68BA691A603B685B6803F44033A4
:1030C000002B00F0A2800023FB60574B5B6C564A3C
:1030D00043F480435364544B5B6C03F48043FB60C4
:1030E000FB68524AFB699B08023352F82330BB61EC
:1030F000FB6903F003039B000F2202FA03F3DB4397
:10310000BA691340BB617B68494A934219D07B6816
:10311000484A934213D07B68474A93420DD07B685C
:10312000464A934207D07B68454A934201D1042323
:1031300008E0072306E0032304E0022302E0012362
:1031400000E00023FA6902F0030292009340BA699A
:103150001343BB613549FB699B080233BA6941F8E7
:103160002320384B9B68BB613B69DB43BA69134042
:10317000BB613B685B6803F48013002B03D0BA6922
:103180003B691343BB612F4ABB6993602D4BDB68DE
:10319000BB613B69DB43BA691340BB613B685B6859
:1031A00003F40013002B03D0BA693B691343BB61DE
:1031B000244ABB69D360234B5B68BB613B69DB433B
:1031C000BA691340BB613B685B6803F40033002BB2
:1031D00003D0BA693B691343BB611A4ABB695360A8
:1031E000184B1B68BB613B69DB43BA691340BB6189
:1031F0003B685B6803F48033002B03D0BA693B69FA
:103200001343BB610F4ABB691360FB690133FB6168
:10321000FB690F2B7FF6A2AE00BF00BF2437BD466F
:103220005DF8047B704700BF003802400038014061
:10323000000002400004024000080240000C02406E
:1032400000100240003C014080B483B000AF7860C1
:103250000B467B8013467B707B78002B03D07A88EB
:103260007B689A6103E07B881A047B689A6100BFDF
:103270000C37BD465DF8047B7047000080B584B014
:1032800000AF78607B68002B01D101232BE17B68C4
:1032900093F83D30DBB2002B06D17B68002283F827
:1032A0003C207868FFF75AF87B68242283F83D2099
:1032B0007B681B681A687B681B6822F001021A6031
:1032C0007B681B681A687B681B6842F400421A60BE
:1032D0007B681B681A687B681B6822F400421A60CE
:1032E00001F010FCF8607B685B68814A934207D864
:1032F000FB68804A934294BF01230023DBB206E0BF
:10330000FB687D4A934294BF01230023DBB2002B6C
:1033100001D00123E7E0FB68784AA2FB03239B0C62
:10332000BB607B681B685B6823F03F017B681B68A0
:10333000BA680A435A607B681B681B6A23F03F0126
:103340007B685B686A4A934202D8BB68013309E034
:10335000BB684FF4967202FB03F3694AA2FB032396
:103360009B0901337A6812680B4313627B681B6800
:10337000DB6923F44F4222F0FF027B685B685C4903
:103380008B4219D8FB68591E7B685B685B00B1FBF8
:10339000F3F3591C40F6FC730B40002B0AD0FB687A
:1033A000591E7B685B685B00B1FBF3F30133C3F329
:1033B0000B0351E004234FE07B689B68002B11D185
:1033C000FB68581E7B6859680B465B000B44B0FBDA
:1033D000F3F30133C3F30B03002B0CBF01230023D2
:1033E000DBB212E0FB68581E7B6859680B469B00F5
:1033F0000B4499000B44B0FBF3F30133C3F30B030D
:10340000002B0CBF01230023DBB2002B01D00123D2
:1034100022E07B689B68002B0ED1FB68581E7B68FE
:1034200059680B465B000B44B0FBF3F30133C3F365
:103430000B0343F400430FE0FB68581E7B68596898
:103440000B469B000B4499000B44B0FBF3F3013394
:10345000C3F30B0343F44043796809681343CB611A
:103460007B681B681B6823F0C0017B68DA697B6896
:103470001B6A1A437B681B680A431A607B681B68D7
:103480009B6823F4034323F0FF037A6811697A6889
:10349000D26811437A6812680B4393607B681B689B
:1034A000DB6823F0FF017B685A697B689B691A43DC
:1034B0007B681B680A43DA607B681B681A687B6854
:1034C0001B6842F001021A607B6800221A647B6864
:1034D000202283F83D207B6800221A637B6800224B
:1034E00083F83E20002318461037BD4680BD00BF3C
:1034F000A08601007F841E00FF083D0083DE1B4381
:10350000D34D621080B588B002AFF8607A601A4679
:103510000B467B8113463B81FFF73EFB7861FB68DE
:1035200093F83D30DBB2202B40F0E0807B690093C4
:10353000192301227049F86800F07EFC0346002B35
:1035400001D00223D3E0FB6893F83C30012B01D17A
:103550000223CCE0FB68012283F83C20FB681B6857
:103560001B6803F00103012B07D0FB681B681A6876
:10357000FB681B6842F001021A60FB681B681A684E
:10358000FB681B6822F400621A60FB68212283F842
:103590003D20FB68102283F83E20FB6800221A645D
:1035A000FB687A685A62FB683A895A85FB685B8DCA
:1035B0009AB2FB681A85FB68504ADA6279897B699E
:1035C0003A6AF86800F0E8FA0346002B01D00123BC
:1035D0008DE000233B61FB681B685B693B61FB6816
:1035E0001B689B693B613B6966E07A69396AF868E8
:1035F00000F03CFD0346002B0DD0FB681B6C042B38
:1036000007D1FB681B681A68FB681B6842F40072EC
:103610001A6001236BE0FB685B6A1A78FB681B6821
:103620001A61FB685B6A5A1CFB685A62FB685B8D17
:103630009BB2013B9AB2FB685A85FB681B8D013B2C
:103640009AB2FB681A85FB681B685B6903F0040388
:10365000042B1BD1FB681B8D002B17D0FB685B6A0A
:103660001A78FB681B681A61FB685B6A5A1CFB6866
:103670005A62FB685B8D9BB2013B9AB2FB685A852C
:10368000FB681B8D013B9AB2FB681A857A69396A1F
:10369000F86800F033FD0346002B0DD0FB681B6C6F
:1036A000042B07D1FB681B681A68FB681B6842F48F
:1036B00000721A6001231AE0FB681B8D002B94D165
:1036C000FB681B681A68FB681B6842F400721A608A
:1036D000FB68202283F83D20FB68002283F83E200F
:1036E000FB68002283F83C20002300E002231846F8
:1036F0001837BD4680BD00BF020010000000FFFF6C
:1037000080B58CB002AFF8607A601A460B467B81B8
:1037100013463B81FFF740FA7862FB6893F83D302F
:10372000DBB2202B40F017827B6A00931923012221
:103730007C49F86800F080FB0346002B01D002238F
:103740000AE2FB6893F83C30012B01D1022303E22B
:10375000FB68012283F83C20FB681B681B6803F0B0
:103760000103012B07D0FB681B681A68FB681B6804
:1037700042F001021A60FB681B681A68FB681B684C
:1037800022F400621A60FB68222283F83D20FB6865
:10379000102283F83E20FB6800221A64FB687A68D6
:1037A0005A62FB683A895A85FB685B8D9AB2FB685E
:1037B0001A85FB685C4ADA6279897B6A3A6BF86839
:1037C00000F06CFA0346002B01D00123C4E1FB6832
:1037D0001B8D002B13D100233B62FB681B685B69C8
:1037E0003B62FB681B689B693B623B6AFB681B682A
:1037F0001A68FB681B6842F400721A6098E1FB6863
:103800001B8D012B1BD1FB681B681A68FB681B68AA
:1038100022F480621A600023FB61FB681B685B690D
:10382000FB61FB681B689B69FB61FB69FB681B68AC
:103830001A68FB681B6842F400721A6078E1FB6842
:103840001B8D022B1BD1FB681B681A68FB681B6869
:1038500022F480621A60FB681B681A68FB681B68A8
:1038600042F400621A600023BB61FB681B685B695D
:10387000BB61FB681B689B69BB61BB6958E1FB6866
:103880001B681A68FB681B6842F480621A60002398
:103890007B61FB681B685B697B61FB681B689B69DC
:1038A0007B617B6944E1FB681B8D032B00F2F18097
:1038B000FB681B8D012B23D17A6A396BF86800F005
:1038C00065FC0346002B01D0012345E1FB681B6822
:1038D0001A69FB685B6AD2B21A70FB685B6A5A1C91
:1038E000FB685A62FB681B8D013B9AB2FB681A8524
:1038F000FB685B8D9BB2013B9AB2FB685A8517E16E
:10390000FB681B8D022B4ED17B6A00933B6B002220
:103910000649F86800F090FA0346002B08D001230E
:103920001AE100BF020010000000FFFF04000100C8
:10393000FB681B681A68FB681B6842F400721A6017
:10394000FB681B681A69FB685B6AD2B21A70FB6875
:103950005B6A5A1CFB685A62FB681B8D013B9AB27A
:10396000FB681A85FB685B8D9BB2013B9AB2FB68D2
:103970005A85FB681B681A69FB685B6AD2B21A70C9
:10398000FB685B6A5A1CFB685A62FB681B8D013B33
:103990009AB2FB681A85FB685B8D9BB2013B9AB2B9
:1039A000FB685A85C4E07B6A00933B6B00226C493C
:1039B000F86800F041FA0346002B01D00123CBE068
:1039C000FB681B681A68FB681B6822F480621A6037
:1039D000FB681B681A69FB685B6AD2B21A70FB68E5
:1039E0005B6A5A1CFB685A62FB681B8D013B9AB2EA
:1039F000FB681A85FB685B8D9BB2013B9AB2FB6842
:103A00005A857B6A00933B6B00225549F86800F0A9
:103A100013FA0346002B01D001239DE0FB681B68CD
:103A20001A68FB681B6842F400721A60FB681B6826
:103A30001A69FB685B6AD2B21A70FB685B6A5A1C2F
:103A4000FB685A62FB681B8D013B9AB2FB681A85C2
:103A5000FB685B8D9BB2013B9AB2FB685A85FB68A1
:103A60001B681A69FB685B6AD2B21A70FB685B6AF2
:103A70005A1CFB685A62FB681B8D013B9AB2FB68BB
:103A80001A85FB685B8D9BB2013B9AB2FB685A8535
:103A90004EE07A6A396BF86800F078FB0346002B39
:103AA00001D0012358E0FB681B681A69FB685B6A58
:103AB000D2B21A70FB685B6A5A1CFB685A62FB68D8
:103AC0001B8D013B9AB2FB681A85FB685B8D9BB22C
:103AD000013B9AB2FB685A85FB681B685B6903F07F
:103AE0000403042B24D1FB681B8D032B07D1FB6837
:103AF0001B681A68FB681B6822F480621A60FB6806
:103B00001B681A69FB685B6AD2B21A70FB685B6A51
:103B10005A1CFB685A62FB681B8D013B9AB2FB681A
:103B20001A85FB685B8D9BB2013B9AB2FB685A8594
:103B3000FB681B8D002B7FF4B6AEFB68202283F858
:103B40003D20FB68002283F83E20FB68002283F8BA
:103B50003C20002300E0022318462837BD4680BDE4
:103B60000400010080B483B000AF78607B6893F8F4
:103B70003D30DBB218460C37BD465DF8047B70471C
:103B800080B483B000AF78607B681B6C18460C373C
:103B9000BD465DF8047B704780B588B002AFF86021
:103BA0007A603B600B467B81FB68DB6A7B617B69EB
:103BB000082B06D07B69012B03D07B6913F5803F6E
:103BC00008D1FB681B681A68FB681B6842F48072A6
:103BD0001A600BE0FB681B6B122B07D1FB681B689C
:103BE0001A68FB681B6842F480721A603B68009395
:103BF0007B6800224FF00111F86800F01DF90346C0
:103C0000002B0DD0FB681B681B6803F48073B3F5B1
:103C1000807F03D1FB684FF400721A64032335E000
:103C2000FB681B69B3F5804F08D17B89DBB21A466C
:103C3000FB681B6802F0FE021A611BE07B89DB1146
:103C4000DBB203F00603DBB263F00F03DAB2FB680A
:103C50001B681A613B687A680E49F86800F066F9DB
:103C60000346002B01D0012310E07B89DAB2FB6808
:103C70001B681A613B687A680749F86800F056F9D2
:103C80000346002B01D0012300E00023184618371B
:103C9000BD4680BD080001000200010080B588B06B
:103CA00002AFF8607A603B600B467B81FB68DB6AA1
:103CB0007B61FB681B681A68FB681B6842F48062C2
:103CC0001A607B69082B06D07B69012B03D07B69C6
:103CD00013F5803F08D1FB681B681A68FB681B68F6
:103CE00042F480721A600BE0FB681B6B112B07D14A
:103CF000FB681B681A68FB681B6842F480721A60D4
:103D00003B6800937B6800224FF00111F86800F0D7
:103D100093F80346002B0DD0FB681B681B6803F467
:103D20008073B3F5807F03D1FB684FF400721A648F
:103D3000032379E0FB681B69B3F5804F08D17B89C9
:103D4000DBB243F00103DAB2FB681B681A615FE083
:103D50007B89DB11DBB203F00603DBB263F00F03F8
:103D6000DAB2FB681B681A613B687A683049F86808
:103D700000F0DCF80346002B01D0012354E07B89DE
:103D8000DAB2FB681B681A613B687A682949F868EF
:103D900000F0CCF80346002B01D0012344E00023BF
:103DA0003B61FB681B685B693B61FB681B689B6947
:103DB0003B613B69FB681B681A68FB681B6842F43F
:103DC00080721A603B6800937B6800224FF00111FB
:103DD000F86800F031F80346002B0DD0FB681B6833
:103DE0001B6803F48073B3F5807F03D1FB684FF445
:103DF00000721A64032317E07B89DB11DBB203F046
:103E00000603DBB263F00E03DAB2FB681B681A61CB
:103E10003B687A680749F86800F088F80346002B89
:103E200001D0012300E0002318461837BD4680BDAD
:103E3000080001000200010080B584B000AFF86006
:103E4000B9603B601346FB7148E03B68B3F1FF3F4C
:103E500044D0FEF7A1FE0246BB69D31A3A689A42E3
:103E600002D33B68002B39D1BB681B0CDBB2012BA2
:103E70000DD1FB681B685B69DA43BB6813409BB2DA
:103E8000002B0CBF01230023DBB21A460CE0FB68B9
:103E90001B689B69DA43BB6813409BB2002B0CBFC5
:103EA00001230023DBB21A46FB799A4216D1FB6844
:103EB00000221A63FB68202283F83D20FB68002261
:103EC00083F83E20FB681B6C43F02002FB681A64F9
:103ED000FB68002283F83C20012323E0BB681B0C15
:103EE000DBB2012B0DD1FB681B685B69DA43BB6851
:103EF00013409BB2002B0CBF01230023DBB21A46F8
:103F00000CE0FB681B689B69DA43BB6813409BB2FB
:103F1000002B0CBF01230023DBB21A46FB799A4227
:103F200093D0002318461037BD4680BD80B584B0BD
:103F300000AFF860B9607A603B6071E0FB681B68B5
:103F40005B6903F48063B3F5806F23D1FB681B6862
:103F50001A68FB681B6842F400721A60FB681B68F1
:103F60006FF480625A61FB6800221A63FB682022AA
:103F700083F83D20FB68002283F83E20FB681B6C21
:103F800043F00402FB681A64FB68002283F83C20BB
:103F9000012367E07B68B3F1FF3F41D0FEF7FCFDF2
:103FA00002463B68D31A7A689A4202D37B68002B98
:103FB00036D1BB681B0CDBB2012B0CD1FB681B6834
:103FC0005B69DA43BB6813409BB2002B14BF01232B
:103FD0000023DBB20BE0FB681B689B69DA43BB681C
:103FE00013409BB2002B14BF01230023DBB2002B34
:103FF00016D0FB6800221A63FB68202283F83D205C
:10400000FB68002283F83E20FB681B6C43F0200213
:10401000FB681A64FB68002283F83C20012321E03E
:10402000BB681B0CDBB2012B0CD1FB681B685B6906
:10403000DA43BB6813409BB2002B14BF012300235B
:10404000DBB20BE0FB681B689B69DA43BB6813407B
:104050009BB2002B14BF01230023DBB2002B7FF4A3
:104060006DAF002318461037BD4680BD80B584B0C3
:1040700000AFF860B9607A6034E0F86800F0E3F807
:104080000346002B01D0012334E0BB68B3F1FF3FAE
:1040900028D0FEF781FD02467B68D31ABA689A429F
:1040A00002D3BB68002B1DD1FB681B685B6903F062
:1040B0008003802B16D0FB6800221A63FB68202245
:1040C00083F83D20FB68002283F83E20FB681B6CD0
:1040D00043F02002FB681A64FB68002283F83C204E
:1040E000012307E0FB681B685B6903F08003802BFA
:1040F000C3D1002318461037BD4680BD80B584B0BB
:1041000000AFF860B9607A6034E0F86800F09BF8BE
:104110000346002B01D0012334E0BB68B3F1FF3F1D
:1041200028D0FEF739FD02467B68D31ABA689A4256
:1041300002D3BB68002B1DD1FB681B685B6903F0D1
:104140000403042B16D0FB6800221A63FB682022AC
:1041500083F83D20FB68002283F83E20FB681B6C3F
:1041600043F02002FB681A64FB68002283F83C20BD
:10417000012307E0FB681B685B6903F00403042B61
:10418000C3D1002318461037BD4680BD80B584B02A
:1041900000AFF860B9607A6049E0FB681B685B6952
:1041A00003F01003102B19D1FB681B686FF010028D
:1041B0005A61FB6800221A63FB68202283F83D20C5
:1041C000FB68002283F83E20FB681A6CFB681A64C7
:1041D000FB68002283F83C20012330E0FEF7DCFC82
:1041E00002467B68D31ABA689A4202D3BB68002B96
:1041F0001DD1FB681B685B6903F04003402B16D0A0
:10420000FB6800221A63FB68202283F83D20FB68CC
:10421000002283F83E20FB681B6C43F02002FB6801
:104220001A64FB68002283F83C20012307E0FB6846
:104230001B685B6903F04003402BAED10023184696
:104240001037BD4680BD80B483B000AF78607B6816
:104250001B685B6903F48063B3F5806F1BD17B68D7
:104260001B686FF480625A617B6800221A637B6866
:10427000202283F83D207B68002283F83E207B6863
:104280001B6C43F004027B681A647B68002283F88D
:104290003C20012300E0002318460C37BD465DF8A2
:1042A000047B704780B586B000AF78607B68002BD8
:1042B00001D1012367E27B681B6803F00103002B37
:1042C00075D0884B9B6803F00C03042B0CD0854BF6
:1042D0009B6803F00C03082B12D1824B5B6803F43C
:1042E0008003B3F5800F0BD17E4B1B6803F40033C2
:1042F000002B5BD07B685B68002B57D1012342E227
:104300007B685B68B3F5803F06D1764B1B68754AC6
:1043100043F4803313601DE07B685B68B3F5A02F26
:104320000CD1704B1B686F4A43F4802313606D4BB4
:104330001B686C4A43F4803313600BE0694B1B68C5
:10434000684A23F480331360664B1B68654A23F484
:10435000802313607B685B68002B13D0FEF71CFC86
:10436000386108E0FEF718FC02463B69D31A642B5B
:1043700001D9032307E25B4B1B6803F40033002BD6
:10438000F0D014E0FEF708FC386108E0FEF704FC0A
:1043900002463B69D31A642B01D90323F3E1514B45
:1043A0001B6803F40033002BF0D100E000BF7B68F2
:1043B0001B6803F00203002B63D04A4B9B6803F099
:1043C0000C03002B0BD0474B9B6803F00C03082B0E
:1043D0001CD1444B5B6803F48003002B16D1414B86
:1043E0001B6803F00203002B05D07B68DB68012B00
:1043F00001D00123C7E13B4B1B6823F0F8027B6827
:104400001B69DB00374913430B603AE07B68DB68CC
:10441000002B20D0344B01221A60FEF7BDFB38611F
:1044200008E0FEF7B9FB02463B69D31A022B01D91B
:104430000323A8E12B4B1B6803F00203002BF0D0F1
:10444000284B1B6823F0F8027B681B69DB002549B9
:1044500013430B6015E0244B00221A60FEF79CFB0F
:10446000386108E0FEF798FB02463B69D31A022B3D
:1044700001D9032387E11B4B1B6803F00203002BC8
:10448000F0D17B681B6803F00803002B36D07B68F3
:104490005B69002B16D0154B01221A60FEF77CFBDE
:1044A000386108E0FEF778FB02463B69D31A022B1D
:1044B00001D9032367E10B4B5B6F03F00203002B71
:1044C000F0D01BE0094B00221A60FEF765FB386153
:1044D0000EE0FEF761FB02463B69D31A022B07D9B7
:1044E000032350E10038024000004742800E47425B
:1044F000884B5B6F03F00203002BEAD17B681B68DB
:1045000003F00403002B00F097800023FB75814B20
:104510001B6C03F08053002B0FD10023BB607D4B3D
:104520001B6C7C4A43F0805313647A4B1B6C03F082
:104530008053BB60BB680123FB75774B1B6803F49A
:104540008073002B18D1744B1B68734A43F480733B
:104550001360FEF721FB386108E0FEF71DFB024601
:104560003B69D31A022B01D903230CE16A4B1B6868
:1045700003F48073002BF0D07B689B68012B06D17D
:10458000644B1B6F634A43F0010313671CE07B68B5
:104590009B68052B0CD15F4B1B6F5E4A43F00403F5
:1045A00013675C4B1B6F5B4A43F0010313670BE01F
:1045B000584B1B6F574A23F001031367554B1B6F72
:1045C000544A23F0040313677B689B68002B15D0C3
:1045D000FEF7E2FA38610AE0FEF7DEFA02463B69CE
:1045E000D31A41F28832934201D90323CBE0494BDD
:1045F0001B6F03F00203002BEED014E0FEF7CCFAA1
:1046000038610AE0FEF7C8FA02463B69D31A41F264
:104610008832934201D90323B5E03E4B1B6F03F070
:104620000203002BEED1FB7D012B05D1394B1B6C16
:10463000384A23F0805313647B689B69002B00F099
:10464000A180344B9B6803F00C03082B5CD07B6883
:104650009B69022B41D1314B00221A60FEF79CFA74
:10466000386108E0FEF798FA02463B69D31A022B3C
:1046700001D9032387E0274B1B6803F00073002B4D
:10468000F0D17B68DA697B681B6A1A437B685B6AD6
:104690009B011A437B689B6A5B08013B1B041A431E
:1046A0007B68DB6A1B061B4913434B601B4B0122D3
:1046B0001A60FEF771FA386108E0FEF76DFA0246FB
:1046C0003B69D31A022B01D903235CE0114B1B6811
:1046D00003F00073002BF0D054E0104B00221A605E
:1046E000FEF75AFA386108E0FEF756FA02463B69CF
:1046F000D31A022B01D9032345E0064B1B6803F0B4
:104700000073002BF0D13DE07B689B69012B07D142
:10471000012338E00038024000700040600047424A
:104720001B4B5B68FB607B689B69012B28D0FB6897
:1047300003F480027B68DB699A4221D1FB6803F0B5
:104740003F027B681B6A9A421AD1FA6847F6C07327
:1047500013407A68526A9201934211D1FB6803F4C4
:1047600040327B689B6A5B08013B1B049A4207D17D
:10477000FB6803F070627B68DB6A1B069A4201D01B
:10478000012300E0002318461837BD4680BD00BF56
:104790000038024080B584B000AF786039607B6833
:1047A000002B01D10123CCE0684B1B6803F0070309
:1047B0003A689A420CD9654B3A68D2B21A70634B88
:1047C0001B6803F007033A689A4201D00123B8E05E
:1047D0007B681B6803F00203002B20D07B681B68FA
:1047E00003F00403002B05D0594B9B68584A43F44F
:1047F000E05393607B681B6803F00803002B05D02F
:10480000534B9B68524A43F460439360504B9B6800
:1048100023F0F0027B689B684D4913438B607B68F3
:104820001B6803F00103002B44D07B685B68012BFD
:1048300007D1474B1B6803F40033002B19D1012328
:104840007FE07B685B68022B03D07B685B68032B8F
:1048500007D13F4B1B6803F00073002B09D10123E4
:104860006FE03B4B1B6803F00203002B01D10123D7
:1048700067E0374B9B6823F003027B685B68344931
:1048800013438B60FEF788F9F8600AE0FEF784F9BD
:104890000246FB68D31A41F28832934201D90323BE
:1048A0004FE02B4B9B6803F00C027B685B689B001E
:1048B0009A42EBD1254B1B6803F007033A689A42F2
:1048C0000CD2224B3A68D2B21A70204B1B6803F00C
:1048D00007033A689A4201D0012332E07B681B68E3
:1048E00003F00403002B08D0194B9B6823F4E0521B
:1048F0007B68DB68164913438B607B681B6803F099
:104900000803002B09D0124B9B6823F460427B689C
:104910001B69DB000E4913438B6000F021F802464F
:104920000B4B9B681B0903F00F030A49CB5C22FA6F
:1049300003F3094A1360094B1B681846FEF7E8F8B1
:10494000002318461037BD4680BD00BF003C024022
:104950000038024020B800080000002004000020B9
:104960002DE9B04F90B000AF00237B630023FB63C1
:1049700000233B630023BB63594B9B6803F00C038C
:10498000082B0DD0082B00F2A180002B02D0042BA5
:1049900003D09BE0534BBB639BE0534BBB6398E05E
:1049A0004F4B5B6803F03F037B634D4B5B6803F445
:1049B0008003002B28D04A4B5B689B0900223B6296
:1049C0007A623B6AC3F308000021474B03FB01F204
:1049D000002300FB03F31344434AA0FB0212FA62D4
:1049E0000A46BA62FA6A1344FB627B6B0022BB611F
:1049F000FA61D7E90623D7E90A01FCF74DF9024627
:104A00000B461346FB6353E0354B5B689B09002262
:104A10003B617A613B69C3F3080A4FF0000B5246D1
:104A20005B464FF000004FF00001590141EAD261AE
:104A3000500102460B46B2EB0A0863EB0B094FF03C
:104A400000024FF000034FEA891343EA98634FEAEC
:104A50008812B2EB080463EB09054FF000024FF037
:104A60000003EB0043EA5473E20014461D4614EBC6
:104A70000A033B6045EB0B037B604FF000024FF0F5
:104A80000003D7E9004529468B02214643EA9153AA
:104A900021468A02104619467B6B0022BB60FA60F1
:104AA000D7E90223FCF7F8F802460B461346FB63EE
:104AB0000B4B5B681B0C03F0030301335B003B6390
:104AC000FA6B3B6BB2FBF3F3BB6302E0054BBB63DA
:104AD00000BFBB6B18464037BD46BDE8B08F00BF76
:104AE000003802400024F40040787D0180B400AF1B
:104AF000034B1B681846BD465DF8047B704700BF3A
:104B00000000002080B500AFFFF7F0FF0246054B24
:104B10009B689B0A03F007030349CB5C22FA03F36B
:104B2000184680BD0038024030B8000880B500AF9C
:104B3000FFF7DCFF0246054B9B685B0B03F00703A6
:104B40000349CB5C22FA03F3184680BD00380240CB
:104B500030B8000880B582B000AF78607B68002B69
:104B600001D1012341E07B6893F83D30DBB2002B9B
:104B700006D17B68002283F83C207868FDF746FD6B
:104B80007B68022283F83D207B681A687B680433C7
:104B90001946104600F0A4FB7B68012283F84620EA
:104BA0007B68012283F83E207B68012283F83F2046
:104BB0007B68012283F840207B68012283F8412032
:104BC0007B68012283F842207B68012283F843201E
:104BD0007B68012283F844207B68012283F845200A
:104BE0007B68012283F83D20002318460837BD4624
:104BF00080BD000080B485B000AF78607B6893F81A
:104C00003D30DBB2012B01D0012344E07B6802225E
:104C100083F83D207B681B68DA687B681B6842F07C
:104C20000102DA607B681B681E4A934218D07B68D9
:104C30001B68B3F1804F13D07B681B681A4A9342FC
:104C40000ED07B681B68194A934209D07B681B68A9
:104C5000174A934204D07B681B68164A934211D1CD
:104C60007B681B689B6803F00703FB60FB68062BEF
:104C700010D07B681B681A687B681B6842F00102D1
:104C80001A6007E07B681B681A687B681B6842F043
:104C900001021A60002318461437BD465DF8047BF4
:104CA000704700BF000001400004004000080040C1
:104CB000000C00400040014080B586B000AF786035
:104CC00039607B68002B01D1012397E07B6893F862
:104CD0003D30DBB2002B06D17B68002283F83C20FC
:104CE0007868FDF7A5FB7B68022283F83D207B688E
:104CF0001B689B687A68126823F4804323F00703DB
:104D000093607B681A687B6804331946104600F08C
:104D1000E7FA7B681B689B687B617B681B689B6903
:104D20003B617B681B681B6AFB603B681B687A6998
:104D300013437B613B6923F4407323F003033B611E
:104D40003B689A683B689B691B0213433A691343AB
:104D50003B613B6923F4406323F00C033B613B69F7
:104D600023F4704323F0F0033B613B68DA683B684F
:104D7000DB691B0213433A6913433B613B681B69C0
:104D80001A013B681B6A1B0313433A6913433B61D7
:104D9000FB6823F02203FB60FB6823F08803FB60C1
:104DA0003B685A683B685B691B011343FA6813430D
:104DB000FB607B681B687A699A607B681B683A694C
:104DC0009A617B681B68FA681A627B68012283F823
:104DD00046207B68012283F83E207B68012283F80D
:104DE0003F207B68012283F842207B68012283F800
:104DF00043207B68012283F83D20002318461837A2
:104E0000BD4680BD80B584B000AF786039607B68F6
:104E100093F83E30FB737B6893F83F30BB737B683D
:104E200093F842307B737B6893F843303B733B6865
:104E3000002B10D1FB7B012B02D17B7B012B01D0FE
:104E4000012369E07B68022283F83E207B6802220E
:104E500083F8422031E03B68042B10D1BB7B012B4F
:104E600002D13B7B012B01D0012355E07B6802225C
:104E700083F83F207B68022283F843201DE0FB7B00
:104E8000012B08D1BB7B012B05D17B7B012B02D1F0
:104E90003B7B012B01D001233EE07B68022283F89B
:104EA0003E207B68022283F83F207B68022283F841
:104EB00042207B68022283F843203B68002B03D00A
:104EC0003B68042B08D00FE07B681B68012200219F
:104ED000184600F02BFB16E07B681B6801220421BA
:104EE000184600F023FB0EE07B681B6801220021BE
:104EF000184600F01BFB7B681B6801220421184642
:104F000000F014FB00BF7B681B681A687B681B6895
:104F100042F001021A60002318461037BD4680BDDA
:104F200080B584B000AF78607B681B68DB68FB608D
:104F30007B681B681B69BB60BB6803F00203002B26
:104F400020D0FB6803F00203002B1BD07B681B689A
:104F50006FF002021A617B6801221A777B681B6876
:104F60009B6903F00303002B03D0786800F099F9E4
:104F700005E0786800F08BF9786800F09CF97B68B0
:104F800000221A77BB6803F00403002B20D0FB68D3
:104F900003F00403002B1BD07B681B686FF0040236
:104FA0001A617B6802221A777B681B689B6903F48D
:104FB0004073002B03D0786800F073F905E078683F
:104FC00000F065F9786800F076F97B6800221A77BE
:104FD000BB6803F00803002B20D0FB6803F0080334
:104FE000002B1BD07B681B686FF008021A617B687E
:104FF00004221A777B681B68DB6903F00303002B2C
:1050000003D0786800F04DF905E0786800F03FF9CA
:10501000786800F050F97B6800221A77BB6803F0CB
:105020001003002B20D0FB6803F01003002B1BD0D3
:105030007B681B686FF010021A617B6808221A7780
:105040007B681B68DB6903F44073002B03D078682E
:1050500000F027F905E0786800F019F9786800F0A9
:105060002AF97B6800221A77BB6803F00103002B42
:105070000CD0FB6803F00103002B07D07B681B6892
:105080006FF001021A617868FCF7E2F9BB6803F07F
:105090008003002B0CD0FB6803F08003002B07D0AB
:1050A0007B681B686FF080021A61786800F0DCFA98
:1050B000BB6803F04003002B0CD0FB6803F04003F7
:1050C000002B07D07B681B686FF040021A6178687C
:1050D00000F0FBF8BB6803F02003002B0CD0FB684A
:1050E00003F02003002B07D07B681B686FF02002C1
:1050F0001A61786800F0AEFA00BF1037BD4680BD77
:1051000080B584B000AF786039600023FB737B68A2
:1051100093F83C30012B01D10223B4E07B680122DB
:1051200083F83C207B68022283F83D207B681B6863
:105130009B68BB60BB6823F07703BB60BB6823F44C
:105140007F43BB607B681B68BA689A603B681B68DA
:10515000B3F5005F3ED0B3F5005F00F28780B3F592
:10516000805F00F08680B3F5805F7FD8702B1AD007
:10517000702B7BD8602B50D0602B77D8502B3CD035
:10518000502B73D8402B58D0402B6FD8302B64D085
:10519000302B6BD8202B60D0202B67D8002B5CD015
:1051A000102B5AD062E07B6818683B6899683B68AE
:1051B0005A683B68DB6800F099F97B681B689B685C
:1051C000BB60BB6843F07703BB607B681B68BA6851
:1051D0009A604FE07B6818683B6899683B685A683A
:1051E0003B68DB6800F082F97B681B689A687B6823
:1051F0001B6842F480429A603CE07B6818683B6818
:1052000059683B68DB681A4600F0F6F87B681B6853
:105210005021184600F04FF92CE07B6818683B6875
:1052200059683B68DB681A4600F015F97B681B6813
:105230006021184600F03FF91CE07B6818683B6865
:1052400059683B68DB681A4600F0D6F87B681B6833
:105250004021184600F02FF90CE07B681A683B6883
:105260001B681946104600F026F903E00123FB7382
:1052700000E000BF7B68012283F83D207B680022AC
:1052800083F83C20FB7B18461037BD4680BD80B4B8
:1052900083B000AF786000BF0C37BD465DF8047B7B
:1052A000704780B483B000AF786000BF0C37BD4654
:1052B0005DF8047B704780B483B000AF786000BFB6
:1052C0000C37BD465DF8047B704780B483B000AFF7
:1052D000786000BF0C37BD465DF8047B7047000066
:1052E00080B485B000AF786039607B681B68FB6074
:1052F0007B683A4A93420FD07B68B3F1804F0BD062
:105300007B68374A934207D07B68364A934203D082
:105310007B68354A934208D1FB6823F07003FB6039
:105320003B685B68FA681343FB607B682B4A9342D7
:105330001BD07B68B3F1804F17D07B68284A93421B
:1053400013D07B68274A93420FD07B68264A93424A
:105350000BD07B68254A934207D07B68244A93424E
:1053600003D07B68234A934208D1FB6823F440733F
:10537000FB603B68DB68FA681343FB60FB6823F063
:1053800080023B685B691343FB607B68FA681A60C4
:105390003B689A687B68DA623B681A687B689A6245
:1053A0007B680E4A934203D13B681A697B681A6393
:1053B0007B6801225A617B681B6903F00103012BA2
:1053C00005D17B681B6923F001027B681A6100BF6D
:1053D0001437BD465DF8047B704700BF00000140F4
:1053E0000004004000080040000C00400040014064
:1053F000004401400048014080B487B000AFF8602D
:10540000B9607A60FB681B6A7B61FB681B6A23F0EA
:105410000102FB681A62FB689B693B613B6923F0F0
:10542000F0033B617B681B013A6913433B617B6975
:1054300023F00A037B617A69BB6813437B61FB68D5
:105440003A699A61FB687A691A6200BF1C37BD46E7
:105450005DF8047B704780B487B000AFF860B96036
:105460007A60FB681B6A7B61FB681B6A23F0100291
:10547000FB681A62FB689B693B613B6923F47043DC
:105480003B617B681B033A6913433B617B6923F0F3
:10549000A0037B61BB681B017A6913437B61FB68D6
:1054A0003A699A61FB687A691A6200BF1C37BD4687
:1054B0005DF8047B704780B485B000AF78603960D8
:1054C0007B689B68FB60FB6823F07003FB603A68B5
:1054D000FB68134343F00703FB607B68FA689A603C
:1054E00000BF1437BD465DF8047B704780B487B0B9
:1054F00000AFF860B9607A603B60FB689B687B61D5
:105500007B6923F47F437B613B681A027B681A4303
:10551000BB6813437A6913437B61FB687A699A60BD
:1055200000BF1C37BD465DF8047B704780B487B070
:1055300000AFF860B9607A60BB6803F01F03012216
:1055400002FA03F37B61FB681A6A7B69DB431A404A
:10555000FB681A62FB681A6ABB6803F01F0379686C
:1055600001FA03F31A43FB681A6200BF1C37BD46F9
:105570005DF8047B7047000080B485B000AF7860B0
:1055800039607B6893F83C30012B01D1022350E055
:105590007B68012283F83C207B68022283F83D204F
:1055A0007B681B685B68FB607B681B689B68BB60F3
:1055B000FB6823F07003FB603B681B68FA681343C9
:1055C000FB607B681B68FA685A607B681B681C4A32
:1055D000934218D07B681B68B3F1804F13D07B686F
:1055E0001B68184A93420ED07B681B68164A934288
:1055F00009D07B681B68154A934204D07B681B68FE
:10560000134A93420CD1BB6823F08003BB603B6814
:105610005B68BA681343BB607B681B68BA689A60B2
:105620007B68012283F83D207B68002283F83C20C0
:10563000002318461437BD465DF8047B704700BF51
:10564000000001400004004000080040000C004041
:105650000040014080B483B000AF786000BF0C37D9
:10566000BD465DF8047B704780B483B000AF7860BE
:1056700000BF0C37BD465DF8047B704780B582B033
:1056800000AF78607B68002B01D1012342E07B688A
:1056900093F84130DBB2002B06D17B68002283F8FF
:1056A00040207868FCF7DAFF7B68242283F84120E9
:1056B0007B681B68DA687B681B6822F40052DA603A
:1056C000786800F0BDFD7B681B681A697B681B6801
:1056D00022F490421A617B681B685A697B681B68D8
:1056E00022F02A025A617B681B68DA687B681B68B3
:1056F00042F40052DA607B6800225A647B68202200
:1057000083F841207B68202283F842207B680022B6
:105710005A63002318460837BD4680BD80B58AB05D
:1057200002AFF860B9603B601346FB8000237B61E9
:10573000FB6893F84130DBB2202B75D1BB68002B9E
:1057400002D0FB88002B01D101236EE0FB68002210
:105750005A64FB68212283F84120FDF71DFA786125
:10576000FB68FA889A84FB68FA88DA84FB689B688D
:10577000B3F5805F08D1FB681B69002B04D10023BF
:10578000FB61BB68BB6103E0BB68FB610023BB61DD
:105790002EE03B6800937B6900228021F86800F0CE
:1057A0001FFB0346002B05D0FB68202283F8412015
:1057B00003233AE0FB69002B0BD1BB691B881A4617
:1057C000FB681B68C2F308025A60BB690233BB6105
:1057D00007E0FB691A78FB681B685A60FB690133B4
:1057E000FB61FB68DB8C9BB2013B9AB2FB68DA84FD
:1057F000FB68DB8C9BB2002BCBD13B6800937B69B1
:1058000000224021F86800F0EBFA0346002B05D097
:10581000FB68202283F84120032306E0FB68202256
:1058200083F84120002300E0022318462037BD46BC
:1058300080BD80B584B000AFF860B9601346FB80CE
:10584000FB6893F84230DBB2202B12D1BB68002BEF
:1058500002D0FB88002B01D101230BE0FB68002262
:105860001A63FB881A46B968F86800F012FB034611
:1058700000E0022318461037BD4680BD80B5BAB09F
:1058800000AF78607B681B681B68C7F8E4307B68F2
:105890001B68DB68C7F8E0307B681B685B69C7F88A
:1058A000DC300023C7F8D8300023C7F8D430D7F84D
:1058B000E43003F00F03C7F8D830D7F8D830002B06
:1058C0000FD1D7F8E43003F02003002B09D0D7F82C
:1058D000E03003F02003002B03D0786800F0F2FBE7
:1058E0005BE2D7F8D830002B00F0DE80D7F8DC3050
:1058F00003F00103002B06D1D7F8E03003F49073D6
:10590000002B00F0D180D7F8E43003F00103002B26
:105910000BD0D7F8E03003F48073002B05D07B6800
:105920005B6C43F001027B685A64D7F8E43003F003
:105930000403002B0BD0D7F8DC3003F00103002B5D
:1059400005D07B685B6C43F002027B685A64D7F831
:10595000E43003F00203002B0BD0D7F8DC3003F067
:105960000103002B05D07B685B6C43F004027B686D
:105970005A64D7F8E43003F00803002B11D0D7F8AD
:10598000E03003F02003002B05D1D7F8DC3003F022
:105990000103002B05D07B685B6C43F008027B6839
:1059A0005A647B685B6C002B00F0F281D7F8E4301E
:1059B00003F02003002B08D0D7F8E03003F02003D9
:1059C000002B02D0786800F07DFB7B681B685B6968
:1059D00003F04003402B0CBF01230023DBB2C7F8C8
:1059E000D4307B685B6C03F00803002B03D1D7F83D
:1059F000D430002B4FD0786800F085FA7B681B68A4
:105A00005B6903F04003402B41D17B681B68143372
:105A1000C7F89C30D7F89C3053E8003FC7F898305F
:105A2000D7F8983023F04003C7F8D0307B681B6864
:105A30001433D7F8D020C7F8A820C7F8A430D7F877
:105A4000A410D7F8A82041E80023C7F8A030D7F861
:105A5000A030002BD9D17B68DB6B002B13D07B6887
:105A6000DB6B7E4A1A657B68DB6B1846FDF745FAEF
:105A70000346002B16D07B68DB6B1B6D7A68D26BFC
:105A8000104698470EE0786800F094F90AE07868CC
:105A900000F090F906E0786800F08CF97B6800224D
:105AA0005A6475E100BF73E17B681B6B012B40F00A
:105AB0004F81D7F8E43003F01003002B00F0488149
:105AC000D7F8E03003F01003002B00F041810023F1
:105AD000BB607B681B681B68BB607B681B685B687E
