:020000040800F2
:100000000050002005190008091700081117000802
:100010001917000821170008291700080000000020
:100020000000000000000000000000003117000880
:100030003D17000800000000491700085517000888
:100040004D1900084D1900084D1900084D190008F8
:100050004D1900084D1900084D1900084D190008E8
:100060004D1900084D1900084D1900084D190008D8
:100070004D1900084D1900084D1900084D190008C8
:100080004D1900084D1900084D1900084D190008B8
:100090004D1900084D1900084D1900084D190008A8
:1000A0004D1900084D1900084D1900084D19000898
:1000B0004D1900084D1900084D1900084D19000888
:1000C0004D1900084D1900084D1900084D19000878
:1000D0004D1900084D190008611700084D19000856
:1000E0004D1900084D1900084D19000800000000C6
:1000F0000000000000000000000000000000000000
:0C01000000000000000000005FF808F1A3
:1001100010B5054C237833B9044B13B10448AFF341
:1001200000800123237010BDD401002000000000D6
:10013000D068000808B5034B1BB103490348AFF36F
:10014000008008BD00000000D8010020D068000831
:1001500081F0004102E000BF83F0004330B54FEA78
:1001600041044FEA430594EA050F08BF90EA020FE5
:100170001FBF54EA000C55EA020C7FEA645C7FEA78
:10018000655C00F0E2804FEA5454D4EB5555B8BF9B
:100190006D420CDD2C4480EA020281EA030382EA0C
:1001A000000083EA010180EA020281EA0303362D9E
:1001B00088BF30BD11F0004F4FEA01314FF4801C71
:1001C0004CEA113102D0404261EB410113F0004F83
:1001D0004FEA03334CEA133302D0524263EB43033A
:1001E00094EA050F00F0A780A4F10104D5F1200ED8
:1001F0000DDB02FA0EFC22FA05F2801841F1000133
:1002000003FA0EF2801843FA05F359410EE0A5F106
:1002100020050EF1200E012A03FA0EFC28BF4CF037
:10022000020C43FA05F3C01851EBE37101F00045ED
:1002300007D54FF0000EDCF1000C7EEB00006EEBFA
:100240000101B1F5801F1BD3B1F5001F0CD3490884
:100250005FEA30004FEA3C0C04F101044FEA4452DB
:1002600012F5800F80F09A80BCF1004F08BF5FEA62
:10027000500C50F1000041EB045141EA050130BD42
:100280005FEA4C0C404141EB0101013C28BFB1F554
:10029000801FE9D291F0000F04BF01460020B1FA9F
:1002A00081F308BF2033A3F10B03B3F120020CDA72
:1002B0000C3208DD02F1140CC2F10C0201FA0CF050
:1002C00021FA02F10CE002F11402D8BFC2F1200CB5
:1002D00001FA02F120FA0CFCDCBF41EA0C0190406B
:1002E000E41AA2BF01EB0451294330BD6FEA0404B4
:1002F0001F3C1CDA0C340EDC04F11404C4F120029F
:1003000020FA04F001FA02F340EA030021FA04F3B0
:1003100045EA030130BDC4F10C04C4F1200220FA07
:1003200002F001FA04F340EA0300294630BD21FA45
:1003300004F0294630BD94F0000F83F4801306BF0B
:1003400081F480110134013D4EE77FEA645C18BFFF
:100350007FEA655C29D094EA050F08BF90EA020F96
:1003600005D054EA000C04BF1946104630BD91EA8E
:10037000030F1EBF0021002030BD5FEA545C05D191
:100380004000494128BF41F0004130BD14F58004D0
:100390003CBF01F5801130BD01F0004545F0FE4144
:1003A00041F470014FF0000030BD7FEA645C1ABF79
:1003B000194610467FEA655C1CBF0B46024650EAB0
:1003C000013406BF52EA033591EA030F41F40021DC
:1003D00030BD00BF90F0000F04BF0021704730B562
:1003E0004FF4806404F132044FF000054FF0000137
:1003F00050E700BF90F0000F04BF0021704730B5F8
:100400004FF4806404F1320410F0004548BF4042CC
:100410004FF000013EE700BF42004FEAE2014FEA21
:1004200031014FEA02701FBF12F07F4393F07F4FFC
:1004300081F06051704732F07F4208BF704793F0FF
:100440007F4F04BF41F40021704730B54FF4607412
:1004500001F0004521F000411CE700BF50EA010215
:1004600008BF704730B54FF000050AE050EA0102BE
:1004700008BF704730B511F0004502D5404261EB2E
:1004800041014FF4806404F132045FEA915C3FF46F
:10049000D8AE4FF003025FEADC0C18BF03325FEA0C
:1004A000DC0C18BF033202EBDC02C2F1200300FABD
:1004B00003FC20FA02F001FA03FE40EA0E0021FAE2
:1004C00002F11444BDE600BF70B54FF0FF0C4CF4D0
:1004D000E06C1CEA11541DBF1CEA135594EA0C0F82
:1004E00095EA0C0F00F0DEF82C4481EA030621EABD
:1004F0004C5123EA4C5350EA013518BF52EA0335F8
:1005000041F4801143F4801338D0A0FB02CE4FF0A9
:100510000005E1FB02E506F00042E0FB03E54FF0D9
:100520000006E1FB03569CF0000F18BF4EF0010ED1
:10053000A4F1FF04B6F5007F64F5407404D25FEACD
:100540004E0E6D4146EB060642EAC62141EA555180
:100550004FEAC52040EA5E504FEACE2EB4F1FD0CC2
:1005600088BFBCF5E06F1ED8BEF1004F08BF5FEA40
:10057000500E50F1000041EB045170BD06F00046F2
:1005800046EA010140EA020081EA0301B4EB5C049F
:10059000C2BFD4EB0C0541EA045170BD41F4801197
:1005A0004FF0000E013C00F3AB8014F1360FDEBFBC
:1005B000002001F0004170BDC4F10004203C35DA98
:1005C0000C341BDC04F11404C4F1200500FA05F31B
:1005D00020FA04F001FA05F240EA020001F00042BC
:1005E00021F0004110EBD37021FA04F642EB060132
:1005F0005EEA430E08BF20EAD37070BDC4F10C045C
:10060000C4F1200500FA04F320FA05F001FA04F21F
:1006100040EA020001F0004110EBD37041F100010B
:100620005EEA430E08BF20EAD37070BDC4F1200516
:1006300000FA05F24EEA020E20FA04F301FA05F27E
:1006400043EA020321FA04F001F0004121FA04F226
:1006500020EA020000EBD3705EEA430E08BF20EAF6
:10066000D37070BD94F0000F0FD101F00046400030
:1006700041EB010111F4801F08BF013CF7D041EAB2
:10068000060195F0000F18BF704703F000465200B6
:1006900043EB030313F4801F08BF013DF7D043EA87
:1006A0000603704794EA0C0F0CEA135518BF95EA3D
:1006B0000C0F0CD050EA410618BF52EA4306D1D1C4
:1006C00081EA030101F000414FF0000070BD50EAE3
:1006D000410606BF1046194652EA430619D094EA6D
:1006E0000C0F02D150EA013613D195EA0C0F05D157
:1006F00052EA03361CBF104619460AD181EA0301AB
:1007000001F0004141F0FE4141F470014FF0000062
:1007100070BD41F0FE4141F4780170BD70B54FF0FD
:10072000FF0C4CF4E06C1CEA11541DBF1CEA13557D
:1007300094EA0C0F95EA0C0F00F0A7F8A4EB05045F
:1007400081EA030E52EA03354FEA013100F0888056
:100750004FEA03334FF0805545EA131343EA12631F
:100760004FEA022245EA111545EA10654FEA0026D4
:100770000EF000419D4208BF964244F1FD0404F58D
:10078000407402D25B084FEA3202B61A65EB0305E9
:100790005B084FEA32024FF480104FF4002CB6EBA6
:1007A000020E75EB030E22BFB61A754640EA0C0026
:1007B0005B084FEA3202B6EB020E75EB030E22BF66
:1007C000B61A754640EA5C005B084FEA3202B6EBA7
:1007D000020E75EB030E22BFB61A754640EA9C0066
:1007E0005B084FEA3202B6EB020E75EB030E22BF36
:1007F000B61A754640EADC0055EA060E18D04FEAF4
:10080000051545EA16754FEA06164FEAC30343EA93
:1008100052734FEAC2025FEA1C1CC0D111F4801F60
:100820000BD141EA00014FF000004FF0004CB6E759
:1008300011F4801F04BF01430020B4F1FD0C88BFF8
:10084000BCF5E06F3FF6AFAEB5EB030C04BFB6EB03
:10085000020C5FEA500C50F1000041EB045170BDF6
:100860000EF0004E4EEA113114EB5C04C2BFD4EB23
:100870000C0541EA045170BD41F480114FF0000EA7
:10088000013C90E645EA060E8DE60CEA135594EA23
:100890000C0F08BF95EA0C0F3FF43BAF94EA0C0F26
:1008A0000AD150EA01347FF434AF95EA0C0F7FF49B
:1008B00025AF104619462CE795EA0C0F06D152EAEF
:1008C00003353FF4FDAE1046194622E750EA4106D3
:1008D00018BF52EA43067FF4C5AE50EA41047FF4E4
:1008E0000DAF52EA43057FF4EBAE12E74FF0FF3C49
:1008F00006E000BF4FF0010C02E000BF4FF0010C1A
:100900004DF804CD4FEA410C7FEA6C5C4FEA430C92
:1009100018BF7FEA6C5C1BD001B050EA410C0CBFE1
:1009200052EA430C91EA030F02BF90EA020F002043
:10093000704710F1000F91EA030F58BF994208BFAA
:1009400090422CBFD8176FEAE37040F00100704767
:100950004FEA410C7FEA6C5C02D150EA013C07D1BE
:100960004FEA430C7FEA6C5CD6D152EA033CD3D009
:100970005DF8040B704700BF8446104662468C4603
:100980001946634600E000BF01B5FFF7B7FF002836
:1009900048BF10F1000F01BD4DF808EDFFF7F4FF5F
:1009A0000CBF012000205DF808FB00BF4DF808EDEA
:1009B000FFF7EAFF34BF012000205DF808FB00BF0D
:1009C0004DF808EDFFF7E0FF94BF012000205DF82F
:1009D00008FB00BF4DF808EDFFF7CEFF94BF0120E4
:1009E00000205DF808FB00BF4DF808EDFFF7C4FFDD
:1009F00034BF012000205DF808FB00BF4A0011D27F
:100A000012F5001211D20DD56FF47873B3EB625268
:100A10000ED44FEAC12343F0004343EA505323FA74
:100A200002F070474FF00000704750EA013002D1E9
:100A30004FF0FF3070474FF0000070474FEA41021F
:100A4000B2F1E04324BFB3F5001CDCF1FE5C0DD92C
:100A500001F0004C4FEAC0024CEA5070B2F1004F76
:100A600040EB830008BF20F00100704711F0804F79
:100A700021D113F13872BCBF01F00040704741F43E
:100A800080114FEA5252C2F11802C2F1200C10FA42
:100A90000CF320FA02F018BF40F001004FEAC12326
:100AA0004FEAD32303FA0CFC40EA0C0023FA02F3CA
:100AB0004FEA4303CCE77FEA625307D150EA0133A0
:100AC0001EBF4FF0FE4040F44000704701F0004070
:100AD00040F0FE4040F40000704700BF4FEA400283
:100AE000B2F1FE4F0FD34FF09E03B3EB12620DD95C
:100AF0004FEA002343F0004310F0004F23FA02F0C6
:100B000018BF404270474FF00000704712F1610F6C
:100B100001D1420205D110F0004008BF6FF0004043
:100B200070474FF00000704738B50022002304469C
:100B30000D46FFF73BFF28B920462946BDE838405F
:100B400000F00AB8204605F1004100F005F84042E7
:100B500061EB410138BD00BFD0B500220B4B06460A
:100B60000F46FFF7B1FCFFF749FF0446FFF732FCE1
:100B70000022074BFFF7A8FC02460B4630463946D9
:100B8000FFF7EAFAFFF73AFF2146D0BD0000F03D3B
:100B90000000F04180B483B000AF786039607B68BA
:100BA000002B08DD184B1B6800225A63164B1B688C
:100BB0007A689A630BE07B6883EAE372A2EBE372E4
:100BC000114B1B685A63104B1B6800229A633B68E9
:100BD000002B08DD0C4B1B680022DA630A4B1B68F4
:100BE0003A681A640BE03B6883EAE372A2EBE372B3
:100BF000054B1B68DA63044B1B6800221A6400BFB4
:100C00000C37BD4680BC70474802002080B483B0DA
:100C100000AF786039607B68002B08DD184B1B68DB
:100C20007A685A63164B1B6800229A630BE0144BD8
:100C30001B6800225A637B6883EAE372A2EBE372CB
:100C40000F4B1B689A633B68002B08DD0C4B1B683D
:100C50003A68DA630A4B1B6800221A640BE0084BFF
:100C60001B680022DA633B6883EAE372A2EBE3725B
:100C7000034B1B681A6400BF0C37BD4680BC70472D
:100C8000900200200000000090B585B000AF7860B1
:100C90007B681A68B64B1B689A4240F0C881B54B16
:100CA0001B780A2B40F0C5800023BB60B249B348D3
:100CB00003F0EEFEF86014E0F86802F0BFFF0246B1
:100CC0000B46BC68611CB96010461946FFF7B6FEBA
:100CD0000346AB4A42F82430A749002003F0D8FE6F
:100CE000F860FB68002B02D0BB68032BE4DDA34B4C
:100CF0001A78A44B1A70A24B1B681846FFF78CFB9E
:100D000097A3D3E90023FFF709FD02460B461046DF
:100D1000194695A3D3E90023FFF7D6FB02460B46FD
:100D200010461946FFF78AFE0346974A1360944B14
:100D30005B681846FFF770FB89A3D3E90023FFF730
:100D4000EDFC02460B461046194687A3D3E9002363
:100D5000FFF7BAFB02460B4610461946FFF76EFE38
:100D60000346894A5360864B9B681846FFF754FB3D
:100D70007BA3D3E90023FFF7D1FC02460B461046C4
:100D8000194679A3D3E90023FFF79EFB02460B46E1
:100D900010461946FFF752FE03467B4A9360784B94
:100DA000DB681846FFF738FB6DA3D3E90023FFF794
:100DB000B5FC02460B46104619466BA3D3E9002347
:100DC000FFF782FB02460B4610461946FFF736FE38
:100DD00003466D4AD3606C4B1B681846FFF77EFED6
:100DE0000446694BDB681846FFF778FE0346194650
:100DF0002046FFF7CFFE644B5B681846FFF76EFE98
:100E00000446614B9B681846FFF768FE0346194687
:100E10002046FFF7FBFE32220021584803F01DFE5A
:100E20005A4B00221A7001225249514802F0CEF961
:100E30000FE0564B1B785A1CD1B2544A11701A4617
:100E40004C4B19784D4B995401224A49484802F0BD
:100E5000BDF94C4B1B78662B0DD1C821C820FFF77C
:100E600099FEC821C820FFF7D1FE01224149404820
:100E700002F0ACF9DBE0434B1B78622B11D16FF031
:100E8000C7016FF0C700FFF785FE6FF0C7016FF075
:100E9000C700FFF7BBFE01223649354802F096F93C
:100EA000C5E0384B1B786C2B0FD1C8216FF0C70001
:100EB000FFF770FE6FF0C701C820FFF7A7FE012201
:100EC0002C492B4802F082F9B1E02E4B1B78722B93
:100ED0000FD16FF0C701C820FFF75CFEC8216FF08B
:100EE000C700FFF793FE01222249214802F06EF964
:100EF0009DE0244B1B78732B0DD100210020FFF7C0
:100F000049FE00210020FFF781FE012219491848FF
:100F100002F05CF98BE01B4B1B78612B0DD1C821D3
:100F20000020FFF737FE0021C820FFF76FFE0122E7
:100F300010490F4802F04AF979E0124B1B78632BF5
:100F400026D10021C820FFF725FEC8210020FFF789
:100F50005DFE01220749064802F038F967E000BF4C
:100F6000992A1895D40927400000000000388F40C6
:100F7000D8020020F0010020E868000804020020E8
:100F8000F401002037020020380200203602002041
:100F9000294B1B78642B0FD100216FF0C700FFF79E
:100FA000F9FD6FF0C7010020FFF730FE0122234951
:100FB000234802F00BF93AE01F4B1B78652B0FD149
:100FC0006FF0C7010020FFF7E5FD00216FF0C700BB
:100FD000FFF71CFE01221949194802F0F7F826E034
:100FE000154B1B78672B0FD16FF0C7016FF0C7004F
:100FF000FFF7D0FDC821C820FFF708FE01220F49E6
:101000000F4802F0E3F812E00B4B1B78682B0ED16F
:10101000C821C820FFF7BEFD6FF0C7016FF0C70001
:10102000FFF7F4FD01220549054802F0CFF800BFA3
:101030001437BD4690BD00BF37020020F0010020EC
:10104000D802002080B500AF00F082FC00F06CF800
:1010500000F0CEF900F0AEF800F026F900F09EF9AD
:1010600000212B4801F092FC0421294801F08EFC5C
:101070000821274801F08AFC0C21254801F086FC54
:101080000021244801F082FC0421224801F07EFC6A
:101090000821204801F07AFC0C211E4801F076FC62
:1010A00001224FF480611C4800F0F8FF01224FF448
:1010B0000061194800F0F2FF01224FF480511648F8
:1010C00000F0ECFF01224FF40051134800F0E6FF5E
:1010D00001224FF48041104800F0E0FF01224FF45C
:1010E00000410D4800F0DAFF01224FF480710B48F7
:1010F00000F0D4FF01224FF40071084800F0CEFF49
:1011000001220749074802F061F800BFFDE700BF70
:101110004802002090020020000C0140000801401D
:10112000F0010020D802002080B590B000AF07F198
:10113000180328220021184603F08FFC3B1D0022D3
:101140001A605A609A60DA601A610123BB614FF439
:101150008033FB6100233B620123BB6202237B637C
:101160004FF48033BB634FF4E013FB6307F11803C4
:10117000184600F0ABFF0346002B01D000F09AF9AF
:101180000F237B600223BB600023FB604FF480636E
:101190003B6100237B613B1D0221184601F018FAD8
:1011A0000346002B01D000F085F900BF4037BD4653
:1011B00080BD000080B58AB000AF07F12003002297
:1011C0001A605A603B1D00221A605A609A60DA6009
:1011D0001A615A619A61324B324A1A60304B472287
:1011E0005A602F4B00229A602D4B40F2E732DA60B2
:1011F0002B4B00221A612A4B00229A61284801F0E9
:1012000075FB0346002B01D000F054F900233B622C
:1012100000237B6207F120031946214801F028FFD3
:101220000346002B01D000F045F960237B600023CA
:10123000BB600023FB6000237B613B1D002219463D
:10124000174801F045FC0346002B01D000F032F9AD
:101250003B1D04221946124801F03AFC0346002BBC
:1012600001D000F027F93B1D082219460C4801F077
:101270002FFC0346002B01D000F01CF93B1D0C2273
:101280001946074801F024FC0346002B01D000F06A
:1012900011F9034800F078F900BF2837BD4680BD3A
:1012A000480200200004004080B58AB000AF07F17A
:1012B000200300221A605A603B1D00221A605A6007
:1012C0009A60DA601A615A619A61324B324A1A6046
:1012D000304B47225A602F4B00229A602D4B40F230
:1012E000E732DA602B4B00221A612A4B00229A6106
:1012F000284801F0FBFA0346002B01D000F0DAF891
:1013000000233B6200237B6207F12003194621483A
:1013100001F0AEFE0346002B01D000F0CBF86023B5
:101320007B600023BB600023FB6000237B613B1DCF
:1013300000221946174801F0CBFB0346002B01D0D1
:1013400000F0B8F83B1D04221946124801F0C0FB1A
:101350000346002B01D000F0ADF83B1D08221946D2
:101360000C4801F0B5FB0346002B01D000F0A2F8B9
:101370003B1D0C221946074801F0AAFB0346002B2F
:1013800001D000F097F8034800F0FEF800BF2837BE
:10139000BD4680BD900200200008004080B500AF2F
:1013A000114B124A1A60104B4FF4E1325A600E4B47
:1013B00000229A600C4B0022DA600B4B00221A616B
:1013C000094B0C225A61084B00229A61064B0022FD
:1013D000DA61054801F0AAFE0346002B01D000F0B7
:1013E00069F800BF80BD00BFD80200200044004063
:1013F00080B588B000AF07F1100300221A605A6070
:101400009A60DA60284B9B69274A43F02003936176
:10141000254B9B6903F02003FB60FB68224B9B6913
:10142000214A43F0040393611F4B9B6903F00403BB
:10143000BB60BB681C4B9B691B4A43F0080393616C
:10144000194B9B6903F008037B607B6800224FF413
:101450007C41164800F022FE00224FF440711448EF
:1014600000F01CFE4FF47C433B6101237B610023B1
:10147000BB610223FB6107F1100319460B4800F022
:1014800089FC4FF440733B6101237B610023BB6106
:101490000223FB6107F110031946054800F07AFCAE
:1014A00000BF2037BD4680BD00100240000C014047
:1014B0000008014080B400AF72B600BF00BFFDE776
:1014C00080B485B000AF154B9B69144A43F001030B
:1014D0009361124B9B6903F00103BB60BB680F4B28
:1014E000DB690E4A43F08053D3610C4BDB6903F098
:1014F00080537B607B680A4B5B68FB60FB6823F072
:10150000E063FB60FB6843F00073FB60044AFB6828
:10151000536000BF1437BD4680BC704700100240C6
:101520000000014080B485B000AF78607B681B6824
:10153000124A93420CD1124BDB69114A43F0020369
:10154000D3610F4BDB6903F00203FB60FB6810E023
:101550007B681B680B4A93420BD1094BDB69084A35
:1015600043F00403D361064BDB6903F00403BB6063
:10157000BB6800BF1437BD4680BC70470004004004
:10158000001002400008004080B58AB000AF7860CB
:1015900007F1180300221A605A609A60DA607B68CB
:1015A0001B682B4A934230D12A4B9B69294A43F04E
:1015B00004039361274B9B6903F004037B617B6900
:1015C000244B9B69234A43F008039361214B9B6999
:1015D00003F008033B613B69C023BB610223FB614D
:1015E00002237B6207F1180319461B4800F0D2FB67
:1015F0000323BB610223FB6102237B6207F1180313
:101600001946164800F0C6FB1DE07B681B68144AAB
:10161000934218D10F4B9B690E4A43F00803936124
:101620000C4B9B6903F00803FB60FB684FF470737D
:10163000BB610223FB6102237B6207F11803194699
:10164000064800F0A7FB00BF2837BD4680BD00BF9D
:10165000000400400010024000080140000C01405E
:101660000008004080B588B000AF786007F1100333
:1016700000221A605A609A60DA607B681B681F4A11
:10168000934237D11E4BDB691D4A43F40033D361CB
:101690001B4BDB6903F40033FB60FB68184B9B6951
:1016A000174A43F004039361154B9B6903F004034D
:1016B000BB60BB6804233B6102237B610323FB61A6
:1016C00007F1100319460F4800F064FB08233B6143
:1016D00000237B610023BB6107F110031946094811
:1016E00000F058FB00220021262000F06AFA262094
:1016F00000F083FA00BF2037BD4680BD00440040A3
:10170000001002400008014080B400AF00BFFDE7B8
:1017100080B400AF00BFFDE780B400AF00BFFDE7BD
:1017200080B400AF00BFFDE780B400AF00BFFDE7AD
:1017300080B400AF00BFBD4680BC704780B400AF2E
:1017400000BFBD4680BC704780B400AF00BFBD463F
:1017500080BC704780B500AF00F040F900BF80BD8D
:1017600080B500AF024801F057FD00BF80BD00BF4B
:10177000D802002080B400AF01231846BD4680BCCB
:10178000704780B582B000AF7860396003F022FA0C
:10179000034616221A604FF0FF3318460837BD463D
:1017A00080BD80B582B000AF78604FF0FF317868BF
:1017B000FFF7E7FF00BFFDE780B586B000AFF86038
:1017C000B9607A6000237B610AE0AFF300800146D4
:1017D000BB685A1CBA60CAB21A707B6901337B615C
:1017E0007A697B689A42F0DB7B6818461837BD46F9
:1017F00080BD80B586B000AFF860B9607A60002324
:101800007B6109E0BB685A1CBA601B781846AFF3CD
:1018100000807B6901337B617A697B689A42F1DBE6
:101820007B6818461837BD4680BD80B483B000AFD2
:1018300078604FF0FF3318460C37BD4680BC7047C8
:1018400080B483B000AF786039603B684FF40052D9
:101850005A60002318460C37BD4680BC704780B4E0
:1018600083B000AF7860012318460C37BD4680BCBA
:10187000704780B485B000AFF860B9607A6000232B
:1018800018461437BD4680BC7047000080B586B04E
:1018900000AF7860144A154BD31A7B617B693B61BA
:1018A000134B1B68002B02D1114B124A1A60104BCC
:1018B0001A687B6813443A699A4207D203F08AF99E
:1018C00003460C221A604FF0FF3309E0084B1B68F7
:1018D000FB60074B1A687B681344054A1360FB687A
:1018E00018461837BD4680BD005000200004000097
:1018F000200300207804002080B400AF00BFBD4664
:1019000080BC7047FFF7F8FF0B480C490C4A0023D6
:1019100002E0D458C4500433C4188C42F9D3094AA5
:10192000094C002301E013600432A242FBD303F010
:1019300057F9FFF787FB704700000020D401002013
:10194000346D0008D401002074040020FEE700007C
:1019500080B500AF084B1B68074A43F010031360C3
:10196000032000F023F90F2000F008F8FFF7A8FD8E
:101970000023184680BD00BF0020024080B582B021
:1019800000AF7860124B1A68124B1B7819464FF45F
:101990007A73B3FBF1F3B2FBF3F3184600F03BF9B3
:1019A0000346002B01D001230EE07B680F2B0AD8E1
:1019B000002279684FF0FF3000F003F9064A7B6897
:1019C0001360002300E0012318460837BD4680BDA0
:1019D00000000020080000200400002080B400AFB8
:1019E000054B1B781A46054B1B681344034A1360CA
:1019F00000BFBD4680BC70470800002024030020C3
:101A000080B400AF024B1B681846BD4680BC7047CF
:101A10002403002080B485B000AF78607B6803F0B9
:101A20000703FB600C4BDB68BB60BA684FF6FF0333
:101A30001340BB60FB681A02BB68134343F0BF63EB
:101A400043F40033BB60044ABB68D36000BF143763
:101A5000BD4680BC704700BF00ED00E080B400AF21
:101A6000044BDB681B0A03F007031846BD4680BC25
:101A7000704700BF00ED00E080B483B000AF0346C4
:101A8000FB7197F90730002B0BDBFB7903F01F028A
:101A9000064997F907305B09012000FA02F241F884
:101AA000232000BF0C37BD4680BC704700E100E03A
:101AB00080B483B000AF03463960FB7197F90730FB
:101AC000002B0ADB3B68DAB20C4997F907301201A8
:101AD000D2B20B4483F800230AE03B68DAB208492B
:101AE000FB7903F00F03043B1201D2B20B441A76C8
:101AF00000BF0C37BD4680BC704700BF00E100E06E
:101B000000ED00E080B489B000AFF860B9607A60A1
:101B1000FB6803F00703FB61FB69C3F10703042BB8
:101B200028BF0423BB61FB690433062B02D9FB6980
:101B3000033B00E000237B614FF0FF32BB6902FAF8
:101B400003F3DA43BB681A407B699A404FF0FF31D8
:101B50007B6901FA03F3D9437B680B4013431846B2
:101B60002437BD4680BC704780B582B000AF786036
:101B70007B68013BB3F1807F01D301230FE00A4A68
:101B80007B68013B53600F214FF0FF30FFF790FF60
:101B9000054B00229A60044B07221A600023184666
:101BA0000837BD4680BD00BF10E000E080B582B0C0
:101BB00000AF78607868FFF72DFF00BF0837BD469B
:101BC00080BD80B586B000AF0346B9607A60FB7314
:101BD00000237B61FFF742FF78617A68B968786912
:101BE000FFF790FF024697F90F3011461846FFF7AE
:101BF0005FFF00BF1837BD4680BD80B582B000AF23
:101C00000346FB7197F907301846FFF735FF00BF11
:101C10000837BD4680BD80B582B000AF7860786877
:101C2000FFF7A2FF034618460837BD4680BD80B4C3
:101C300085B000AF78600023FB737B6893F8213098
:101C4000DBB2022B08D07B6804229A637B680022F7
:101C500083F82020012320E07B681B681A687B68DA
:101C60001B6822F00E021A607B681B681A687B688A
:101C70001B6822F001021A607B681A6C7B68DB6BC0
:101C8000012101FA02F25A607B68012283F82120C7
:101C90007B68002283F82020FB7B18461437BD4662
:101CA00080BC704780B584B000AF78600023FB73C0
:101CB0007B6893F82130DBB2022B05D07B680422CD
:101CC0009A630123FB7351E07B681B681A687B6889
:101CD0001B6822F00E021A607B681B681A687B681A
:101CE0001B6822F001021A607B681B68224A93423B
:101CF00029D07B681B68214A934222D07B681B68ED
:101D00001F4A93421AD07B681B681E4A934212D026
:101D10007B681B681C4A93420AD07B681B681B4A7D
:101D2000934202D14FF480130EE04FF080730BE02A
:101D30004FF4803308E04FF4805305E04FF4807394
:101D400002E0102300E00123114A53607B68012266
:101D500083F821207B68002283F820207B685B6B5E
:101D6000002B03D07B685B6B78689847FB7B184639
:101D70001037BD4680BD00BF080002401C00024075
:101D80003000024044000240580002406C00024013
:101D90000000024080B48BB000AF7860396000234F
:101DA0007B6200233B6269E101227B6A02FA03F352
:101DB000FB613B681B68FA691340BB61BA69FB6948
:101DC0009A4240F058813B685B689A4A93425ED0E1
:101DD000984A934275D8984A934258D0964A93426B
:101DE0006FD8964A934252D0944A934269D8944A03
:101DF00093424CD0924A934263D8924A934246D03F
:101E0000904A93425DD8122B2AD8122B59D801A29E
:101E100052F823F08F1E0008691E00087B1E000880
:101E2000BD1E0008C31E0008C31E0008C31E000814
:101E3000C31E0008C31E0008C31E0008C31E0008FE
:101E4000C31E0008C31E0008C31E0008C31E0008EE
:101E5000C31E0008C31E0008711E0008851E00086E
:101E6000794A934213D02CE03B68DB683B6229E05F
:101E70003B68DB6804333B6224E03B68DB68083383
:101E80003B621FE03B68DB680C333B621AE03B6857
:101E90009B68002B02D104233B6213E03B689B68E4
:101EA000012B05D108233B627B68FA691A6109E0BE
:101EB00008233B627B68FA695A6103E000233B62B6
:101EC00000E000BFBB69FF2B01D87B6801E07B68A5
:101ED00004337B61BB69FF2B02D87B6A9B0002E065
:101EE0007B6A083B9B003B617B691A680F213B6959
:101EF00001FA03F3DB431A40396A3B6901FA03F341
:101F00001A437B691A603B685B6803F08053002BBF
:101F100000F0B1804D4B9B694C4A43F00103936143
:101F20004A4B9B6903F00103BB60BB68484A7B6A6C
:101F30009B08023352F82330FB607B6A03F00303F3
:101F40009B000F2202FA03F3DB43FA681340FB60A5
:101F50007B68404A934213D07B683F4A93420DD03E
:101F60007B683E4A934207D07B683D4A934201D149
:101F7000032306E0042304E0022302E0012300E03F
:101F800000237A6A02F0030292009340FA68134336
:101F9000FB602F497B6A9B080233FA6841F82320D3
:101FA0003B685B6803F48013002B06D02D4B9A68C6
:101FB0002C49BB6913438B6006E02A4B9A68BB69C6
:101FC000DB43284913408B603B685B6803F40013D4
:101FD000002B06D0234BDA682249BB691343CB6040
:101FE00006E0204BDA68BB69DB431E491340CB6037
:101FF0003B685B6803F40033002B06D0194B5A682A
:102000001849BB6913434B6006E0164B5A68BB691D
:10201000DB43144913404B603B685B6803F4803337
:10202000002B21D00F4B1A680E49BB6913430B607C
:1020300021E000BF0000321000003110000022102B
:1020400000002110000012100000111000100240CA
:102050000000014000080140000C01400010014058
:1020600000140140000401400B4B1A68BB69DB43BC
:10207000094913400B607B6A01337B623B681A6835
:102080007B6A22FA03F3002B7FF48EAE00BF00BF01
:102090002C37BD4680BC70470004014080B483B03B
:1020A00000AF78600B467B8013467B707B78002BFB
:1020B00003D07A887B681A6103E07B881A047B6806
:1020C0001A6100BF0C37BD4680BC704780B586B032
:1020D00000AF78607B68002B01D1012372E27B683E
:1020E0001B6803F00103002B00F08780924B5B68B4
:1020F00003F00C03042B0CD08F4B5B6803F00C0334
:10210000082B12D18C4B5B6803F48033B3F5803F0E
:102110000BD1894B1B6803F40033002B6CD07B6818
:102120005B68002B68D101234CE27B685B68B3F5E8
:10213000803F06D1804B1B687F4A43F48033136095
:102140002EE07B685B68002B0CD17B4B1B687A4AC6
:1021500023F480331360784B1B68774A23F4802381
:1021600013601DE07B685B68B3F5A02F0CD1724B48
:102170001B68714A43F4802313606F4B1B686E4ADF
:1021800043F4803313600BE06B4B1B686A4A23F403
:1021900080331360684B1B68674A23F48023136005
:1021A0007B685B68002B13D0FFF72AFC386108E0DE
:1021B000FFF726FC02463B69D31A642B01D903239F
:1021C00000E25D4B1B6803F40033002BF0D014E0F9
:1021D000FFF716FC386108E0FFF712FC02463B6986
:1021E000D31A642B01D90323ECE1534B1B6803F48E
:1021F0000033002BF0D100E000BF7B681B6803F0C8
:102200000203002B63D04C4B5B6803F00C03002BE4
:102210000BD0494B5B6803F00C03082B1CD1464BD9
:102220005B6803F48033002B16D1434B1B6803F02B
:102230000203002B05D07B681B69012B01D0012311
:10224000C0E13D4B1B6823F0F8027B685B69DB0053
:10225000394913430B603AE07B681B69002B20D09F
:10226000364B01221A60FFF7CBFB386108E0FFF71D
:10227000C7FB02463B69D31A022B01D90323A1E114
:102280002D4B1B6803F00203002BF0D02A4B1B6878
:1022900023F0F8027B685B69DB00274913430B607E
:1022A00015E0264B00221A60FFF7AAFB386108E010
:1022B000FFF7A6FB02463B69D31A022B01D9032381
:1022C00080E11D4B1B6803F00203002BF0D17B68FB
:1022D0001B6803F00803002B3AD07B689B69002B36
:1022E00019D0174B01221A60FFF78AFB386108E00A
:1022F000FFF786FB02463B69D31A022B01D9032361
:1023000060E10D4B5B6A03F00203002BF0D001206B
:1023100000F0CEFA1CE00A4B00221A60FFF770FBB7
:1023200038610FE0FFF76CFB02463B69D31A022BC2
:1023300008D9032346E100BF0010024000004242DA
:1023400080044242924B5B6A03F00203002BE9D106
:102350007B681B6803F00403002B00F0A6800023B9
:10236000FB758B4BDB6903F08053002B0DD1884B41
:10237000DB69874A43F08053D361854BDB6903F007
:102380008053BB60BB680123FB75824B1B6803F461
:102390008073002B18D17F4B1B687E4A43F48073F7
:1023A0001360FFF72DFB386108E0FFF729FB0246B9
:1023B0003B69D31A642B01D9032303E1754B1B68D6
:1023C00003F48073002BF0D07B68DB68012B06D10F
:1023D0006F4B1B6A6E4A43F0010313622DE07B686A
:1023E000DB68002B0CD16A4B1B6A694A23F001039E
:1023F0001362674B1B6A664A23F0040313621CE0F6
:102400007B68DB68052B0CD1614B1B6A604A43F08B
:10241000040313625E4B1B6A5D4A43F001031362BF
:102420000BE05B4B1B6A5A4A23F001031362584BC3
:102430001B6A574A23F0040313627B68DB68002B96
:1024400015D0FFF7DDFA38610AE0FFF7D9FA024646
:102450003B69D31A41F28832934201D90323B1E098
:102460004B4B1B6A03F00203002BEED014E0FFF786
:10247000C7FA38610AE0FFF7C3FA02463B69D31A8C
:1024800041F28832934201D903239BE0404B1B6AFF
:1024900003F00203002BEED1FB7D012B05D13C4B59
:1024A000DB693B4A23F08053D3617B68DB69002BF7
:1024B00000F08780364B5B6803F00C03082B61D07B
:1024C0007B68DB69022B46D1334B00221A60FFF791
:1024D00097FA386108E0FFF793FA02463B69D31A8E
:1024E000022B01D903236DE0294B1B6803F0007315
:1024F000002BF0D17B681B6AB3F5803F08D1244BD9
:102500005B6823F400327B689B68214913434B606E
:102510001F4B5B6823F474127B68196A7B685B6AE3
:102520000B431B4913434B601B4B01221A60FFF7FF
:1025300067FA386108E0FFF763FA02463B69D31A8D
:10254000022B01D903233DE0114B1B6803F00073FC
:10255000002BF0D035E0104B00221A60FFF750FA44
:10256000386108E0FFF74CFA02463B69D31A022BA8
:1025700001D9032326E0064B1B6803F00073002BF0
:10258000F0D11EE07B68DB69012B07D1012319E044
:102590000010024000700040600042420B4B5B683C
:1025A000FB60FB6803F480327B681B6A9A4206D1A9
:1025B000FB6803F470127B685B6A9A4201D00123C6
:1025C00000E0002318461837BD4680BD00100240C9
:1025D00080B584B000AF786039607B68002B01D192
:1025E0000123D0E06A4B1B6803F007033A689A4264
:1025F00010D9674B1B6823F0070265493B681343FA
:102600000B60634B1B6803F007033A689A4201D0E2
:102610000123B8E07B681B6803F00203002B20D085
:102620007B681B6803F00403002B05D0594B5B68E3
:10263000584A43F4E06353607B681B6803F0080367
:10264000002B05D0534B5B68524A43F460535360F0
:10265000504B5B6823F0F0027B689B684D49134345
:102660004B607B681B6803F00103002B40D07B6844
:102670005B68012B07D1474B1B6803F40033002B29
:1026800015D101237FE07B685B68022B07D1414BAA
:102690001B6803F00073002B09D1012373E03D4B4D
:1026A0001B6803F00203002B01D101236BE0394BBF
:1026B0005B6823F003027B685B68364913434B6019
:1026C000FFF79EF9F8600AE0FFF79AF90246FB6807
:1026D000D31A41F28832934201D9032353E02D4BA0
:1026E0005B6803F00C027B685B689B009A42EBD14D
:1026F000274B1B6803F007033A689A4210D2244B19
:102700001B6823F0070222493B6813430B60204BF0
:102710001B6803F007033A689A4201D0012332E0B4
:102720007B681B6803F00403002B08D0194B5B681F
:1027300023F4E0627B68DB68164913434B607B68D7
:102740001B6803F00803002B09D0124B5B6823F4CD
:1027500060527B681B69DB000E4913434B6000F03D
:1027600021F802460B4B5B681B0903F00F030A4973
:10277000CB5C22FA03F3094A1360094B1B68184625
:10278000FFF7FCF8002318461037BD4680BD00BF98
:102790000020024000100240EC6800080000002009
:1027A0000400002080B487B000AF0023FB6000234A
:1027B000BB6000237B6100237B6000233B611E4BD9
:1027C0005B68FB60FB6803F00C03042B02D0082B52
:1027D00003D027E0194B3B6127E0FB689B0C03F01B
:1027E0000F03174AD35C7B60FB6803F48033002B34
:1027F00010D0114B5B685B0C03F00103114AD35CF2
:10280000BB607B680D4A03FB02F2BB68B2FBF3F3CB
:102810007B6104E07B680C4A02FB03F37B617B690C
:102820003B6102E0054B3B6100BF3B6918461C372A
:10283000BD4680BC704700BF0010024000127A0005
:10284000046900081469000800093D0080B400AF65
:10285000024B1B681846BD4680BC70470000002034
:1028600080B500AFFFF7F2FF0246054B5B681B0A1D
:1028700003F007030349CB5C22FA03F3184680BD3B
:1028800000100240FC68000880B500AFFFF7DEFFD3
:102890000246054B5B68DB0A03F007030349CB5C88
:1028A00022FA03F3184680BD00100240FC680008BD
:1028B00080B485B000AF78600A4B1B680A4AA2FB5F
:1028C00003235B0A7A6802FB03F3FB6000BFFB682B
:1028D0005A1EFA60002BF9D100BF00BF1437BD4665
:1028E00080BC704700000020D34D621080B582B0DC
:1028F00000AF78607B68002B01D1012341E07B6849
:1029000093F83D30DBB2002B06D17B68002283F8C0
:102910003C207868FEF706FE7B68022283F83D20A3
:102920007B681A687B6804331946104600F092F9F8
:102930007B68012283F846207B68012283F83E20D1
:102940007B68012283F83F207B68012283F84020C6
:102950007B68012283F841207B68012283F84220B2
:102960007B68012283F843207B68012283F844209E
:102970007B68012283F845207B68012283F83D2093
:10298000002318460837BD4680BD000080B584B0DE
:1029900000AF786039603B68002B09D17B6893F801
:1029A0003E30DBB2012B14BF01230023DBB222E057
:1029B0003B68042B09D17B6893F83F30DBB2012BD5
:1029C00014BF01230023DBB215E03B68082B09D1BB
:1029D0007B6893F84030DBB2012B14BF0123002346
:1029E000DBB208E07B6893F84130DBB2012B14BF07
:1029F00001230023DBB2002B01D001235EE03B6802
:102A0000002B04D17B68022283F83E2013E03B6850
:102A1000042B04D17B68022283F83F200BE03B6843
:102A2000082B04D17B68022283F8402003E07B68F6
:102A3000022283F841207B681B680122396818460E
:102A400000F0F2FA7B681B681E4A934207D17B684C
:102A50001B685A6C7B681B6842F400425A647B68AE
:102A60001B68184A93420ED07B681B68B3F1804FF5
:102A700009D07B681B68144A934204D07B681B68AA
:102A8000124A934211D17B681B689B6803F00703CD
:102A9000FB60FB68062B10D07B681B681A687B689C
:102AA0001B6842F001021A6007E07B681B681A6825
:102AB0007B681B6842F001021A6000231846103739
:102AC000BD4680BD002C01400004004000080040CD
:102AD00080B586B000AFF860B9607A600023FB75FE
:102AE000FB6893F83C30012B01D10223AEE0FB6878
:102AF000012283F83C207B680C2B00F29F8001A20E
:102B000052F823F0392B00083D2C00083D2C00081A
:102B10003D2C0008792B00083D2C00083D2C0008B6
:102B20003D2C0008BB2B00083D2C00083D2C000864
:102B30003D2C0008FB2B0008FB681B68B968184691
:102B400000F0EAF8FB681B689A69FB681B6842F0B2
:102B500008029A61FB681B689A69FB681B6822F08F
:102B600004029A61FB681B689969BB681A69FB6873
:102B70001B680A439A6164E0FB681B68B9681846E1
:102B800000F030F9FB681B689A69FB681B6842F427
:102B900000629A61FB681B689A69FB681B6822F4F3
:102BA00080629A61FB681B689969BB681B691A029D
:102BB000FB681B680A439A6143E0FB681B68B968BD
:102BC000184600F079F9FB681B68DA69FB681B6836
:102BD00042F00802DA61FB681B68DA69FB681B686F
:102BE00022F00402DA61FB681B68D969BB681A69C4
:102BF000FB681B680A43DA6123E0FB681B68B9685D
:102C0000184600F0C3F9FB681B68DA69FB681B68AB
:102C100042F40062DA61FB681B68DA69FB681B68D2
:102C200022F48062DA61FB681B68D969BB681B69A2
:102C30001A02FB681B680A43DA6102E00123FB7594
:102C400000BFFB68002283F83C20FB7D1846183744
:102C5000BD4680BD80B485B000AF786039607B68C8
:102C60001B68FB607B68294A93420BD07B68B3F1F9
:102C7000804F07D07B68264A934203D07B68254A61
:102C8000934208D1FB6823F07003FB603B685B68EC
:102C9000FA681343FB607B681C4A93420BD07B6845
:102CA000B3F1804F07D07B68194A934203D07B6809
:102CB000184A934208D1FB6823F44073FB603B68D9
:102CC000DB68FA681343FB60FB6823F080023B6813
:102CD0005B691343FB607B68FA681A603B689A681B
:102CE0007B68DA623B681A687B689A627B68074A8D
:102CF000934203D13B681A697B681A637B6801229F
:102D00005A6100BF1437BD4680BC7047002C01409B
:102D1000000400400008004080B487B000AF786035
:102D200039607B681B6A7B617B681B6A23F0010248
:102D30007B681A627B685B683B617B689B69FB60B0
:102D4000FB6823F07003FB60FB6823F00303FB6068
:102D50003B681B68FA681343FB607B6923F002033E
:102D60007B613B689B687A6913437B617B681C4A83
:102D700093420CD17B6923F008037B613B68DB68DD
:102D80007A6913437B617B6923F004037B617B6871
:102D9000134A934211D13B6923F480733B613B6931
:102DA00023F400733B613B685B693A6913433B6101
:102DB0003B689B693A6913433B617B683A695A6097
:102DC0007B68FA689A613B685A687B685A637B68DB
:102DD0007A691A6200BF1C37BD4680BC704700BFCD
:102DE000002C014080B487B000AF786039607B6808
:102DF0001B6A7B617B681B6A23F010027B681A6286
:102E00007B685B683B617B689B69FB60FB6823F4C4
:102E1000E043FB60FB6823F44073FB603B681B6886
:102E20001B02FA681343FB607B6923F020037B617C
:102E30003B689B681B017A6913437B617B681D4A71
:102E400093420DD17B6923F080037B613B68DB6893
:102E50001B017A6913437B617B6923F040037B612B
:102E60007B68144A934213D13B6923F480633B612E
:102E70003B6923F400633B613B685B699B003A69F3
:102E800013433B613B689B699B003A6913433B6179
:102E90007B683A695A607B68FA689A613B685A684D
:102EA0007B689A637B687A691A6200BF1C37BD46EB
:102EB00080BC7047002C014080B487B000AF7860C0
:102EC00039607B681B6A7B617B681B6A23F48072B4
:102ED0007B681A627B685B683B617B68DB69FB60CF
:102EE000FB6823F07003FB60FB6823F00303FB60C7
:102EF0003B681B68FA681343FB607B6923F400732B
:102F00007B613B689B681B027A6913437B617B682A
:102F10001D4A93420DD17B6923F400637B613B68BA
:102F2000DB681B027A6913437B617B6923F480634E
:102F30007B617B68144A934213D13B6923F480532D
:102F40003B613B6923F400533B613B685B691B01B8
:102F50003A6913433B613B689B691B013A69134320
:102F60003B617B683A695A607B68FA68DA613B6862
:102F70005A687B68DA637B687A691A6200BF1C371B
:102F8000BD4680BC704700BF002C014080B487B0B4
:102F900000AF786039607B681B6A3B617B681B6AA5
:102FA00023F480527B681A627B685B687B617B6874
:102FB000DB69FB60FB6823F4E043FB60FB6823F400
:102FC0004073FB603B681B681B02FA681343FB609D
:102FD0003B6923F400533B613B689B681B033A69E0
:102FE00013433B617B680F4A934209D17B6923F409
:102FF00080437B613B685B699B017A6913437B611A
:103000007B687A695A607B68FA68DA613B685A685B
:103010007B681A647B683A691A6200BF1C37BD4638
:1030200080BC7047002C014080B487B000AFF860CE
:10303000B9607A60BB6803F01F03012202FA03F350
:103040007B61FB681A6A7B69DB431A40FB681A6282
:10305000FB681A6ABB6803F01F03796801FA03F37F
:103060001A43FB681A6200BF1C37BD4680BC70471C
:1030700080B485B000AF786039607B6893F83C30ED
:10308000012B01D1022346E07B68012283F83C201A
:103090007B68022283F83D207B681B685B68FB60CD
:1030A0007B681B689B68BB60FB6823F07003FB6058
:1030B0003B681B68FA681343FB607B681B68FA680F
:1030C0005A607B681B68164A93420ED07B681B6867
:1030D000B3F1804F09D07B681B68124A934204D039
:1030E0007B681B68104A93420CD1BB6823F08003B5
:1030F000BB603B685B68BA681343BB607B681B6856
:10310000BA689A607B68012283F83D207B680022C0
:1031100083F83C20002318461437BD4680BC704716
:10312000002C0140000400400008004080B582B03F
:1031300000AF78607B68002B01D1012342E07B68FF
:1031400093F84130DBB2002B06D17B68002283F874
:1031500040207868FEF786FA7B68242283F84120B5
:103160007B681B68DA687B681B6822F40052DA60AF
:10317000786800F0D5FC7B681B681A697B681B685F
:1031800022F490421A617B681B685A697B681B684D
:1031900022F02A025A617B681B68DA687B681B6828
:1031A00042F40052DA607B6800225A647B68202275
:1031B00083F841207B68202283F842207B6800222C
:1031C0005A63002318460837BD4680BD80B584B0D9
:1031D00000AFF860B9601346FB80FB6893F842309B
:1031E000DBB2202B12D1BB68002B02D0FB88002B56
:1031F00001D101230BE0FB6800221A63FB881A4609
:10320000B968F86800F0B7FA034600E002231846F0
:103210001037BD4680BD000080B5BAB000AF786001
:103220007B681B681B68C7F8E4307B681B68DB6839
:10323000C7F8E0307B681B685B69C7F8DC300023A7
:10324000C7F8D8300023C7F8D430D7F8E43003F0FB
:103250000F03C7F8D830D7F8D830002B0FD1D7F8E4
:10326000E43003F02003002B09D0D7F8E03003F05E
:103270002003002B03D0786800F093FB5BE2D7F8C3
:10328000D830002B00F0DE80D7F8DC3003F00103EB
:10329000002B06D1D7F8E03003F49073002B00F038
:1032A000D180D7F8E43003F00103002B0BD0D7F81E
:1032B000E03003F48073002B05D07B685B6C43F037
:1032C00001027B685A64D7F8E43003F00403002B52
:1032D0000BD0D7F8DC3003F00103002B05D07B685E
:1032E0005B6C43F002027B685A64D7F8E43003F069
:1032F0000203002B0BD0D7F8DC3003F00103002BC6
:1033000005D07B685B6C43F004027B685A64D7F895
:10331000E43003F00803002B11D0D7F8E03003F0BD
:103320002003002B05D1D7F8DC3003F00103002B7C
:1033300005D07B685B6C43F008027B685A647B684D
:103340005B6C002B00F0F281D7F8E43003F020032F
:10335000002B08D0D7F8E03003F02003002B02D078
:10336000786800F01EFB7B681B685B6903F0400314
:10337000002B14BF01230023DBB2C7F8D4307B68D5
:103380005B6C03F00803002B03D1D7F8D430002B7B
:103390004FD0786800F028FA7B681B685B6903F0FF
:1033A0004003002B41D07B681B681433C7F89C3066
:1033B000D7F89C3053E8003FC7F89830D7F89830DA
:1033C00023F04003C7F8D0307B681B681433D7F86C
:1033D000D020C7F8A820C7F8A430D7F8A410D7F891
:1033E000A82041E80023C7F8A030D7F8A030002B70
:1033F000D9D17B68DB6B002B13D07B68DB6B7E4AFB
:103400005A637B68DB6B1846FEF74CFC0346002BC7
:1034100016D07B68DB6B5B6B7A68D26B1046984783
:103420000EE0786800F093F90AE0786800F08FF910
:1034300006E0786800F08BF97B6800225A6475E139
:1034400000BF73E17B681B6B012B40F04F81D7F805
:10345000E43003F01003002B00F04881D7F8E0308F
:1034600003F01003002B00F041810023BB607B6858
:103470001B681B68BB607B681B685B68BB60BB68C4
:103480007B681B685B6903F04003002B00F0B6808B
:103490007B68DB6B1B685B68A7F8BE30B7F8BE3093
:1034A000002B00F045817B689B8DB7F8BE209A42C7
:1034B00080F03E817B68B7F8BE20DA857B68DB6BE5
:1034C0009B69202B00F088807B681B680C33C7F851
:1034D0008830D7F8883053E8003FC7F88430D7F8F1
:1034E000843023F48073C7F8B8307B681B680C33D2
:1034F000D7F8B820C7F89420C7F89030D7F89010C4
:10350000D7F8942041E80023C7F88C30D7F88C30E6
:10351000002BD9D17B681B6814337B677B6F53E822
:10352000003F3B673B6F23F00103C7F8B4307B6873
:103530001B681433D7F8B420C7F88020FB67F96FF5
:10354000D7F8802041E80023BB67BB6F002BE1D197
:103550007B681B6814333B663B6E53E8003FFB659A
:10356000FB6D23F04003C7F8B0307B681B68143351
:10357000D7F8B020FA66BB66B96EFA6E41E8002350
:103580007B667B6E002BE3D17B68202283F8422090
:103590007B6800221A637B681B680C33FB64FB6C3E
:1035A00053E8003FBB64BB6C23F01003C7F8AC309A
:1035B0007B681B680C33D7F8AC20BA657B65796DE6
:1035C000BA6D41E800233B653B6D002BE3D17B687E
:1035D000DB6B1846FEF72BFB7B6802225A637B6885
:1035E0009A8D7B68DB8D9BB2D31A9BB219467868A3
:1035F00000F0B6F89CE000BFAD3800087B689A8DFB
:103600007B68DB8D9BB2D31AA7F8CE307B68DB8D4D
:103610009BB2002B00F08E80B7F8CE30002B00F06C
:1036200089807B681B680C33BB63BB6B53E8003F2E
:103630007B637B6B23F49073C7F8C8307B681B688F
:103640000C33D7F8C8207A643B64396C7A6C41E853
:103650000023FB63FB6B002BE3D17B681B681433F7
:103660007B627B6A53E8003F3B623B6A23F00103C5
:10367000C7F8C4307B681B681433D7F8C4203A639A
:10368000FB62F96A3A6B41E80023BB62BB6A002B1C
:10369000E3D17B68202283F842207B6800221A63F2
:1036A0007B681B680C333B613B6953E8003FFB6060
:1036B000FB6823F01003C7F8C0307B681B680C332D
:1036C000D7F8C020FA61BB61B969FA6941E8002303
:1036D0007B617B69002BE3D17B6802225A63B7F8D8
:1036E000CE301946786800F03BF823E0D7F8E43094
:1036F00003F08003002B09D0D7F8E03003F08003FB
:10370000002B03D0786800F0E5F814E0D7F8E43037
:1037100003F04003002B0ED0D7F8E03003F0400355
:10372000002B08D0786800F024F904E000BF02E024
:1037300000BF00E000BFE837BD4680BD80B483B065
:1037400000AF786000BF0C37BD4680BC704780B4C6
:1037500083B000AF786000BF0C37BD4680BC7047B7
:1037600080B483B000AF78600B467B8000BF0C371D
:10377000BD4680BC704780B485B000AFF860B960CA
:103780001346FB80FB68BA689A62FB68FA889A85E0
:10379000FB68FA88DA85FB6800225A64FB682222FB
:1037A00083F84220FB681B69002B07D0FB681B686D
:1037B000DA68FB681B6842F48072DA60FB681B6899
:1037C0005A69FB681B6842F001025A61FB681B687A
:1037D000DA68FB681B6842F02002DA6000231846B2
:1037E0001437BD4680BC704780B495B000AF786098
:1037F0007B681B680C337B637B6B53E8003F3B6348
:103800003B6B23F49073FB647B681B680C33FA6C8E
:103810003A64FB63F96B3A6C41E80023BB63BB6B12
:10382000002BE5D17B681B6814333B623B6A53E88D
:10383000003FFB61FB6923F00103BB647B681B68ED
:103840001433BA6CFA62BB62B96AFA6A41E80023BF
:103850007B627B6A002BE5D17B681B6B012B19D146
:103860007B681B680C33FB60FB6853E8003FBB6060
:10387000BB6823F010037B647B681B680C337A6C95
:10388000BA617B617969BA6941E800233B613B69B0
:10389000002BE5D17B68202283F842207B68002240
:1038A0001A6300BF5437BD4680BC704780B584B0F2
:1038B00000AF78607B685B6AFB60FB680022DA859A
:1038C000FB680022DA84F868FFF741FF00BF103779
:1038D000BD4680BD80B485B000AF78607B6893F84A
:1038E0004130DBB2212B3ED17B689B68B3F5805F12
:1038F00014D17B681B69002B10D17B681B6AFB60AD
:10390000FB681B881A467B681B68C2F308025A6072
:103910007B681B6A9A1C7B681A6208E07B681B6ADA
:10392000591C7A6811621A787B681B685A607B6838
:10393000DB8C9BB2013B9BB27A681946D184002B89
:103940000FD17B681B68DA687B681B6822F08002F5
:10395000DA607B681B68DA687B681B6842F04002AB
:10396000DA60002300E0022318461437BD4680BC0D
:10397000704780B582B000AF78607B681B68DA68FA
:103980007B681B6822F04002DA607B68202283F8A3
:1039900041207868FFF7D2FE002318460837BD465D
:1039A00080BD80B58CB000AF78607B6893F8423002
:1039B000DBB2222B40F0AE807B689B68B3F5805F62
:1039C00017D17B681B69002B13D10023FB627B6836
:1039D0009B6ABB627B681B685B689BB2C3F308038E
:1039E0009AB2BB6A1A807B689B6A9A1C7B689A624F
:1039F00026E07B689B6AFB620023BB627B689B6856
:103A0000B3F5805F07D07B689B68002B0AD17B6889
:103A10001B69002B06D17B681B685B68DAB2FB6A06
:103A20001A7008E07B681B685B68DBB203F07F03F9
:103A3000DAB2FB6A1A707B689B6A5A1C7B689A62CE
:103A40007B68DB8D9BB2013B9BB27A681946D185BE
:103A5000002B5DD17B681B68DA687B681B6822F0ED
:103A60002002DA607B681B68DA687B681B6822F4D6
:103A70008072DA607B681B685A697B681B6822F079
:103A800001025A617B68202283F842207B68002271
:103A90005A637B681B6B012B35D17B6800221A634C
:103AA0007B681B680C337B617B6953E8003F3B619B
:103AB0003B6923F010037B627B681B680C337A6AD6
:103AC0003A62FB61F9693A6A41E80023BB61BB696C
:103AD000002BE5D17B681B681B6803F01003102BDB
:103AE0000AD10023FB607B681B681B68FB607B6856
:103AF0001B685B68FB60FB687B689B8D1946786878
:103B0000FFF72EFE02E07868FDF7BEF8002302E022
:103B1000002300E0022318463037BD4680BD000078
:103B200080B584B000AF78607B681B681B6923F4A4
:103B300040517B68DA687B681B680A431A617B68BE
:103B40009A687B681B691A437B685B691343BB6097
:103B50007B681B68DB6823F4B05323F00C037A689E
:103B60001268B9680B43D3607B681B685B6923F4F8
:103B700040717B689A697B681B680A435A617B685D
:103B80001B682C4A934203D1FEF77EFEF86002E0E8
:103B9000FEF766FEF860FA6813469B0013449A002D
:103BA0001A447B685B689B00B2FBF3F3224AA2FBDA
:103BB00003235B091901FA6813469B0013449A001A
:103BC0001A447B685B689B00B2FBF3F21A4BA3FBC1
:103BD00002035B09642000FB03F3D31A1B01323399
:103BE000154AA2FB03235B0903F0F0031944FA68AA
:103BF00013469B0013449A001A447B685B689B0041
:103C0000B2FBF3F20C4BA3FB02035B09642000FB45
:103C100003F3D31A1B013233074AA2FB03235B09C8
:103C200003F00F027B681B680A449A6000BF1037DC
:103C3000BD4680BD003801401F85EB51002100F0DA
:103C4000FBBD2DE9F0410F46904601F0DFFF044631
:103C50000D46B8F1000F11D0C7F30A53C3F16B033F
:103C6000002B0BDD00241B0503F17F5505F54015E6
:103C700022462B46FCF728FC04460D4620462946E2
:103C8000BDE8F081000000002DE9F04F9FB01792D1
:103C900000220C461A924FF0000A4FF0000B0A4621
:103CA0000590199211782B2948D036D80D2930D893
:103CB000082930D8002939D000220B92199D2A7882
:103CC000302A40F0B1806A7802F0DF02582A6CD1C5
:103CD00002930B9B8E4A01931AAB009305981BAB82
:103CE00019A901F087F810F00F06044605D0062E3A
:103CF00026D10023013519950B93179B002B40F01B
:103D000084850B9BBBB150460BF100411FB0BDE851
:103D1000F08F2029D0D10132C3E72D29CCD1012148
:103D20000B91511C19915278002AC7D1179B1994F5
:103D3000002B40F0688550465946E7E70021EFE741
:103D40001A9A3AB135211CA802F050F81A99059830
:103D500001F02AFC013E1B9A042E06D8DFE806F08B
:103D600014031D201400DDE91CABE10548BF4BF036
:103D7000004B2BF000431B0D1B05002BBDD100F0A9
:103D800029FF22230360B8E702F23342DDE91CA3D6
:103D900023F4801343EA025BE7E7DFF878B1E4E756
:103DA0006FF0004B4FF0FF3ADFE7199B5A1C199256
:103DB0005B78302BF9D0002B9FD001230993199BFE
:103DC0000A220C9300231F4608930A93199805783A
:103DD000A5F13003D9B2092928D901224E4900F0B2
:103DE00044FE002832D000202A4681463D46034644
:103DF000652A01D0452A14D11DB9099A024395D0EC
:103E00000025199C621C199262782B2A77D02D2AE2
:103E10007BD04FF0000CA2F13001092940F28280E2
:103E200019944FF00008A2E00023C7E7082FD5BF80
:103E30000A99089902FB013302FB013300F10100EA
:103E4000D4BF0A93089301371990BFE7199B5A1CF6
:103E500019925A787FB381463D46A2F13003092B6F
:103E600012D90123C4E7199B01305A1C19925A78C0
:103E7000302AF8D0A2F13103082B00F2CB8481461E
:103E800000200546199B0C93303A00F101032AD01B
:103E900099440A212B4600EB050C63450DD1691CA2
:103EA00001442844082816DC0A230A9803FB00234F
:103EB0000A93002318E03846DAE7082B03F10103E0
:103EC00003DC0A9E4E430A96E7E7102BDEBF089EEE
:103ED0004E430896E1E70F28EBDC0A23089803FB22
:103EE00000230893E5E72946199A0D46501C1990BE
:103EF00052781846B1E74FF0000901237DE74FF0F3
:103F0000000CA21C1992A27885E74FF0010CF8E78B
:103F1000386900080000F07F16690008199A511CE2
:103F200019915278302AF9D0A2F1310108293FF6CF
:103F300078AF4FF00A08303A0E92199A0F92199AF8
:103F4000561C19965278A2F1300EBEF1090F39D9DC
:103F50000F9944F61F68761A082E03DC0E998845DF
:103F6000A8BF8846BCF1000F01D0C8F10008002DA1
:103F70004ED1099908437FF4C0AE002B7FF4D6AE32
:103F8000692A28D025DC492A25D04E2A7FF4CEAED6
:103F90009A4919A801F050F900283FF4C7AE199BBF
:103FA0001B78282B2ED196491CAA19A801F058F984
:103FB000052827D11D9BDDF870A043F0FF4B4BF483
:103FC000E00B9AE60E9908FB0121A1F130020E9256
:103FD000B5E76E2ADAE78B4919A801F02DF9002818
:103FE0003FF4A4AE199B8849013B19A8199301F02D
:103FF00023F910B9199B013319934FF0000ADFF828
:104000000CB27AE6824800F021FE82468B4674E6C6
:10401000A8EB0903002F08BF2F460A98102D2C4645
:104020000993A8BF1024FCF7D5F9092D82468B46C9
:1040300011DC099B002B3FF460AE099B76DD162B4B
:104040005DDC7449524601EBC3015B46D1E90001D6
:10405000FCF73AFAD9E76F4B03EBC40353E9122399
:10406000FCF732FA824608988B46FCF7B3F9024611
:104070000B4650465946FCF771F80F2D82468B4689
:10408000D7DD099B2C1B1C44002C40F3968014F0B8
:104090000F030AD05F49524601EBC301D1E9000189
:1040A0005B46FCF711FA82468B4634F00F0473D05E
:1040B000B4F59A7F48DD0024A046A1460A94222345
:1040C0004FF0000A059ADFF844B113600A9B002BF9
:1040D0003FF413AE1A99059801F066FA494605981F
:1040E00001F062FA4146059801F05EFA0A990598D6
:1040F00001F05AFA2146059801F056FAFDE5099AB1
:10410000C5F125039342BCDB424CC5F10F0504EB1E
:10411000C5015246D1E900015B46FCF7D5F9099B80
:104120005D1B04EBC504D4E9002391E71633A8DB3B
:10413000384BA9EB080803EBC8085046D8E9002320
:104140005946FCF7EBFA60E7334B504608930023DF
:1041500059461E462411012C21DC0BB182468B46A8
:104160002D49ABF1547B01EBC6015246D1E9000168
:104170005B46FCF7A9F9254B0A460B4027498246C6
:104180008B4298D8A1F580118B4286BF4FF0FF3A41
:10419000DFF88CB002F1547B002308937AE0E20749
:1041A00005D5089BD3E90023FCF78EF90123089A73
:1041B0000136083264100892CDE7EDD0644214F065
:1041C0000F020AD0134B504603EBC2035946D3E902
:1041D0000023FCF7A3FA82468B462411DCD01F2C67
:1041E00020DD0024A046A1460A942223059A4FF020
:1041F000000A4FF0000B136068E700BF2169000858
:1042000024690008186900081B6900080000F07F95
:104210002C6A0008306B0008086B00080000A07CC6
:10422000FFFFEF7F14F0100318BF6A235046089376
:1042300059460023A94EE20704D5D6E90023FCF72E
:1042400043F90123641006F10806F4D10BB182464C
:104250008B46089BB3B1CBF30A52C2F16B03002B20
:1042600059460FDD1F2B57DD342BD8BF4FF0FF33DE
:104270004FF0000ACFBF4FF05C7BC2F14B0293407E
:1042800003EA010B0022002350465946FCF784FB49
:104290000028A6D10A9B3A4600930C992B46059814
:1042A00001F0EAF90A9000283FF405AF0024099ACA
:1042B000A9EB0803002AA8BF0023A046129322EA14
:1042C000E27316930A9B0598596801F02DF981460F
:1042D00000283FF4F4AE0A9B0C301A6903F10C017C
:1042E0000232920000F0A3FC1CAB01931BAB0093C5
:1042F00052465B460598CDE90CAB01F0EFFC1A90F5
:1043000000283FF4DCAE0121059801F04BFA80460D
:1043100048B94FF00008D2E64FF0FF3202FA03F33B
:1043200003EA0A0AAEE71B9D1C9A002DABBF129B45
:10433000169BEF185E1B089BA8BF169EA5EB0305F6
:104340001544674B05F1FF35B8BF129F9D42C2F17E
:10435000360250DA5B1B1F2B4FF00101A2EB030268
:104360003DDC01FA03F3139300231093BD18089B5F
:10437000AF4216441E443B46A8BF2B46B342A8BFDB
:104380003346002BC2BFED1AF61AFF1A129B002B00
:1043900016DD41461A46059801F0C2FA804600280B
:1043A000B7D001461A9A059801F012FA0E9000282B
:1043B0003FF485AE1A99059801F0F6F80E9B1A9312
:1043C000002D1DDC099B002B23DD4946169A05981C
:1043D00001F0A6FA8146E0B94FF000096FE6C5F199
:1043E0007F4505F57F0505F57B45E23501FA05F3C7
:1043F00010931391BAE70023109301231393B5E7A9
:104400002A461A99059801F0E5FA1A900028D9D1A0
:1044100055E6002E07DD49463246059801F0DAFAE6
:1044200081460028D8D0002F08DD41463A4605983D
:1044300001F0D0FA804600283FF441AE4A461A996E
:10444000059801F04FFB044600283FF438AEC368DE
:1044500041460F930023C36001F028FB002845DA92
:104460000F9B53EA0A036BD1CBF31303002B67D1E5
:104470002BF000431B0D1B05B3F1D66F60D96369A8
:1044800013B92369012B5BDD21460122059801F058
:10449000A1FA4146044601F009FB002850DD2BF04B
:1044A0000043089A1B0D1B05002A6AD0B3F1D66F92
:1044B00067D8B3F15C7F7FF698AE50465946094BFA
:1044C0000022FCF701F8084B82460B408B46002B7C
:1044D0007FF400AE2223059A1360FBE550690008C3
:1044E00002FCFFFF000050390000F07FCDF838B02B
:1044F00065D10F9ACBF313035AB3994A93422BD148
:10450000089B514603B35A46964B1340B3F1D46F00
:104510004FF0FF321BD81B0DC3F16B0302FA03F3FC
:10452000994219D1904B0E9A9A4202D101313FF42F
:10453000C6AD4FF0000A8B4B0E9A1A4002F5801B55
:10454000089B002BB9D1C5E54FF0FF33E8E71346D0
:10455000E6E753EA0A03A2D0109BDBB10E9A13429E
:10456000EED00F9B50465946089ABBB1FFF769FB46
:1045700002460B46DDE90C01FBF7F0FD82468B4657
:10458000DEE7A3F580136FEA135B4FF0FF3A6FEAA3
:104590000B5BD5E7139B13EA0A0FE1E7FFF751FB2B
:1045A00002460B46DDE90C01FBF7D6FD0022002395
:1045B00082468B46FCF7F0F90028C1D015E641464B
:1045C000204601F0E3FB00224FF0804306460F46F1
:1045D000FCF7F6F900286DD00F9B002B78D1BAF1CB
:1045E000000F56D10E9BC3F31303002B58D10022AA
:1045F000304639465D4BFCF7D9F9002857D1304693
:10460000394600225A4BFBF75FFF06460F4607F17B
:10461000004306960793DDE90623524DCDE91023AA
:104620000E9B1D40534B9D4240F0AA800E9B50466E
:10463000A3F1547B594601F0E9FADDE90623FBF7C3
:1046400043FF52465B46FBF789FD0B4645494A4A04
:1046500019409142824642D90D9A434B9A4203D166
:104660000C9B01333FF42BAD4FF0FF3ADFF8F8B06D
:104670001A99059800F098FF4946059800F094FFB4
:104680004146059800F090FF2146059800F08CFF08
:1046900018E6BAF1010F03D10E9B002B3FF4A5AD34
:1046A0000022364B0026CDE90623304FB3E7002623
:1046B0002F4FACE7304639462D4B0022FBF704FF65
:1046C0000F9B06460F46002BA1D0CDE90667A2E757
:1046D0000022264B16461F46CDE906239BE703F131
:1046E000547B089BCDF838B0002BC1D12BF0004390
:1046F0001B0D1B059D42BBD130463946FCF714FA11
:10470000FBF7B4FE02460B4630463946FBF724FD64
:104710000B460246CBF31306CDE90C230F9B46EA6A
:104720000A061E4369D00AA3D3E90023FCF73EF929
:1047300000287FF4CFAC08A3D3E90023DDE90C0106
:10474000FCF752F9002893D0C4E400BFAFF3008017
:104750009535A094FFFFDF3F35E5AF350000E03F22
:10476000FFFF0F000000F07FFFFFEF7F0000F03F32
:104770000000E03F0000E07FFFFF9F7C0000F0BFF3
:10478000089B23B3B5F1D46F21D827A3D3E9002325
:1047900030463946FCF714F9A0B139463046FCF7EB
:1047A0002DF9012838BF0120FBF714FE0F9B0646A8
:1047B0000F46FBB901F1004314901593DDE9142372
:1047C000CDE91023119B03F1D6635B1B1193DDE947
:1047D0000C01DDE910AB01F019FA02460B46504618
:1047E0005946FBF771FEDDE90C23FBF7B7FC824667
:1047F0008B4676E7CDE91467E0E70DA3D3E9002304
:10480000FCF7D4F89EE700230B93199B179A1360CB
:10481000FFF777BA652A3FF46EAB452A3FF46BABDE
:104820000123FFF7A6BB00BF0000C0FFFFFFDF4171
:104830009535A094FFFFCF3F0A4601460248034B3F
:104840000068FFF721BA00BF840100201800002093
:10485000002310B50446C0E90033C0E90433836087
:1048600081814366C2818361194608225C3000F071
:10487000F4F80D4B246263620C4BA3620C4BE362B1
:104880000C4B23630C4B9C4206D003F1680294420C
:1048900002D0D0339C4205D104F15800BDE810404D
:1048A00000F0C2B910BD00BFD5490008F7490008A3
:1048B0002F4A0008534A000828030020024A0349EF
:1048C000034800F069B800BF0C000020915F0008A9
:1048D0008801002041680C4B10B59942044601D074
:1048E00001F056FBA168094B994202D0204601F025
:1048F0004FFBE168064B994204D02046BDE81040CA
:1049000001F046BB10BD00BF28030020900300202B
:10491000F803002010B50B4B0B4C0C4A20461A60D4
:1049200004210022FFF794FF04F16800012209210D
:10493000FFF78EFF04F1D0000222BDE810401221E3
:10494000FFF786BF6004002028030020BD48000850
:10495000014800F06AB900BF69040020014800F076
:1049600065B900BF6904002010B50446FFF7F0FFE9
:10497000236A1BB1BDE81040FFF7F0BF044B236270
:10498000044B1B68002BF5D1FFF7C4FFF2E700BF13
:10499000D5480008600400202DE9F8430746884602
:1049A00014460026D4E90195B9F1010905D524681A
:1049B000002CF7D13046BDE8F883AB89012B07D92D
:1049C000B5F90E30013303D029463846C0470643B7
:1049D0006835E9E710B50C46B1F90E1000F0D6F8CD
:1049E0000028ABBF636DA3891B1823F48053ACBFB1
:1049F0006365A38110BD2DE9F0411F468B890546F3
:104A0000DB050C46164605D502230022B1F90E102F
:104A100000F0AAF8A389324623F48053A3812846E4
:104A20003B46B4F90E10BDE8F04100F0C1B810B536
:104A30000C46B1F90E1000F097F8431CA38915BF7E
:104A4000606523F4805343F48053A38118BFA3818E
:104A500010BDB1F90E1000F077B80346024493423E
:104A600000D1704703F8011BF9E710B56AB10139AD
:104A7000841810F8012B11F8013F9A4203D1A0428B
:104A800001D0002AF5D1D01A10BD1046FCE7000075
:104A9000164B2DE9F0411F6805467C6C0E46ECB9BB
:104AA000502000F079FC0246786420B95B21104B5D
:104AB000104800F0D1F8C0E90044C0E90244C0E960
:104AC0000444C0E90A44C0E90C44C0E90E44C0E90A
:104AD0001044C0E912448461047744623146284698
:104AE0007A6C0123BDE8F04100F006B88401002093
:104AF000786900088F690008F0B5044608B91468A1
:104B000044B10F46204614F8015B17F8016B1EB93B
:104B100065B91560002005E0B542F6D1002BF0D153
:104B200014600370F0BD1C460CE015B90E4614F875
:104B3000013B16F8015BAB42F7D1002BF3D0002309
:104B400004F8013C1460EDE738B50023054D044638
:104B500008462B60FCF769FE431C02D12B6803B1A9
:104B6000236038BD6404002038B504460846114669
:104B70000022054D2A601A46FCF77BFE431C02D139
:104B80002B6803B1236038BD6404002038B50446A7
:104B9000084611460022054D2A601A46FCF70CFE15
:104BA000431C02D12B6803B1236038BD640400208C
:104BB00038B50446084611460022054D2A601A46BB
:104BC000FCF717FE431C02D12B6803B1236038BDEC
:104BD00064040020014B1868704700BF8401002066
:104BE00070B500260C4D0D4C641BA410A64209D1D3
:104BF00001F06EFE00260A4D0A4C641BA410A6426A
:104C000005D170BD55F8043B98470136EEE755F8DD
:104C1000043B98470136F2E72C6D00082C6D000824
:104C20002C6D0008306D00087047704770470A44CB
:104C3000914200F1FF3300D1704710B511F8014BDC
:104C4000914203F8014FF9D110BD00000020014945
:104C5000704700BF0000F87F1FB514461A46094B85
:104C600005461B68D86854B9074B1C46CDE901348A
:104C700000912B46054901F0B3F901F0D3F9044B3B
:104C8000F4E700BF840100202C6A0008FE690008D8
:104C9000F169000838B50546002940D051F8043CB8
:104CA0000C1F002BB8BFE41800F032FC1C4A13683C
:104CB00033B9636014602846BDE8384000F02EBC6C
:104CC000A34208D9206821188B4201BF19685B688C
:104CD00009182160EDE71A465B680BB1A342FAD9C7
:104CE00011685018A0420BD120680144501883422B
:104CF0001160E0D118685B68084410605360DAE71F
:104D000002D90C232B60D6E7206821188B4201BF03
:104D100019685B680918216063605460CBE738BD8F
:104D20007004002003692DE9F043B3EB611F00F12B
:104D300014044FEA611246DD11F01F0104EB8306F3
:104D400004EB82050CD1294600F11007B14235D39E
:104D50009B1A9B00EA1E964238BF0023234415E0AD
:104D6000A14654F82270C1F12008CF4005F1040E8D
:104D70007645F44616D89A1A9200043A0135AE42A6
:104D800038BF0022A318A75007B10433A342A3EBF6
:104D9000040208BF00234FEAA202026108BF436178
:104DA000BDE8F083DCF800C00CFA08FC4CEA070709
:104DB00049F8047B5EF8047BCF40D9E751F804CB77
:104DC00047F804CFC2E72346E0E7A0F13003092B00
:104DD00002D82038C0B27047A0F16103052B01D87A
:104DE0004738F7E7A0F14103052B01D82738F1E751
:104DF000002070472DE9F04F8A46904685B0029317
:104E00000B6801909C1CA14614F8010B3028FAD0C5
:104E1000A9EB0303A3F1020BFFF7D7FF0546002818
:104E200068D1012248469F49FFF71FFE0746002828
:104E300067D199F801002646FFF7C7FF002862D026
:104E4000234618789946302803F10103F9D0FFF77B
:104E5000BCFFB0FA80F54FF0010B6D094A461646CB
:104E600030780132FFF7B1FF0028F8D10122304637
:104E70008C49FFF7FAFD00283FD144B9741C224643
:104E8000164630780132FFF7A0FF0028F8D1A41BA6
:104E9000A700337803F0DF03502B3ED173782B2B20
:104EA00033D02D2B34D00024711C0878FFF78DFFF0
:104EB000431EDBB2182B30D8A0F1100211F8010FFD
:104EC000FFF783FF00F1FF3C5FFA8CFCBCF1180F89
:104ED0004FF00A031ED904B152421744CAF8001019
:104EE000EDB1BBF1000F0CBF06250025284605B02B
:104EF000BDE8F08F00252C46B0E7002CC7D127462F
:104F0000C7E74E462F460125C3E70024B11CCCE776
:104F10000124FBE703FB0200CEE73146DEE729462A
:104F2000A6EB0903013B072B0ADC019800F0FCFA11
:104F3000044640B90246E4215B4B5C48FFF78CFE17
:104F400001315B10EFE7002300F1140A55469B4640
:104F5000B14537D345F804BBA5EB0A05AD10256173
:104F6000584600F0D3FB6D01D8F800602D1AB54209
:104F700054DDAD1B2946204600F05BFF814678B129
:104F80004FF001096B1E59115AF8211003F01F024E
:104F900009FA02F20A4203D04B4536DC4FF002090F
:104FA00029462046FFF7BEFE2F44D8F80830BB4202
:104FB00042DA2146019800F0F7FA00230E9AA32561
:104FC000136093E716F8012D2E2A12D0202B04D15E
:104FD00045F804BB4FF0000B5B4630780393FFF7B6
:104FE000F4FE039B00F00F0098404BEA000B0433E3
:104FF000AEE7B145EAD8012230462A490393FFF7CC
:1050000034FD039B0028E1D1A2E72046A91E00F051
:1050100010FF0028C2D04FF00309C1E709DA751B61
:1050200021462A46019800F0D5FC04467F1B00F17A
:10503000140A4FF00009B8E7D8F80450BD426FDDFC
:10504000ED1BAE4234DCD8F80C30022B22D0032BFF
:1050500024D0012B15D1AE4213D1012E0BD1D8F89B
:105060000430029A6225136001232361CAF80030DC
:105070000E9B1C603AE72046711E00F0DAFE002805
:10508000EDD12146019800F08FFA00230E9A5025A9
:1050900013602BE70F9B002BF3D1E0E70F9B002B56
:1050A000DDD1EEE7166900082D6A00083E6A0008A7
:1050B0006F1EB9F1000F30D127B13946204600F0FC
:1050C000B8FE814601232946761B02257A115AF83B
:1050D000222007F01F07BB401342204618BF49F0AB
:1050E0000209FFF71FFED8F80470B9F1000F47D08E
:1050F000D8F80C30022B15D0032B17D0012B09D177
:1051000019F0020F06D0DAF8003049EA030919F065
:10511000010F0ED145F0100532E04FF00109D1E743
:105120000125E2E70F9BC3F101030F930F9B002BB7
:10513000F0D04FF0000CD4F810B004F114034FEA93
:105140008B0A03EB8B01184653F8042BB2F1FF3F97
:105150001BD001320260022D04F114033CD1D8F8B7
:105160000020013AB24209D10122711153F82130D5
:1051700006F01F0602FA06F61E423AD145F0200557
:105180000E9B1C60029B1F60B0E6994243F804CC62
:10519000D9D8A3689B4517DB61680198013100F0FD
:1051A000C3F9814618B902468421194BC5E6226924
:1051B00004F10C01023292000C30FFF738FD214659
:1051C000019800F0F1F94C4623695A1C2261012232
:1051D00004EB83035A61BEE722695A450BDD0121C6
:1051E0002046FFF79FFDD8F808300137BB42FFF695
:1051F000E0AE0125C2E716F01F06FAD0534453F87B
:10520000040C00F083FAC6F12006B042E7DBF0E7B9
:105210002D6A0008C2F10802920070B5C2F12006A2
:105220004368046803FA06F52C43D340046040F851
:10523000043F8842F4D370BD30B50368013311F8E0
:10524000014B14B90360012030BD13F8012BA2F10A
:105250004105192D98BF2032A242F0D00020F3E77B
:105260002DE9F04F00250B6882465E1102EB8606A1
:1052700013F01F0318BF0436371F9046B9463C464B
:10528000AB4687B00168019346F8045C02954A7802
:105290004B1C039342B3104605910492FFF795FD12
:1052A000002851D1049A0599202A18D8029B9B45C1
:1052B00013DD4C4506D2072D04DC2A46494620461C
:1052C000FFF7A8FF444552D90023A4F1040944F88C
:1052D000043C1D464C46CDF808B00399D7E7292A6F
:1052E00057D10231CAF80010BBF1000F51D04C4524
:1052F00006D2072D04DC2A4649462046FFF78AFFDE
:10530000444536D92346A8F1040253F8041B9F42B2
:1053100042F8041FF9D23B1B23F00303043301348A
:10532000033EB44288BF04230022434443F8042BC5
:105330009F42FBD23B681BB9474528D101233B6004
:10534000052007B0BDE8F08F0135082D0BF1010BEA
:1053500006DD4445C1D90023012544F8043C043C42
:10536000226800F00F0040EA02102060B5E708252F
:10537000B3E7019B002BDDD04FF0FF32C3F12003D8
:10538000DA4056F8043C134046F8043CD2E7043FA8
:10539000D0E70420D5E70000024B0146186800F072
:1053A00025B800BF8401002070B50F4E0C4631684F
:1053B000054611B900F026FE30602146284600F06F
:1053C00021FE431C03D14FF0FF34204670BDC41CA6
:1053D00024F00304A042F8D0211A284600F012FE5F
:1053E0000130F2D1EFE700BF6C0400202DE9F84353
:1053F000CD1C25F0030508350C2D38BF0C25002DDC
:10540000064601DBA94204D90C2333600020BDE825
:10541000F883DFF8D48000F07BF8D8F800301C4621
:1054200044BB29463046FFF7BFFF431C044658D112
:10543000D8F800402746002F43D1002C4BD02368DA
:105440003946304604EB030900F0DCFD814542D1CA
:10545000216830466D1A2946FFF7A6FF01303AD081
:1054600023682B442360D8F800305A6862BBC8F820
:1054700000700FE02268521B20D40B2A17D9611943
:10548000A342256018BF5960636808BFC8F80010C0
:1054900062514B60304600F041F804F10B00231DCF
:1054A00020F00700C21A1CBF1B1AA350AFE76268A6
:1054B000A3420CBFC8F800205A60EBE7234664689B
:1054C000AEE73C467F68B6E71A465B68A342FBD16D
:1054D00000235360DEE70C233046336000F01EF8F3
:1054E00094E70560D6E700BF7004002082B001B9E0
:1054F00001A942B14BB113780B601278101E18BF8E
:10550000012002B070471046FBE76FF00100F8E79A
:105510000148FFF78ABB00BF680400200148FFF77D
:1055200085BB00BF6804002070B5C66904460D46FF
:1055300076B91020FFF730FF0246E06120B96B21F9
:10554000174B1848FFF788FBC0E901660660C66084
:10555000E669F36883B1E369DB6853F82500B8B9FD
:10556000012101FA05F6721D2046920000F061FD4E
:1055700060B1C0E901560EE021220421204600F06E
:1055800058FDE369F060DB68002BE4D1002070BDBA
:10559000026843F825200023C0E90333F7E700BF82
:1055A000786900089E6A000870B5C66905460C4611
:1055B00076B91020FFF7F0FE0246E86120B98F218E
:1055C000084B0948FFF748FBC0E901660660C66062
:1055D0003CB1EB696268DB6853F82210216043F844
:1055E000224070BD786900089E6A00082DE9F041EC
:1055F00007460C461E4600200D6901F1140CDCF82C
:105600000030013099B202FB01611E0C0B0C02FB51
:10561000063389B201EB034185424FEA13464CF849
:10562000041BECDC0EB3A368AB4219DC616838469E
:105630000131FFF779FF804628B90246BA210C4BA9
:105640000C48FFF709FB226904F10C0102329200B9
:105650000C30FFF7ECFA21463846FFF7A5FF444629
:1056600004EB850301355E6125612046BDE8F081CC
:105670002D6A00089E6A00082DE9F84315460922A4
:105680001F4608330C4693FBF2F306460122002125
:105690009A4209DB3046FFF747FF40B90246D32163
:1056A000184B1948FFF7D8FA52000131F0E7089B70
:1056B000092D43614FF00103036116DD04F109096F
:1056C000C8462C4418F8013B01460A223046303BBC
:1056D000FFF78CFFA045F5D1A5F108044C442D1B24
:1056E0006319BB4204DBBDE8F88309250A34F6E7F9
:1056F00014F8013B01460A223046303BFFF776FFA3
:10570000EEE700BF2D6A00089E6A00080346B0F568
:10571000803F3ABF030410200020B3F1807F3CBFDC
:105720001B020830B3F1805F3CBF1B010430B3F1B2
:10573000804F3CBF9B000230002B05DB13F0804FF5
:1057400000F1010008BF202070470368024613F0F3
:1057500007000BD0D90721D4980749BF5B089B08E5
:10576000012013605CBF02201360704799B209B931
:1057700010201B0CD9B209B908301B0A190704BF45
:105780001B090430990704BF9B080230D90703D4D2
:105790005B0800F1010003D01360704700207047E0
:1057A0002020704710B50C460121FFF7BDFE0246D0
:1057B00028B940F24511044B0448FFF74DFA012384
:1057C0004461036110BD00BF2D6A00089E6A000895
:1057D0002DE9F04F14460A6923690F469A42A2BF89
:1057E00023460C461F46D4F810A0D7F81090A368A3
:1057F00061680AEB0906B34285B0B8BF0131FFF713
:1058000093FE30B902464FF4B171434B4348FFF762
:1058100023FA00F114052B46002205EB86084345C8
:1058200021D307F1140104F1140202EB8A0201EB07
:1058300089030293131B153B23F00303043304F184
:105840001507BA4238BF04230193029B03918B4290
:105850000CD8002E03DD58F8043D002B5AD0066109
:1058600005B0BDE8F08F43F8042BD8E7B1F800A0ED
:10587000BAF1000F23D0A9464FF0000C04F1140E2A
:105880005EF8047BD9F800301FFA87FB9BB20AFB55
:105890000B336344D9F800C03F0C4FEA1C4C0AFBA1
:1058A00007C707EB13479BB243EA074372454FEA2A
:1058B000174C49F8043BE3D8019B45F803C0039B10
:1058C0000431B3F80290B9F1000F21D0AE464FF089
:1058D000000A2B6804F1140CBCF800B0BEF802708A
:1058E0009BB209FB0B77574443EA07434EF8043B4E
:1058F0005CF8043B4FEA134ABEF80030624509FBEE
:105900000A3303EB17434FEA134AE5D8019FEB51E3
:1059100004359AE7013E9CE72D6A00089E6A00085C
:105920002DE9F843154612F0030207460E4607D04C
:10593000254C013A002354F82220FFF757FE064673
:10594000AD103DD0FC697CB91020FFF725FD024663
:10595000F86128B940F2B3111C4B1D48FFF77CF9E0
:10596000C0E901440460C460D7F81C80D8F808403E
:105970004CB940F271213846FFF714FF002304466A
:10598000C8F8080003604FF00009EB070AD531465C
:1059900022463846FFF71CFF804631463846FFF75F
:1059A00003FE46466D100BD0206838B922462146CA
:1059B0003846FFF70DFF2060C0F800900446E4E78A
:1059C0003046BDE8F88300BFF86A0008786900082F
:1059D0009E6A00082DE9F0470C4607469146236968
:1059E000496803EB6218A3684FEA621A08F10106DE
:1059F000B3420BDB3846FFF797FD054648B9024630
:105A00004FF4EF71274B2848FFF726F901315B006F
:105A1000EEE7002300F1140100F11002184653458F
:105A200033DB20692AEAEA7A04F1140319F01F092A
:105A300001EB8A0103EB800C2BD08A460022C9F1CE
:105A4000200E186800FA09F010434AF8040B53F8C6
:105A5000042B9C4522FA0EF2F3D8ACEB0403153B61
:105A600023F00303043304F11500844538BF0423F5
:105A7000CA500AB108F10206013E384621462E619D
:105A8000FFF792FD2846BDE8F08742F8040F013386
:105A9000C5E7043953F8042B9C4541F8042FF9D885
:105AA000EAE700BF2D6A00089E6A000803460A69FB
:105AB000006930B5801A0ED11433143103EB82041F
:105AC00001EB820154F8045D51F8042D954203D096
:105AD00005D24FF0FF3030BDA342F3D3FBE70120E6
